:020000040000fa
:080000000001040000000000f3
:020000040000fa
:10000800360b0000360b0000360b0000360b0000e4
:10001800360b0000360b0000360b0000360b0000d4
:10002800360b0000360b0000360b0000c60a000035
:10003800360b0000360b0000360b0000360b0000b4
:10004800360b0000360b0000360b0000de07000000
:10005800360b0000360b0000360b0000360b000094
:10006800360b0000360b0000360b0000360b000084
:10007800360b0000360b0000360b0000360b000074
:10008800360b0000360b0000360b0000781100001c
:10009800360b0000360b0000360b0000360b000054
:1000a800360b0000360b0000360b0000360b000044
:1000b800640a0000360b0000360b0000360b000007
:1000c800360b0000360b0000360b0000360b000024
:1000d800360b0000360b0000360b0000360b000014
:1000e800360b0000360b0000360b0000360b000004
:0800f800360b0000360b00007e
:020000040000fa
:10010800360b0000360b0000360b0000360b0000e3
:10011800360b0000360b0000360b0000360b0000d3
:10012800360b0000360b0000360b0000c60a000034
:10013800360b0000360b0000360b0000360b0000b3
:10014800360b0000360b0000360b0000de070000ff
:10015800360b0000360b0000360b0000360b000093
:10016800360b0000360b0000360b0000360b000083
:10017800360b0000360b0000360b0000360b000073
:10018800360b0000360b0000360b0000781100001b
:10019800360b0000360b0000360b0000360b000053
:1001a800360b0000360b0000360b0000360b000043
:1001b800640a0000360b0000360b0000360b000006
:1001c800360b0000360b0000360b0000360b000023
:1001d800360b0000360b0000360b0000360b000013
:1001e800360b0000360b0000360b0000360b000003
:0801f800360b0000360b00007d
:020000040000fa
:100200008fb820000e7f22000e0188000000000041
:10021000000020000000e000020032000001200089
:10022000200288000c000700607a220001002000f4
:1002300011000700000020000000e0000200320072
:100240000000020000000000ba01020000000000ef
:100250000040da000000fe004440a9000000200039
:100260000000e0000300320000002000a001880030
:100270004440a8000000060091018800800078003a
:100280000000eb0015003700e280400032a0b4000f
:100290009101ba00e280400032a0b4009102ba009d
:1002a000e280400032a0b4000002eb00472bde00e9
:1002b000f507b200602ce10004003a000059eb00a1
:1002c0008301e900fdff3e00040037006128e100e2
:1002d000010032000082eb00040007001101ba00a7
:1002e0000200e000e8ff3a00000006003159ba00c1
:1002f0008301e9000c0032002159ba008301e900b2
:10030000080032000400e00003003a00e2804000f0
:1003100032a0b400f5ff370011d9ba008301e9001b
:10032000faff3a008100e800e180400032a0b4000a
:10033000000006006022b800060220000000d00085
:100340008180d2000482d2008582d2000000a00009
:100350000202520083825a0003003100020242006e
:1003600083824a000000a1000603e900f3ff3a007f
:040370000000060083
:020000040000fa
:100374000000fa0004012000145b8800010007005b
:10038400feff37000000fa00145b80000503200024
:10039400850f52003500320005032000850f5200fe
:1003a40006003e00f00f52000b0032000502200050
:1003b400850f52000c0032008c0037000504200029
:1003c400850f52004400320005052000850f5200bd
:1003d4007400320085003700300107000402200059
:1003e400145b8800840037004100200060982000de
:1003f4000f05070001202000609820000c0507006d
:10040400e3020700140037007d0007009c04070086
:10041400344c800041002000040078001d050700d2
:1004240000027800e00f520002003a0004032000aa
:10043400145b8800344c8000110020000400780014
:100444001405070000027800e00f52000200320099
:1004540004052000145b8800155b80000402200062
:10046400848f5200e8ff320063003700c80207009f
:10047400140037006200070081040700344c800038
:100484000120200004007800020507000002780023
:10049400e00f520002003a0004042000145b8800bc
:1004a400344c80001100200004007800f904070097
:1004b40000027800e00f5200020032000405200020
:1004c400145b8800155b800004032000848f5200b5
:1004d400e8ff3200480037000002eb00545b88005c
:1004e4000002eb00645b88000002eb00745b880090
:1004f400940207002600370041000700600407004b
:10050400345b8000e00f52000f003200c0af2000c7
:10051400150d070040b12000130d0700b4588000ea
:10052400f5578000330320000501780021032000e3
:10053400409c2000bc0807000002eb00445b8800dc
:100544000002eb00345b8800344c80000120200062
:1005540004007800cf04070000027800e00f520086
:100564000200320004032000145b8800344c800035
:100574001100200004007800c6040700000278007f
:10058400e00f52000200320004052000145b8800d2
:10059400155b800004042000848f5200d6ff3200d3
:1005a400150037007a0207000b003700140007001b
:1005b40033040700344c800011002000040078004c
:1005c400b404070000027800e00f520002003a0071
:1005d40004022000145b8800155b800004052000e1
:1005e400848f5200f1ff320003003700040520001d
:1005f400145b8800000000000080fa000000060080
:100604000000fa0035048000040420000482620023
:10061400e00f52009f00320086c0a900344c8000d5
:1006240063026200e00f520002003200e982a90076
:1006340001003700e982a800151680000400280094
:1006440004826200e00f5200040032000110200016
:100654006098200076040700030037000110200092
:10066400609820007f040700a5168000040028007d
:1006740004826200e00f520004003a0001402000ae
:10068400609820006a04070003003700014020003e
:100694006098200073040700a51680000410200051
:1006a40004826200e00f52000400320001002100c5
:1006b400609820005e040700030037000100210059
:1006c4006098200067040700345c8000e00f52004b
:1006d400040032000002eb00444c88000002eb00ee
:1006e400345c8800a51680000400220004826200a5
:1006f400e00f520003003200210020008098200007
:100704004b040700a5168000040024000482620044
:10071400e00f5200030032004100200080982000c6
:1007240043040700a5168000042020000482620010
:10073400e00f520003003200810020008098200066
:100744003b040700a51680000440200004826200d8
:10075400e00f5200030032000101200080982000c5
:1007640033040700a51680000400210004826200ff
:10077400e00f5200030032000102200080982000a4
:100784002b040700c09d2000a50c070000a020003a
:10079400a30c070040a22000a10c070080a42000a5
:1007a4009f0c0700144f8000344b880034508000a5
:1007b400444b880054518000544b8800745280008c
:1007c400644b8800545b8000744b8800645b800039
:1007d400844b8800745b8000944b8800a45880008c
:1007e400a44b880080a42000cc0c070000027800f1
:1007f400e00f52000300320001082000809820001e
:100804000b040700445b80000402e800445b88009a
:10081400155b800004042000848f52000c00320019
:10082400c0af2000500c070040b120004e0c070060
:10083400b4588000f5578000330320000501780088
:1008440021032000409c2000f70707001100370017
:10085400455b8000740c2000848f52000d0036002c
:100864000002eb00445b8800c0af20003e0c070090
:1008740040b120003c0c0700b4588000f5578000bc
:10088400330320000501780021032000409c200050
:10089400e50707000080fa00000006000200fa00e5
:1008a4000002eb00344c88000002eb00444c88004a
:1008b4000002eb00544c88000002eb00644c8800fa
:1008c40044202000744c880034002000844c8800ac
:1008d4004100200060982000d5030700012020007b
:1008e40060982000d20307000002eb00f44c88005b
:1008f4000002eb00e44c880084002000044d8800d2
:10090400340580000400a0000410a0000420a0000e
:10091400340588008260a900c404800004c0a100da
:1009240004d0a00004e0a000c4048800a404800053
:1009340004c0a00004d0a10004e0a000a404880026
:1009440004602f0004168800b4072f0034168800b2
:10095400240020006416880004702f009416880078
:10096400341c2000f4168800c4002c0024178800ce
:100974000002eb00040888008460a900d4f9250073
:1009840024088800440d2300e40888000002eb00da
:10099400c408880086c0a900d4f92d000409880081
:1009a4002400200045002000849fbe00060028008b
:1009b400c7002000045a22006502200002682900b2
:1009c4008309200011c0b300409c2000a506070045
:1009d400e487570006a82100670020000468290066
:1009e40085092000030022000041eb0001cab30086
:1009f400809d200009090700bd050700f4ff2700ba
:100a0400841f78008083eb00060028008002eb003e
:100a14000082eb0080c1eb000001eb0001482000e4
:100a2400c09d2000490b07008f87e900f4ff2700d1
:100a3400841f78008083eb00060028008002eb000e
:100a44000082eb0080c1eb000001eb0001482000b4
:100a540000a020003d0b07008f87e900f4ff27006a
:100a6400841f78008083eb00060028008002eb00de
:100a74000082eb0080c1eb000001eb00d166200096
:100a840040a22000310b07008f87e90044062000b4
:100a9400841f78008083eb00060028008002eb00ae
:100aa40084ea2d0080c1eb000271220001c82000fd
:100ab40080a42000250b07008f87e900f4ff27009e
:100ac400841f78008083eb0006002800052c210099
:100ad4000445210080c1eb000001eb00012020004f
:100ae400c0a62000190b07008f87e900f4ff270038
:100af400841f78008083eb0006002800458a2300c9
:100b0400c4c8230080c1eb000001eb002140200099
:100b140000a920000d0b07008f87e900f4ff2700d0
:100b2400841f78008083eb0006002800458a230098
:100b3400c4c8230080c1eb000001eb0001102000b9
:100b440040ab2000010b07008f87e900f4ff27006a
:100b5400841f78008083eb000600280005f027003e
:100b64000410280080c1eb000001eb00010021000b
:100b740080ad2000f50a07008f87e9000003eb0031
:100b840085bb20000465240080c1eb000001eb005c
:100b940081f62200c0af2000390b07000003eb00f0
:100ba40085bb20000465240080c1eb000001eb003c
:100bb40081f6220040b12000310b07000003eb0056
:100bc4008002eb000471220080c1eb000001eb0005
:100bd40051552500c0b22000290b07000003eb008b
:100be4008002eb000082eb0080c1eb000001eb000f
:100bf4000100210040b42000210b070081bb20002c
:100c0400c0b22000ad0b07000100280040b4200052
:100c1400aa0b070014002000845988001400200047
:100c2400445a8800c0b220004f0b070040b4200093
:100c34004d0b0700345a80007559800013032000bf
:100c44000501780001032000409c2000f6060700ff
:100c5400f4cf270004158800e4fd2600141588004d
:100c640074f8200044158800343e2e0034158800a2
:100c740034f52f002415880004002f005415880033
:100c84008560a9008d60a800a1e2a8000002eb0025
:100c9400040f78002600370079020700350480002d
:100ca4000404200004826200e00f520002003200bb
:100cb40086c0a9001e0fe8001e0278004422de0050
:100cc40063026200050020003600200007002000b7
:100cd400860f5200878f5a0015003e000460010001
:100ce4000300370006003700090037000c00370006
:100cf400c4e2a800e982a800e9a2a8000c00370019
:100d0400c4e2a900e982a800e9a2a800080037000b
:100d1400c4e2a900e982a900e9a2a80004003700fe
:100d2400c4e2a900e982a900e9a2a9000000000028
:100d3400041920009e027800848f5200d6ff3600ea
:100d4400c4e2a900c0a62000350b070000a92000ba
:100d5400330b070040ab2000310b070080ad2000af
:100d64002f0b0700d455800085a92300048252006c
:100d74000001eb0001802200040078005d100700f0
:100d84000002780085562c0005024200d4558800e4
:100d94008100200060982000b2020700c0a6200055
:100da4005e0b070000027800e00f520006003200dc
:100db40081002000609820009d020700110020009f
:100dc400009620009a020700c0a62000610b0700cd
:100dd40000027800e00f520006003200810020007b
:100de4006098200092020700210020000096200055
:100df4008f02070000a92000480b070000027800ba
:100e0400e00f5200060032008100200060982000ac
:100e1400870207004100200000962000840207009a
:100e240000a920004b0b070000027800e00f5200dd
:100e34000600320081002000609820007c02070038
:100e440081002000009620007902070040ab2000ba
:100e5400320b070000027800e00f52000600320057
:100e64008100200060982000710207000101200029
:100e7400009620006e02070040ab2000350b0700ef
:100e840000027800e00f52000600320081002000ca
:100e940060982000660207000102200000962000ee
:100ea4006302070080ad20001c0b070000027800dd
:100eb400e00f5200060032008100200060982000fc
:100ec4005b0207000104200000962000580207007e
:100ed40080ad20001f0b070000027800e00f5200d5
:100ee40006003200810020006098200050020700b4
:100ef40001082000009620004d0207009453800052
:100f0400f44b8800b4548000044c8800d45580000d
:100f1400144c8800f4568000244c8800a1e2a900f7
:100f2400840720005415880084442e00241588006a
:100f34008560a9008d60a800a1e2a8000080fa00e5
:100f4400000006000000fa00140020000458880085
:100f540014002000c4588800d602a800d622a90094
:100f640005e1a90074b72000140888000002eb0012
:100f7400040888008460a9008c60a80005e1a8002a
:100f84008880a9009080a8000080fa000000060074
:100f94000000fa000002eb00045888000002eb0095
:100fa400c45888009080a900d602a900d622a800bf
:100fb4000080fa0000000600801f7800849fbe00b5
:100fc400869fbe000000fa008560a900f45a8000e4
:100fd400e00f5200030032000002eb00f45a8800d4
:100fe40033013700151580000408200004826200d4
:100ff400e00f520055003200145b8000f00f5200e5
:1010040029003a00c6568000d75680000514800097
:1010140044148000048242000500200006024200bd
:1010240087824a00c4568800d556880066538000db
:101034007753800015148000541480000482420009
:10104400050020000602420087824a00645388009b
:1010540075538800865480009754800025148000be
:10106400641480000482420005002000060242004d
:1010740087824a008454880095548800a6558000cd
:10108400b755800035148000741480000482420037
:10109400050020000602420087824a00a455880009
:1010a400b55588007d003700e64e8000f74e80007d
:1010b40005148000441480000482420005002000ce
:1010c4000602420087824a00e44e8800f54e8800fa
:1010d400465280005752800015148000541480003a
:1010e40004824200050020000602420087824a0072
:1010f40044528800555288000650800017508000e2
:10110400251480006414800004824200050020003d
:101114000602420087824a00045088001550880065
:1011240026518000375180003514800074148000eb
:1011340004824200050020000602420087824a0021
:10114400245188003551880054003700145b800016
:10115400f00f520029003a00c6568000d75680008e
:1011640085148000c414800004824200050020001d
:101174000602420087824a00c4568800d556880079
:10118400665380007753800095148000d414800047
:1011940004824200050020000602420087824a00c1
:1011a40064538800755388008654800097548000e7
:1011b400a5148000e414800004824200050020008d
:1011c4000602420087824a008454880095548800ad
:1011d400a6558000b7558000b5148000f414800033
:1011e40004824200050020000602420087824a0071
:1011f400a4558800b555880028003700e64e8000c5
:10120400f74e800085148000c414800004824200dc
:10121400050020000602420087824a00e44e88004e
:10122400f54e880046528000575280009514800085
:10123400d41480000482420005002000060242000b
:1012440087824a0044528800555288000650800024
:1012540017508000a5148000e4148000048242002a
:10126400050020000602420087824a0004508800dc
:10127400155088002651800037518000b514800035
:10128400f41480000482420005002000060242009b
:1012940087824a002451880035518800e45a80002e
:1012a4000482e800e45a8800e55a8000f40720002c
:1012b400848f52007e003600145b8000f00f5200d1
:1012c4003d003a00c4568000d55680004d2bdd0009
:1012d4004322de0004027300c32ade00c4568800e1
:1012e400d5568800c4568000d55680000402780084
:1012f400e45688006022b800c4568800d556880099
:1013040064538000755380004d2bdd004322de00c2
:1013140004027300c32ade006453880075538800f6
:10132400645380007553800004027800845388005d
:101334006022b80064538800755388008454800088
:10134400955480004d2bdd004322de00040273001f
:10135400c32ade0084548800955488008454800095
:101364009554800004027800a45488006022b800d8
:101374008454880095548800a4558000b555800095
:101384004d2bdd004322de0004027300c32ade007d
:10139400a4558800b5558800a4558000b555800033
:1013a40004027800c45588006022b800a45588005f
:1013b400b55588003c003700e44e8000f54e8000af
:1013c4004d2bdd004322de0004027300c32ade003d
:1013d400e44e8800f54e8800e44e8000f54e80000f
:1013e40004027800044f88006022b800e44e8800ac
:1013f400f54e880044528000555280004d2bdd008c
:101404004322de0004027300c32ade004452880033
:1014140055528800445280005552800004027800de
:10142400645288006022b8004452880055528800f3
:1014340004508000155080004d2bdd004322de0057
:1014440004027300c32ade0004508800155088008b
:101454000450800015508000040278002450880055
:101464006022b80004508800155088002451800080
:10147400355180004d2bdd004322de000402730051
:10148400c32ade002451880035518800245180008d
:101494003551800004027800445188006022b8006d
:1014a40024518800355188000002eb00e45a88007a
:1014b4000080fa004f03be004f02be004f007800c8
:1014c40000400600841f78000000fa00d602a9003c
:1014d40005e1a9000002eb000408880014042000c0
:1014e4001408880005e1a8008460a900345b80002a
:1014f400e00f520003003200645b80000402e80045
:10150400645b88006404800068026200e00f52009b
:1015140003003200745b80000402e800745b8800fe
:101524008c60a900000000002404800068026200ae
:10153400e00f5200fcff3200d602a80005e1a9002a
:101544000002eb00040888008460a9008c60a800f5
:1015540074b720001408880005e1a80014002000d6
:10156400345b880014002000f45a8800545b800027
:101574000402e800545b88008880a9000080fa0017
:101584004f027800004006003600f800809fbe003d
:10159400829fbe00849fbe00869fbe000000fa00aa
:1015a4008460a9008c60a90005e1a90015168000db
:1015b4000400280004826200e00f520023003a0075
:1015c4002003200001002000750e0700151680007e
:1015d4000400280004826200e00f52001b003a005d
:1015e40020032000010020006d0e07001516800066
:1015f4000400280004826200e00f520013003a0045
:101604002003200001002000650e0700151680004d
:101614000400280004826200e00f52000b003a002c
:1016240020032000010020005d0e07001516800035
:101634000400280004826200e00f520003003a0014
:10164400045b80000402e800045b88000080fa0068
:101654004f03be004f02be004f01be004f00be004c
:101664003600f900004006000000fa000000000007
:10167400000000000000fe000080fa0000400600a8
:101684000000fa0030000700c7010700be00070091
:101694001c000700044e8000d44a8800d54a80000c
:1016a400d44d800004824200d44a8800d54a800088
:1016b400e44d800004824200d44a8800d54a800068
:1016c400f44d800004824200d44a8800d54a800048
:1016d400b44d800004824200d44a8800d54a800078
:1016e400a44d800004824200d44a8800d54a800078
:1016f400944d800004824200d44a88000080fa009d
:10170400000006000000fa00250480000408200000
:1017140004826200e00f52000900320084e0a90054
:10172400044e80000402e800044e8800044e800049
:10173400c45b880011002000809820003c00070052
:101744000080fa00000006000a00fa002d003700ad
:101754008e00780000802000e60c07009e027800ce
:10176400840720008482620004022000848f5200d7
:1017740004003200b44d80000402e800b44d880037
:10178400200037009e027800044a2100848f520012
:1017940003003a000e007800a60007001900370085
:1017a4009e027800045a2100848f520003003a00fc
:1017b4000e0078003f000700120037009e027800f8
:1017c40004622100848f520003003a000e00780066
:1017d400e50007000b0037009e027800c4c7210013
:1017e4008482620004022100848f520005003a00c2
:1017f4000e0078002f000700944d80000402e800da
:10180400944d8800008020006c0c070000027800d2
:10181400e00f5200ceff3a0074458000d44d88009a
:1018240034408000e44d88000080fa000000060087
:101834000400fa00000f7800110798001e027800d7
:10184400940278001e0290000403780005037300dc
:10185400860278001e027800050a78000080fa00eb
:10186400000006000400fa00000f78001107980039
:101874001e027800940278001e0290000482ea009e
:10188400848262001e027800050a78000080fa0053
:10189400000006000400fa00000f78001107980009
:1018a4001e0290001e026200040078000080fa000c
:1018b400000006000400fa00100798001e029000c1
:1018c400c4029000050f780004002f009e026200fd
:1018d40004002400848f520004003200a44d8000d0
:1018e4000402e800a44d880025003700f4ff20001e
:1018f4009e026200f40f2000848f520004003e0018
:10190400a44d80000402e800a44d88001c003700a8
:10191400f4ff20009e026200f42f2000848f520006
:1019240003003e001e009000b00c070014003700b6
:10193400f4ff20009e026200f43f2000848f5200d6
:1019440004003e00a44d80000402e800a44d880079
:101954000b003700f4ff20009e026200f44f2000c9
:10196400848f520003003e001e009000b300070065
:1019740003003700a44d80000402e800a44d880051
:101984000080fa00000006000200fa00344c8000d7
:10199400630f62000a0007001e027800e00f520085
:1019a40005003a00344c800063026200e00f5200ec
:1019b40001003200a90007000080fa0000000600c0
:1019c4000000fa00454c8000844c800004826200d0
:1019d400e00f520004003200344c80000400a000e8
:1019e400344c880004003700354c8000e4ff2f009d
:1019f40004826200344c8800354c8000744c8000b2
:101a040004826200e00f520004003200344c800073
:101a14000410a000344c880004003700354c8000ca
:101a2400d4ff2f0004826200344c88000080fa0046
:101a3400000006000400fa00100798001e0290003f
:101a4400c4029000050f780004002f009e0262007b
:101a540004002400848f520004003200a44d80004e
:101a64000402e800a44d880013003700f4ff2000ae
:101a74009e026200f4072000848f520003003e009f
:101a84001e0090000e0007000b003700f4ff20003a
:101a94009e026200f40f2000848f520003003e0077
:101aa4001e0090006e0c070003003700a44d800058
:101ab4000402e800a44d88000080fa00000006003b
:101ac4000400fa00100798001e029000c40290005f
:101ad400050f7800f4ff20001e0f62001e0278003c
:101ae400050020005600200007002000860f520049
:101af400878f5a0014003e0004600100050037007f
:101b040006003700100037001400370005003700c6
:101b140009003700790c0700110037000000fe00af
:101b24000f003700354c8000f4fe2f000482620061
:101b3400344c88000a003700344c80000440a00074
:101b4400344c880006003700a44d80000402e800ed
:101b5400a44d8800000000000100370000000000d0
:101b64000080fa00000006000400fa001007980044
:101b74001e029000c4029000050f780004002f009c
:101b84009e02620004002400848f5200040032008c
:101b9400a44d80000402e800a44d8800250037000d
:101ba400f4ff20009e026200f40f2000848f520094
:101bb40004003e00a44d80000402e800a44d880007
:101bc4001c003700f4ff20009e026200f42f200066
:101bd400848f520003003e001e0090003b0c07005f
:101be40014003700f4ff20009e026200f43f20003e
:101bf400848f520004003e00a44d80000402e800db
:101c0400a44d88000b003700f4ff20009e02620000
:101c1400f44f2000848f520003003e001e00900009
:101c24000a00070003003700a44d80000402e80006
:101c3400a44d88000080fa00000006000200fa00ab
:101c4400000f78000080fa00000006000200fa008d
:101c5400000f78000080fa00000006000a00fa0075
:101c640044822a00040f780055ff0700344c80009a
:101c740014079800444c800024079800544c8000ba
:101c840034079800644c800044079800e135200034
:101c94000e007800c60b0700344d80000402e800f3
:101ca400344d88000080fa00000006000200fa00ab
:101cb400000f78000060fe000002eb00540888006a
:101cc4000080fa00000006001400fa005007980093
:101cd4006107980072079800030f9800140f98008a
:101ce4005e0290006f02620054079800de029000ca
:101cf4000404200005027200540798005e0290005c
:101d04000402420054079800de02900004602000a0
:101d140005027200540798005e0290004222dd0022
:101d2400540798005e029000040f78009e02780029
:101d340004f02f0004826200040f78001e02780071
:101d44004322dd00040f78009e0278005e039000b9
:101d5400f40f20000402630005027200040f7800ef
:101d64001e0a9000140798000e0a90002407980099
:101d74007e029000340798006e0290004407980099
:101d84008e007800808a2000420b0700741b8000bc
:101d940068026200e00f520001003a008760a80068
:101da4000080fa00000006000000fa00250480000c
:101db4000404200004826200e00f52009f003200fd
:101dc40084c0a900144e80000402e800144e880068
:101dd400144e80006f026200144e88009fff0700bb
:101de400144e800005002000f600200007002000ab
:101df400860f5200878f5a0090003e000460010055
:101e04000f00370018003700200037002900370082
:101e1400320037003b003700440037004d003700e4
:101e2400560037005f003700680037007100370044
:101e34007a0037007b0037007c0037007d003700d4
:101e4400e44a8000d74a8000c64a8000b54a800030
:101e54008701780006017800850078000000eb0017
:101e640099ff070075003700064b8000f54a800093
:101e74000002eb008001eb00060178008500780089
:101e84001000200090ff07006c003700644b8000b6
:101e9400574b8000464b8000354b8000870178000b
:101ea40006017800850078002000200086ff0700e6
:101eb40062003700a44b8000974b8000864b800063
:101ec400754b800087017800060178008500780052
:101ed400300020007cff070058003700e44b8000ee
:101ee400d74b8000c64b8000b54b8000870178003b
:101ef40006017800850078004000200072ff07008a
:101f04004e003700244c8000174c8000064c8000a3
:101f1400f54b800087017800060178008500780081
:101f24005000200068ff070044003700444d800043
:101f3400374d8000264d8000154d800087017800c4
:101f44000601780085007800800020005eff07000d
:101f54003a003700844d8000774d8000664d800044
:101f6400554d8000870178000601780085007800cf
:101f74009000200054ff070030003700c44d80005b
:101f8400b74d8000a64d8000954d800087017800f4
:101f94000601780085007800a00020004aff0700b1
:101fa40026003700044e8000f74d8000e64d800087
:101fb400d54d8000870178000601780085007800ff
:101fc400b000200040ff07001c003700c44c800014
:101fd400b74c8000a64c8000954c800087017800a7
:101fe40006017800850078006000200036ff0700b5
:101ff40012003700044d8000f74c8000e64c80004e
:10200400d54c8000870178000601780085007800af
:10201400700020002cff0700080037003c0b07006d
:1020240006003700460b070004003700500b07007a
:1020340002003700510b0700000000000080fa0086
:10204400000006000e00fa0050079800610798008f
:102054000002eb00040f78006e0290002407980041
:102064005e02900014079800e13420000e0078000e
:10207400cf0a0700444d80000402e800444d880064
:102084000080fa00000006001000fa0050079800d3
:10209400610798007207980044022a00040f780030
:1020a4007e029000140798005e02900024079800b6
:1020b4006e029000e10f520003003a0004102e005b
:1020c400440798000200370014102e0044079800bb
:1020d400e13420000e007800b50a0700444d80006a
:1020e4000402e800444d88000080fa000000060065
:1020f4000000fa00043a800061026200e00f52001e
:1021040004003a00043a800062026200e00f5200c8
:10211400050032000002eb00b45b88000002eb0013
:10212400c45b880003003700b45b80000402e8004d
:10213400b45b88004007a9004027a90040c7a90054
:1021440040e7a90041e7a9004087a90041c7a900c9
:10215400b45b8000f44a8800c45b8000044e8800ad
:102164008f60a9008760a9000405800004c0a10055
:1021740004d0a10004e0a000040588000002eb00e4
:10218400b41c88009803a8009823a8009843a800ca
:1021940098a3a800008020008f0a0700808a2000ee
:1021a4008d0a070004402000841c88000000000001
:1021b400851c8000040e2000848262000408200034
:1021c400848f5200faff3a0014002000941c880007
:1021d40014392000a41c880014802100841988006c
:1021e400d4872100c41988000002eb000418880079
:1021f4000480200044188800040221008418880008
:10220400c47f2100c4188800c47f210004198800f9
:10221400c47f21004419880014002000741b880026
:1022240024002000f41a880034002000741a880066
:10223400040c2000241b8800040c2000a41a88002d
:10224400040c2000241a88000002eb00741c88008f
:102254000002eb00f41b88000002eb00841c8800e1
:1022640000000000851c8000040e2000048262002f
:10227400e00f5200fbff3a008f60a80054fb2500da
:102284008408880024f42000640888000002eb001d
:102294003408880084c0a9008cc0a90011e1a800fa
:1022a400d4fb250094088800546222007408880036
:1022b40084e0a9008ce0a90013e1a8000002eb006f
:1022c400944c8800c4e52800a44c88000002eb006c
:1022d400b44c880014042000c44c88004406200038
:1022e400d44c88000080fa00000006003600f80094
:1022f400809fbe00829fbe00849fbe00869fbe005a
:102304000a00fa008760a900844d80000402e800f6
:10231400844d8800751c800004082000048262003b
:10232400e00f520018003200741c80006102620049
:10233400e00f52000b003a00544d80000402e80004
:10234400544d8800e13820000e007800bd090700d4
:102354003e029000844a88004e029000944a88000d
:1023640008003700644d80000402e800644d8800d2
:10237400e13820000e007800b20907000e00780052
:102384004afe07009603a900f51b800004082000fc
:1023940004826200e00f520007003200744d800096
:1023a4000402e800744d8800e1372000008020001a
:1023b400870907009623a900741b80006802620045
:1023c400e00f52000c003a00808a20007b090700cd
:1023d40000027800e00f520007003200e1362000ce
:1023e400808a2000dc0907009643a900c44d8000c0
:1023f4000402e800c44d8800b51c800004022000db
:1024040004826200e00f520005003200244d800077
:102414000402e800244d880096a3a90008003700b0
:10242400451780000400220004826200e00f52007d
:1024340002003200e9a2a90001003700e9a2a800c5
:10244400d41c8000144d88000080fa004f03be00a5
:102454004f02be004f01be004f00be003600f9001f
:10246400004006001000fa00000f78002147980091
:1024740022079800330798004407980055079800ee
:1024840066079800770798001e027800ae42900015
:10249400054a78001e0278006e039000fe03900047
:1024a40016029800270298001e0278003ebb97008f
:1024b400cebb970036029800470298001e037800ae
:1024c40004002000e50020005403980065039800f0
:1024d4001e03780004002000e50020007403980027
:1024e400050b98001e027800e4029000540290004c
:1024f4000400be00240a07001e027800c4029000f3
:10250400340290000400be00300a07001e02780066
:10251400a4029000140290000400be001a0a0700ee
:102524001e02780024529000e04f52000600320050
:102534001e027800840a9000740290000400be0019
:10254400110a0700050037001e027800840a900073
:10255400740290000400be001c0a07001e027800ea
:10256400e4029000540290000400be003a0a0700fe
:102574001e027800c4029000340290000400be00e1
:10258400350a07001e027800a4029000140290008d
:102594000400be00300a07001e027800840a90007e
:1025a400740290000400be002b0a07001e0278008b
:1025b400144078002e039000be0390004e02900059
:1025c400de02900003002a000001eb00f15320001a
:1025d400020607000080fa00000006000200fa006c
:1025e400000f78001e027800e4029000540290006c
:1025f4000400be00f5090700000000000000000010
:1026040000000000000000001e027800e4029000b8
:10261400540290000400be00db0907000080fa00a9
:10262400000006001000fa005007980061079800a7
:10263400720798000042eb00044f78005e0290009d
:10264400a4029000140290000400be00df090700f9
:102654005e02900014427800844078006e0090007e
:10266400a90607000002be00340798004507980039
:102674003e039000ce0390000400200015112100b9
:10268400840f5300858f5b0002003a0014c0b3002e
:10269400044f78001e427800e04f520010003a00c8
:1026a4005e02900014427800844078007e0090001e
:1026b400950607000002be003407980045079800fd
:1026c4003e039000ce039000040020001511210069
:1026d400840f5300858f5b0001003a001e14a00094
:1026e4005e029000a4029000140290000400be0058
:1026f400a509070000000000000000000000000021
:10270400000000005e029000a402900014029000f9
:102714000400be00ad0907001e427800e04f5200dd
:1027240012003a005e02900014427800844078005f
:10273400000f2000740607000002be003407980052
:10274400450798003e029000140798003e0390004d
:10275400ce0390000400200015112100840f5300c3
:10276400858f5b0001003a001e24a0001e42780001
:10277400e04f520012003a005e02900014427800ca
:10278400844078000000eb005f0607000002be00f2
:1027940034079800450798003e02900024079800eb
:1027a4003e039000ce039000040020001511210088
:1027b400840f5300858f5b0001003a001e34a00093
:1027c4005e029000a4029000140290000400be0077
:1027d4006d0907009e0290006e029000848f5200e3
:1027e400010032001e44a000ae0290007e02900060
:1027f400848f52000200320004c2b3001e4f7200e4
:102804001e427800e04f520003003200f45b800067
:102814000402e800f45b88001e427800044078005b
:102824000080fa00000006001400fa005007980027
:102834006107980072079800030f9800140f98001e
:102844000042eb00044f78005e029000a402900066
:10285400140290000400be005c0907005e029000b0
:1028640014427800844078006e0090002606070029
:102874000002be0034079800450798003e0390000c
:10288400ce0390000400200015112100840f530092
:10289400858f5b0002003a0014c0b300044f780037
:1028a4001e427800e04f520010003a005e02900091
:1028b40014427800844078007e00900012060700dd
:1028c4000002be0034079800450798003e039000bc
:1028d400ce0390000400200015112100840f530042
:1028e400858f5b0001003a001e14a0005e02900078
:1028f400a4029000140290000400be002209070004
:1029040000000000000000000000000000000000c3
:102914005e029000a4029000140290000400be0025
:102924002a0907005e02900014427800844078006f
:102934000e089000f40507000002be00340798005a
:10294400450798003e029000140798003e0390004b
:10295400ce0390000400200015112100840f5300c1
:10296400858f5b0002003a0014c0b300044f780066
:102974001e427800e04f520012003a005e029000be
:1029840014427800844078001e089000de05070099
:102994000002be0034079800450798003e029000ec
:1029a400240798003e039000ce039000040020000a
:1029b40015112100840f5300858f5b0001003a003c
:1029c4001e14a0009e0290006e029000848f52009c
:1029d400010032001e44a000ae0290007e0290006e
:1029e400848f52000200320004c2b3001e4f7200f2
:1029f4005e029000a4029000140290000400be0045
:102a0400e1080700000000000000000000000000d2
:102a1400000000005e029000a402900014029000e6
:102a24000400be00e90807001e427800e04f52008f
:102a340012003a005e02900014427800844078004c
:102a4400000f2000b00507000002be003407980004
:102a5400450798003e029000140798003e0390003a
:102a6400ce0390000400200015112100840f5300b0
:102a7400858f5b0001003a001e24a0001e427800ee
:102a8400e04f520012003a005e02900014427800b7
:102a9400844078000000eb009b0507000002be00a4
:102aa40034079800450798003e02900024079800d8
:102ab4003e039000ce039000040020001511210075
:102ac400840f5300858f5b0001003a001e34a00080
:102ad4005e029000a4029000140290000400be0064
:102ae400a90807009e0290000e0a9000848f5200ed
:102af400010032001e44a000ae0290001e0a9000a5
:102b0400848f52000200320004c2b3001e4f7200d0
:102b14001e427800e04f520003003200f45b800054
:102b24000402e800f45b88001e4278000440780048
:102b34000080fa00000006001000fa006007980008
:102b4400710798000042eb00044f78000042eb004c
:102b540064479800570037006e029000a40290006a
:102b6400140290000400be00980807006e02900052
:102b7400144278006e43900005c3b300854273008d
:102b84008582fb0084407800050078005e0507001c
:102b94000002be0044079800550798004e029000ba
:102ba400140798004e039000de03900004002000f8
:102bb40015112100840f5300858f5b0002003a0039
:102bc40014c0b300044f78001e427800e04f520056
:102bd40018003a006e02900014427800ee42900011
:102be4008582fb00858242007e03900085024300bb
:102bf40095027800844078000500780042050700bb
:102c04000002be0044079800550798004e02900049
:102c1400240798004e039000de0390000400200077
:102c240015112100840f5300858f5b0001003a00c9
:102c34001e14a0006e429000e04f520015003200b6
:102c44006e4290000482fb008402e9000403200029
:102c540005027200840278001e029000848f5200e4
:102c6400010032001e24a0006e4290000482fb008a
:102c74000402e90004024200fe02900004824200c1
:102c8400940278002e029000848f520001003200da
:102c94001e34a0006e029000a40290001402900062
:102ca4000400be00380807006e4290000442e800a9
:102cb400644798001e427800e04f520003003a0037
:102cc4006e429000e74f5200a3ff36006e02900060
:102cd400a4029000140290000400be003b08070008
:102ce4001e427800e04f520012003a006e0290003b
:102cf4001442780084407800000f20000205070089
:102d04000002be0044079800550798004e02900048
:102d1400140798004e039000de0390000400200086
:102d240015112100840f5300858f5b0001003a00c8
:102d34001e04a0001e427800e04f520012003a0028
:102d44006e02900014427800844078000000eb008a
:102d5400ed0407000002be004407980055079800e0
:102d64004e029000240798004e039000de0390006a
:102d74000400200015112100840f5300858f5b008f
:102d840001003a001e14a0006e029000a4029000fc
:102d9400140290000400be00fb0707006e4290007e
:102da4000482fb008402e90004032000050272008f
:102db400840278001e029000848f520001003200c9
:102dc4001e44a0006e4290000482fb000402e9004d
:102dd40004024200fe029000048242009402780041
:102de4002e029000848f52000200320004c2b3000d
:102df4001e4f72001e427800e04f52000300320062
:102e0400045c80000402e800045c88001e42780030
:102e1400044078000080fa00000006000e00fa006a
:102e2400000f780021479800324798002307980044
:102e340034079800450798005607980067079800dc
:102e44001e027800ae429000054a78001e02780007
:102e5400be429000154298001e027800ae02900017
:102e6400150298001e027800144090006033b800e8
:102e74003e029000ce0290005e019000ee019000b0
:102e840001022b00510507000080fa000000060033
:102e94000e00fa0040079800510798006207980056
:102ea4004e029000140290008402d1005e02900051
:102eb400848f5200530036006e0290004822de00d8
:102ec400044f78006e029000144798005e02900050
:102ed40004024200140798001e0290004822de00fb
:102ee400444798001e029000544798004e029000f8
:102ef4001442900004407800720507000002780034
:102f0400340798004e029000144290000440780068
:102f14008d05070000027800be02900005027200d1
:102f2400340798004e029000944290004e029000a4
:102f3400144278008540780004407800c4050700f6
:102f440000027800be029000050272003407980067
:102f54004e02900014429000844078004e4090004d
:102f6400bb05070000027800be0290000502720053
:102f7400340798004e029000144290008440780078
:102f84005e409000b205070000027800be02900087
:102f940005027200340798004e029000144290001b
:102fa400844078001e409000a905070000027800c4
:102fb400be02900005027200340798004e02900091
:102fc40014429000844078001e407800a005070059
:102fd40000027800be0290000502720034079800d7
:102fe4004e02900014429000044078000806070046
:102ff40000027800be0290000502720034079800b7
:10300400020037000082eb00340798000080fa00c9
:10301400000006000c00fa004007980051079800d1
:103024004e029000140290008402d1005e029000cf
:10303400848f52006c0036005e029000040242004d
:10304400140798001e0290004822de0044479800ae
:103054001e029000544798004e02900014429000c3
:103064000440780017050700000278003407980030
:103074004e0290001442900004407800320507008c
:1030840000027800be029000050272003407980026
:103094004e029000944290004e0290001442780038
:1030a4008540780004407800690507000002780034
:1030b400be02900005027200340798004e02900090
:1030c40014429000844078004e4090006005070050
:1030d40000027800be0290000502720034079800d6
:1030e4004e02900014429000844078005e409000ac
:1030f4005705070000027800be0290000502720026
:10310400340798004e029000144290000440780066
:103114002e05070000027800be029000050272002e
:10312400340798004e029000944290004e029000a2
:10313400144278000404a00085407800044078001c
:103144004305070000027800be02900005027200e9
:10315400340798004e029000144290000440780016
:103164007205070000027800044f78004e029000b8
:103174001442900004407800c6050700000278005d
:10318400be02900005027200340798004e029000bf
:10319400144290000440780064050700000278009f
:1031a400144798004e0290001442900004407800a6
:1031b400da05070000027800be02900005027200e2
:1031c400340798004e0290001442900004407800a6
:1031d4008f05070000027800be029000050272000d
:1031e40034079800060037000082eb00340798008b
:1031f4000042eb00044f78000042eb0014479800b3
:103204001e4290000482fb00140798001e029000e6
:103214004822dd00140798009e4278000582fb00d6
:103224009e02900004824200140798001e0290003f
:10323400040078000080fa00000006001200fa0082
:10324400500798006107980072079800030f9800d0
:103254007e029000e00f5200640032007e02900073
:10326400f00f520002003600040120007407980099
:103274005e02900014029000c522de006e029000ef
:10328400848f5200570036006e0290004522dd0004
:10329400240798002e0290004822de00644798001c
:1032a4002e029000744798005e0290001442900031
:1032b400044078008304070000027800040f7800bb
:1032c4005e02900014429000044078009e040700bf
:1032d400000278001e0f72005e029000944290007b
:1032e4005e02900014427800854078000440780023
:1032f400d7040700000278001e0f72005e029000df
:1033040014429000844078006e409000d00407007e
:10331400000278001e0f72005e02900014429000ba
:10332400844078007e409000c904070000027800c1
:103334001e0f72000002eb00140798001e003700f5
:103344001e029000040242008e0a90000482420091
:10335400140278004822de00044f98001e029000f8
:10336400040242008e0a9000048242001402780093
:10337400144f98005e02900014429000844078003c
:103384001e489000b2040700000278001e0f72006d
:103394005e02900014429000844078000e48900031
:1033a400ab040700000278001e0f72001e0290009a
:1033b4000402e800140798009e0290007e02900028
:1033c400848f5200deff39005e02900014429000a8
:1033d400044078000e050700000278001e0f7200fa
:1033e400020037000082eb00040f78000080fa002e
:1033f400000006001200fa005007980061079800c8
:1034040072079800030f98007e029000e00f5200ac
:10341400cc0032007e029000f00f52000200360011
:1034240004012000740798005e02900014029000ca
:10343400c522de006e029000848f5200bb0036006d
:103444006e0290004522dd00240798002e029000b1
:103454004822de00644798002e02900074479800ca
:103464005e029000144290000440780015040700a6
:1034740000027800040f78005e029000144290006d
:103484000440780030040700000278001e0f720028
:103494005e029000944290005e0290001442780014
:1034a4008540780004407800690407000002780031
:1034b4001e0f72005e029000144290008440780057
:1034c4006e40900062040700000278001e0f720034
:1034d4005e02900014429000844078007e40900088
:1034e4005b040700000278001e0f72005e02900069
:1034f400144290000440780034040700000278006d
:103504001e0f72005e029000944290005e029000d2
:10351400144278000404a000854078000440780038
:103524004b040700000278001e0f72000002eb003b
:10353400140798003a0037005e029000144290008d
:10354400044078007904070000027800044f9800d2
:103554005e0290001442900004407800cd040700fd
:10356400000278001e0f72005e0290001442900068
:10357400044078006d04070000027800144f98009e
:103584005e0290001442900004407800c1040700d9
:10359400000278001e0f72001e0290000402420016
:1035a4008e0a9000848242001e4a90000482fb002e
:1035b400840a78001e029000040242008e0a9000e1
:1035c400848242001e029000040242000e0b90000e
:1035d40004024300140278004822dd00840a7800c3
:1035e4001e029000040242008e0a9000848242006f
:1035f4001e029000040242000e0b900004024300dd
:10360400140378000e4a90000482fb000402430075
:10361400840a78001e0290000402e800140798004f
:103624007e0290008402e9001e029000848f520002
:10363400c1ff3e005e0290001442900004407800f6
:103644003a04070000027800044f98005e029000dc
:1036540014429000044078008e04070000027800b1
:103664001e0f72005e029000144290000440780025
:103674002e04070000027800144f98005e029000a8
:103684001442900004407800a4040700000278006b
:103694001e0f72001e029000040242008e0a900067
:1036a400848242001e4a90000482fb00840a78004f
:1036b4001e029000040242008e0a9000848242009e
:1036c4001e029000040242000e0b9000040243000c
:1036d400140278004822dd00840a78001e0290005b
:1036e400040242008e0a9000848242001e0290006e
:1036f400040242000e0b90000402430014037800fd
:103704000e4a90000482fb0004024300840a7800fd
:103714005e02900014429000044078003c040700cc
:10372400000278001e0f7200060037000082eb00d2
:10373400040f78000042eb00044f98000042eb00b5
:10374400144f98000080fa00000006001200fa00ee
:10375400100798002107980032079800034f98003b
:10376400540798006507980076079800070f98009b
:103774000002eb00040f78001e0390006022b800e2
:10378400048bbe001e0290008002eb00250298000c
:103794001e0290008002eb00350298001e02900089
:1037a400ae029000450298001e029000be029000f6
:1037b400550298000e4a9000e14f42000d003a0075
:1037c4001e02900005002800650298001e02900069
:1037d4008002eb00750298001e029000050028008c
:1037e400050a98001e0290008002eb00150a98005a
:1037f4000c0037001e0290000500280065029800a6
:103804001e0290008002eb00750298001e029000d8
:1038140005002800050a98001e0290008002eb00b3
:10382400150a98001e029000de029000250a9800f6
:103834001e029000ee029000350a98001e029000cd
:10384400fe029000550a98001e0290008e0a900015
:10385400650a98001e0290008002eb00750a980029
:103864001e0290008002eb00051298001e029000d8
:10387400ceba9700151298000080fa0000000600e6
:103884001000fa00100798002107980032079800ea
:10389400034f98005407980065079800760798002e
:1038a4000002eb00040f78001e0290008002eb007f
:1038b400250298001e029000de0290003502980056
:1038c4001e029000ee029000450298001e02900035
:1038d400fe029000550298001e029000ae02900075
:1038e400650298001e029000be02900075029800c6
:1038f4000e4a9000e14f42000d003a001e02900073
:1039040005002800050a98001e0290008002eb00c2
:10391400150a98001e02900005002800250a980048
:103924001e0290008002eb00350a98000c0037005c
:103934001e02900005002800050a98001e0290004f
:103944008002eb00150a98001e0290000500280072
:10395400250a98001e0290008002eb00350a9800a8
:103964000080fa00000006000400fa001007980026
:103974001e029000740390001e029000e402900066
:103984001e02900014027800060178008500780079
:10399400040078005705070000027800040f78003f
:1039a4001e029000940a90001e029000040a9000e7
:1039b40005017800840078001e00780038050700af
:1039c40000027800040f78001e029000b40a9000f0
:1039d4001e029000240a90000501780084007800fb
:1039e4001e0078002e05070000027800040f7800fe
:1039f4001e02900024029000e00f520003003a00df
:103a04001e029000d4029000050f78001e02900060
:103a14009e027800150298000080fa00000006005b
:103a24000400fa00100798001e029000140b900086
:103a34001e029000840a90001e029000240290004e
:103a4400060178008500780004007800140507005a
:103a540000027800040f78001e029000f402900027
:103a64001e02900064029000050178008400780032
:103a74001e0078000a05070000027800040f780091
:103a84001e029000d40290001e0290004402900096
:103a940005017800840078001e00780015050700f1
:103aa40000027800040f78001e0290009e02780045
:103ab400350298000080fa00000006000400fa00b5
:103ac400000f7800110798001e027800b4029000dd
:103ad4001e029000848f5200030031001e02780001
:103ae400b4029000150798001e027800c4029000ea
:103af4001e029000848f5200030036001e027800dc
:103b0400c4029000150798001e0278009e029000df
:103b1400050a78000080fa00000006000200fa009e
:103b2400000f78001e027800b40290001e02780094
:103b3400240a9000848f52000200360014002000f2
:103b4400010037000002eb00040078000080fa0056
:103b5400000006000200fa00000f78001e02780040
:103b6400b40290001e027800340a9000848f520040
:103b74000200310014002000010037000002eb00b5
:103b8400040078000080fa00000006000400fa0037
:103b9400100798001e029000d40a90001e029000a4
:103ba400440a90000001eb008500780004007800ce
:103bb400bb04070000027800040f78001e02900086
:103bc400640a90009e0f5200030036001e0290000b
:103bd400e40a9000050f780004f02f009e025200c2
:103be4001e029000440a9000848f520004003600a4
:103bf4001e029000440a90001e0f4200020037008b
:103c040004f02f00040f78001e029000340290008c
:103c14009e0f5200060036001e029000740a9000a7
:103c24008402e8001e029000750a9800090037001b
:103c34001e029000740a9000e00f5200050032004a
:103c44001e029000740a90008402e9001e02900093
:103c5400750a98001e029000f40a90001e0290005b
:103c640014129000848f52000f0039001e0290003d
:103c7400f40a90001e029000141290000402420004
:103c8400848f5200060039001e0290001412900026
:103c940004024200840278001e029000750a980013
:103ca40014002000010037000002eb00040078003b
:103cb4000080fa00000006000400fa0010079800d3
:103cc4001e029000d40a90001e029000440a900044
:103cd4000001eb0085007800040078007004070000
:103ce40000027800040f78001e029000640a90001d
:103cf4009e0f5200030036001e029000e40a90005a
:103d0400050f78001e029000440a90009e0f520096
:103d1400040036001e029000440a90001e0f520058
:103d2400020037000002eb00040f78001e0290002e
:103d3400340290009e0f5200060031001e029000d3
:103d4400041290008402e8001e02900005129800fc
:103d5400090037001e02900004129000e00f520088
:103d6400050032001e029000041290008402e90053
:103d74001e029000051298001e029000841290000a
:103d84001e02900014129000848f52000f0039001c
:103d94001e029000841290001e02900014129000e3
:103da40004024200848f5200060039001e02900073
:103db4001412900004024200840278001e02900053
:103dc4000512980014002000010037000002eb00e7
:103dd400040078000080fa00000006001400fa00d5
:103de400404798003107980042079800530798000d
:103df4006407980075079800060f9800170f98003d
:103e04003e029000f401b300340798000e0b9000ba
:103e14009e0b9000463add00ca32de008502720035
:103e24004632dd006e019000fe0190000400be00e9
:103e34003ff107000002be00048fbe0004202000f2
:103e4400050020001e03be00840f5300858f5b0015
:103e540003003e0014002000845b88003200370019
:103e640034802000050020001e03be00840f530090
:103e7400858f5b000d003e0044002000845b8800b9
:103e84001e02be004e2bdd004222de00040273003f
:103e9400c22ade00048fbe00be029000e4ff2f00a1
:103ea40004826200340798001f003700f4002200e7
:103eb400050020001e03be00840f5300858f5b00a5
:103ec4000d003e0004012000845b88001e02be0039
:103ed4004c2bdd004422de0004027300c42ade0001
:103ee400048fbe00be029000d4ff2f000482620043
:103ef400340798000c00370004042000845b880019
:103f04001e02be004a2bdd004622de0004027300be
:103f1400c62ade00048fbe00be029000c4ff2f003c
:103f24000482620034079800041c2000050020006d
:103f34001e03be00840f5300858f5b00080036000b
:103f4400845b80004322dd00845b8800be02900015
:103f540034fe2f00048262003407980057003700b3
:103f640004182000050020001e03be00840f530027
:103f7400858f5b0009003600845b80006722b900ee
:103f840004027800845b8800be02900074fe2f0057
:103f940004826200340798004800370004142000ab
:103fa400050020001e03be00840f5300858f5b00b4
:103fb40009003600845b80006622b90004027800a0
:103fc400845b8800be029000b4fe2f00048262006d
:103fd4003407980039003700041020000500200041
:103fe4001e03be00840f5300858f5b00090036005a
:103ff400845b80006522b90004027800845b880039
:10400400be029000f4fe2f00048262003407980080
:104014002a003700040c2000050020001e03be0007
:10402400840f5300858f5b0008003600845b80009a
:104034004222dd00845b8800be02900034ff2f0022
:1040440004826200340798001c0037000408200032
:10405400050020001e03be00840f5300858f5b0003
:1040640009003600845b80006322b90004027800f2
:10407400845b8800be02900074ff2f0004826200fb
:10408400340798000d0037000404200005002000c8
:104094001e03be00840f5300858f5b0007003600ab
:1040a400845b800004024200845b8800be029000ae
:1040b400b4ff2f000482620034079800845b800000
:1040c4004222dd00845b88004e429000e14f5200a2
:1040d40004003a003e029000141188005e03900030
:1040e400061188004e429000e24f520004003a004c
:1040f4003e029000441188005e039000361188004f
:104104000080fa00000006000c00fa004007980046
:10411400214f98000042eb00044f78002e4a900093
:10412400e14f520054003a008500a9004e0290006d
:10413400241188000002eb003407980018003700af
:104144003e0290000402e80034079800845b80007b
:10415400be029000848f52000300360034c0b300c6
:10416400044f78000e00370005118000040420007d
:1041740004826200e00f52000300320044c0b30026
:10418400044f7800060037000411800062026200c8
:10419400e00f520002003a0014c0b300044f78004c
:1041a4001e427800e04f5200e5ff32002000370045
:1041b4003e0290000402e80034079800845b80000b
:1041c400be029000848f52000300360034c0b30056
:1041d400044f780016003700051180000404200005
:1041e40004826200e00f52000300320044c0b300b6
:1041f400044f78000e0037002504800004102000ce
:1042040004826200e00f52000300320024c0b300b5
:10421400044f780006003700041180006102620038
:10422400e00f52000200320024c0b300044f7800b3
:104234001e427800e14f5200ddff32001e4278003a
:10424400e24f520005003a002411800005002000ce
:104254001407980025079800070037000400200081
:10426400151121001407980025079800945b80001d
:104274000402e800945b88002e4a9000e24f52004a
:104284004d003a008740a9004e0290005411880066
:104294000002eb0034079800180037003e0290003b
:1042a4000402e80034079800845b8000be0290009a
:1042b400848f52000300360034c0b300044f7800ea
:1042c4000e003700351180000404200004826200cf
:1042d400e00f52000300320044c0b300044f7800e2
:1042e400060037003411800062026200e00f5200c1
:1042f40002003a0014c0b300044f78001e42780054
:10430400e04f5200e5ff3200190037003e029000f2
:104314000402e80034079800845b8000be02900029
:10432400848f52000300360034c0b300044f780079
:104334000f0037003511800004042000048262005d
:10434400e00f52000300320044c0b300044f780071
:104354000700370035048000044020000482620016
:10436400e00f52000200320024c0b300044f780072
:104374001e427800e14f5200e4ff32001e427800f2
:10438400e24f520005003a0054118000050020005d
:104394001407980025079800070037000400200040
:1043a400151121001407980025079800a45b8000cc
:1043b4000402e800a45b88001e029000ae02900094
:1043c4000400be000080fa00000006001400fa0099
:1043d4004047980031079800420798005307980017
:1043e4006407980075079800060f9800170f980047
:1043f4004e019000de0190006e009000fe009000df
:10440400cbef07000002be00048fbe001e0278003e
:104414004422dd00e45b88006e029000fe029000fe
:1044240052cd2d00230320000400be00c0ef07007e
:104434000002be001e1f12001e971a000082eb002d
:104444008082eb001e0f42005e974a001e03be00ee
:104454001400200005002000840f5300858f5b00aa
:1044640003003e002400200005002000048fbe004d
:10447400f4ff2f00050020001e03be00840f53002c
:10448400858f5b0003003600240020000500200017
:10449400048fbe004e429000e04f520003003200f1
:1044a4004e429000e14f520004003a00be029000d8
:1044b400351088001e027800241088000080fa005d
:1044c400000006000600fa00404798000002eb00d6
:1044d400140798004e429000e04f5200030032004f
:1044e4004e429000e14f520013003a000002eb00ec
:1044f400040f78000b0037001e0fe800e45b800017
:104504009e027800848f52000600360004a02f001b
:1045140014079800d45b80000402e800d45b880090
:104524000500370045108000040024000482620066
:10453400e00f5200f0ff3a001e02900004007800e1
:104544000080fa00000006000600fa0040479800c8
:104554000002eb00140798004e429000e04f520016
:10456400030032004e429000e14f520013003a0023
:104574000602a8000002eb00040f78000b003700cd
:104584001e0fe800e45b80009e027800848f5200d6
:104594000600360004a02f0014079800d45b8000a6
:1045a4000402e800d45b8800040037003410800063
:1045b40061026200e00f5200f1ff3a001e02900017
:1045c400040078000080fa00000006000600fa00eb
:1045d400404798000002eb00140798004e429000f8
:1045e400e04f5200030032004e429000e14f52006f
:1045f40013003a000622a8000002eb00040f780022
:104604000b0037001e0fe800e45b80009e02780078
:10461400848f52000600360004a02f00140798006f
:10462400d45b80000402e800d45b880004003700f7
:104634003410800062026200e00f5200f1ff3a0081
:104644001e029000040078000080fa0000000600ba
:104654000600fa0040479800514798000002eb001a
:10466400140798005e429000e04f520003003200ad
:104674005e429000e14f520028003a004e42900002
:104684000482fb00141088000002eb00040f780081
:104694000c0037001e0fe800e45b80009e027800e7
:1046a400848f52000700360004a02f0014079800de
:1046b400d45b80000402e800d45b880000000000a2
:1046c40011003700451080000400240004826200b9
:1046d400e00f5200efff32000b0037001e0fe8001e
:1046e400e45b80009e027800848f5200060036004e
:1046f40004a02f0014079800d45b80000402e80093
:10470400d45b8800050037004510800004002400b5
:1047140004826200e00f5200f0ff3a001e02900093
:10472400040078000080fa00000006000600fa0089
:10473400404798000002eb00140798004e42900096
:10474400e04f5200030032004e429000e14f52000d
:104754002b003a000662a8000002eb00040f780068
:104764000c0037001e0fe800e45b80009e02780016
:10477400848f52000700360004a02f00140798000d
:10478400d45b80000402e800d45b880000000000d1
:10479400100037003410800068026200e00f5200fd
:1047a400f0ff3a000b0037001e0fe800e45b8000c6
:1047b4009e027800848f52000600360004a02f0069
:1047c40014079800d45b80000402e800d45b8800de
:1047d400040037004410800062026200e00f5200bf
:1047e400f1ff32001e029000e00f520004003a0074
:1047f40005108000f40f2000048262001407980062
:104804001e029000040078000080fa0000000600f8
:104814000600fa00404798000002eb0014079800d5
:104824004e429000e04f5200030032004e4290008e
:10483400e14f520013003a000642a8000002eb00c8
:10484400040f78000b0037001e0fe800e45b8000c3
:104854009e027800848f52000600360004a02f00c8
:1048640014079800d45b80000402e800d45b88003d
:10487400040037003410800064026200e00f52002c
:10488400f1ff3a001e029000040078000080fa0054
:10489400000006000600fa00404798000002eb0002
:1048a400040f78000002eb00140798004e429000b9
:1048b400e04f5200030032004e429000e14f52009c
:1048c40012003a0006a2a9000682a8000b003700d5
:1048d4001e0fe800e45b80009e027800848f520083
:1048e4000600360004a02f0014079800d45b800053
:1048f4000402e800d45b8800040037003410800010
:1049040070026200e00f5200f1ff3a001e029000b4
:10491400040078000080fa00000006000600fa0097
:10492400404798000002eb00040f78000002eb00ff
:10493400140798004e429000e04f520003003200ea
:104944004e429000e14f520012003a0006a2a80025
:104954000682a8000b0037001e0fe800e45b80000d
:104964009e027800848f52000600360004a02f00b7
:1049740014079800d45b80000402e800d45b88002c
:10498400040037003410800070026200e00f52000f
:10499400f1ff3a001e029000040078000080fa0043
:1049a4000000060010019000900078000100510002
:1049b4000000e900f000b2000000060010019000c1
:1049c4009000780002805000f000b2000000060061
:1049d4001170a6001a003700e40140009309e800b2
:1049e400900190001001e800f200b2000310e10011
:1049f40010003200100178006a11b800e80140008c
:104a0400828141006e815000921978006601410054
:104a1400b2197800b2197800b2197800b219780086
:104a24001001e800f200b20002087800e60140003c
:104a34009309e900e60140009309e8001170a10020
:104a4400000006001170a600090037006e815000b6
:104a54001218780066014100321878003218780084
:104a640032187800321878001170a100080037005d
:104a7400827f2100021878000200200002187800ca
:104a84000218780002187800021878003100370004
:104a940000000600e40140009309e8009001900042
:104aa4001001e800f200b2000310e1000e00320031
:104ab400100178006a11b800e801400082814100c9
:104ac400b1197800b1197800b1197800b1197800da
:104ad400b11978001001e800f200b2000208780071
:104ae400e60140009309e900e60140009309e8006b
:104af4000000060010019000900178000310e1000e
:104b040008003a00837f2100831878000300200006
:104b14008318780083187800831878008318780045
:104b24000c0037006a11b80068014100000141001f
:104b3400b2187800b2187800b2187800b218780069
:104b4400b2187800100190000201e800f200b200ef
:104b540012009800000006001130a700130037006f
:104b640010019000900178000310e1000f00320062
:104b74006a11b8006801410000014100ee81500053
:104b8400b2097800e6814100b2197800b2197800c0
:104b9400b2197800b21978001130a0001001900009
:104ba4000201e800f200b2001200980000000600c2
:104bb4001130a1006e815000300978006601410077
:104bc40030197800301978003019780030197800dd
:104bd4001130a000000006000018eb000018eb00e4
:104be4000018eb000008eb00000006000400fa00c7
:104bf400100798001e029000c4029000050f780070
:104c04009e02780004102400848f52000e003a00a3
:104c14001e0290002402900084007800c0af20009f
:104c2400a6fb07001e029000340290008400780066
:104c340040b12000a1fb0700410020006098200043
:104c440008f3070004003700a44d80000402e800c4
:104c5400a44d8800000000000080fa000000060057
:104c64000400fa00100798001e029000c40290008d
:104c7400050f78001e02780005082400850f5200f5
:104c84000400320015082400850f5200050032008c
:104c9400080037000120200060982000f1f207008e
:104ca400080037000120200060982000e0f207008f
:104cb40004003700a44d80000402e800a44d8800dd
:104cc400000000000080fa00000006000400fa0062
:104cd400100798001e029000c4029000050f78008f
:104ce400f4ff20001e0f6200a44d80000402e800bf
:104cf400a44d88000080fa00000006000000fa00bd
:104d040014002000345c88000080fa0000000600d3
:104d14000000fa0034508000a7588000e657800055
:104d2400954a8000870178000601780085007800a4
:104d3400c0042000e4f307000080fa00000006002d
:104d44000000fa007452800057518000164f800012
:104d5400055b8000870178000601780085007800f3
:104d6400d0042000d8f307000080fa0000000600f9
:104d74000000fa000080fa00000006000000fa00bb
:104d84000080fa000000060001600100c422b700a0
:104d940000000600ca22b70000000600d022b700b7
:104da40000000600d622b700000006000000000044
:104db40000000600e222b70000000600e822b70067
:104dc4000000060000000000000006000080ea0069
:104dd40001600100c422b60000000600ca22b60029
:104de40000000600d022b60000000600d622b6005d
:104df400000006000000000000000600e222b600e9
:104e040000000600e822b6000000060000000000d2
:104e14000000060001600100c022b7000000060087
:104e2400c622b70000000600cc22b700000006002e
:104e3400d222b700000006000000000000000600b7
:104e4400de22b70000000600e422b70000000600de
:104e540000000000000006000080ea00016001007c
:104e6400c022b60000000600c622b60000000600fc
:104e7400cc22b60000000600d222b60000000600d4
:104e84000000000000000600de22b600000006005c
:104e9400e422b60000000600000000000000060046
:104ea4000200e00005003b00020040000800310061
:104eb40000002000822bec000500370002004000b7
:104ec40003003900f0ff2f00822bec0000003700b4
:104ed4000101b8006218b8000100e00002003200cd
:104ee400f0ff2f00822bec00cf10de0001007000d9
:104ef400000006000200e00005003b000200400044
:104f04000800310000002000842bec00050037006d
:104f14000200400003003900f0ff2f00842bec0056
:104f2400000037000101b8007018b8000100e0006b
:104f340002003200f0ff2f00842bec00cc10de00c6
:084f44000100700000000600ee
:020000040000fa
:104f4c0000080000c401000000000000860b0000f7
:104f5c0002000000000000007a0b000004000000ba
:104f6c0000000000700b00000600000000000000b4
:104f7c007e0b00000400000000000000820b00000b
:104f8c000400000000000000c4090000ac01000097
:084f9c0000000000000000000d
:020000040000fa
:104fa400f03fb1000180b10006003500ee030900b6
:104fb40000000000403fb1000180b100fbff3d0054
:104fc4001000b000203fb00002003500008009004e
:084fd4000000000000000600cf
:020000040000fa
:0200000401f009
:04000000ecbb000055
:020000040000fa
:0200000401f009
:04000400e7ff000012
:020000040000fa
:0200000401f009
:040008004cff0000a9
:020000040000fa
:0200000401f009
:04000c00ffff0000f2
:020000040000fa
:0200000401f009
:04001000ffff0000ee
:020000040000fa
:0200000401f009
:04001400ffff0000ea
:020000040000fa
:0200000401f009
:04001800ffff0000e6
:00000001FF
