:020000040000fa
:080000000001040000000000f3
:020000040000fa
:10000800420f0000420f0000420f0000420f0000a4
:10001800420f0000420f0000420f0000420f000094
:10002800420f0000420f0000420f0000420f000084
:10003800420f0000420f0000420f0000420f000074
:10004800420f0000420f0000420f0000140d000094
:10005800420f0000420f0000420f0000420f000054
:10006800420f0000420f0000420f0000420f000044
:10007800420f0000420f0000420f0000420f000034
:10008800420f0000420f0000420f0000f00700007e
:10009800420f0000420f0000420f0000420f000014
:1000a800420f0000420f0000420f0000420f000004
:1000b800420f0000420f0000420f0000420f0000f4
:1000c800420f0000420f0000420f0000420f0000e4
:1000d800420f0000420f0000420f0000420f0000d4
:1000e800420f0000420f0000420f0000420f0000c4
:0800f800420f0000420f00005e
:020000040000fa
:10010800420f0000420f0000420f0000420f0000a3
:10011800420f0000420f0000420f0000420f000093
:10012800420f0000420f0000420f0000420f000083
:10013800420f0000420f0000420f0000420f000073
:10014800420f0000420f0000420f0000140d000093
:10015800420f0000420f0000420f0000420f000053
:10016800420f0000420f0000420f0000420f000043
:10017800420f0000420f0000420f0000420f000033
:10018800420f0000420f0000420f0000f00700007d
:10019800420f0000420f0000420f0000420f000013
:1001a800420f0000420f0000420f0000420f000003
:1001b800420f0000420f0000420f0000420f0000f3
:1001c800420f0000420f0000420f0000420f0000e3
:1001d800420f0000420f0000420f0000420f0000d3
:1001e800420f0000420f0000420f0000420f0000c3
:0801f800420f0000420f00005d
:020000040000fa
:10020000efb720000e7f22000e01880000000000e2
:10021000000020000000e000020032000001200089
:10022000200288000c000700404e22000100200040
:1002300011000700000020000000e0000200320072
:100240000000020000000000ac08020000000000f6
:100250000040da000000fe004440a9000000200039
:100260000000e0000300320000002000a001880030
:100270004440a8000000060091018800800078003a
:100280000000eb0015003700e280400032a0b4000f
:100290009101ba00e280400032a0b4009102ba009d
:1002a000e280400032a0b4000002eb00472bde00e9
:1002b000f507b200602ce10004003a000059eb00a1
:1002c0008301e900fdff3e00040037006128e100e2
:1002d000010032000082eb00040007001101ba00a7
:1002e0000200e000e8ff3a00000006003159ba00c1
:1002f0008301e9000c0032002159ba008301e900b2
:10030000080032000400e00003003a00e2804000f0
:1003100032a0b400f5ff370011d9ba008301e9001b
:10032000faff3a008100e800e180400032a0b4000a
:10033000000006006022b800060220000000d00085
:100340008180d2000482d2008582d2000000a00009
:100350000202520083825a0003003100020242006e
:1003600083824a000000a1000603e900f3ff3a007f
:040370000000060083
:020000040000fa
:100374000000fa0030000700c7010700be000700b4
:100384001c000700044e8000d44a8800d54a80002f
:10039400d44d800004824200d44a8800d54a8000ab
:1003a400e44d800004824200d44a8800d54a80008b
:1003b400f44d800004824200d44a8800d54a80006b
:1003c400b44d800004824200d44a8800d54a80009b
:1003d400a44d800004824200d44a8800d54a80009b
:1003e400944d800004824200d44a88000080fa00c0
:1003f400000006000000fa00250480000408200024
:1004040004826200e00f52000900320084e0a90077
:10041400044e80000402e800044e8800044e80006c
:10042400745b880011002000809820003c000700c5
:100434000080fa00000006000a00fa002d003700d0
:100444008e00780000802000491007009e0278008a
:10045400840720008482620004022000848f5200fa
:1004640004003200b44d80000402e800b44d88005a
:10047400200037009e027800044a2100848f520035
:1004840003003a000e007800a600070019003700a8
:100494009e027800045a2100848f520003003a001f
:1004a4000e0078003f000700120037009e0278001b
:1004b40004622100848f520003003a000e00780089
:1004c400e50007000b0037009e027800c4c7210036
:1004d4008482620004022100848f520005003a00e5
:1004e4000e0078002f000700944d80000402e800fd
:1004f400944d880000802000cf0f07000002780090
:10050400e00f5200ceff3a0074458000d44d8800bd
:1005140034408000e44d88000080fa0000000600aa
:100524000400fa00000f7800110798001e027800fa
:10053400940278001e0290000403780005037300ff
:10054400860278001e027800050a78000080fa000e
:10055400000006000400fa00000f7800110798005c
:100564001e027800940278001e0290000482ea00c1
:10057400848262001e027800050a78000080fa0076
:10058400000006000400fa00000f7800110798002c
:100594001e0290001e026200040078000080fa002f
:1005a400000006000400fa00100798001e029000e4
:1005b400c4029000050f780004002f009e02620020
:1005c40004002400848f520004003200a44d8000f3
:1005d4000402e800a44d880025003700f4ff200041
:1005e4009e026200f40f2000848f520004003e003b
:1005f400a44d80000402e800a44d88001c003700cc
:10060400f4ff20009e026200f42f2000848f520029
:1006140003003e001e009000131007001400370072
:10062400f4ff20009e026200f43f2000848f5200f9
:1006340004003e00a44d80000402e800a44d88009c
:100644000b003700f4ff20009e026200f44f2000ec
:10065400848f520003003e001e009000b300070088
:1006640003003700a44d80000402e800a44d880074
:100674000080fa00000006000200fa00344c8000fa
:10068400630f62000a0007001e027800e00f5200a8
:1006940005003a00344c800063026200e00f52000f
:1006a40001003200a90007000080fa0000000600e3
:1006b4000000fa00454c8000844c800004826200f3
:1006c400e00f520004003200344c80000400a0000b
:1006d400344c880004003700354c8000e4ff2f00c0
:1006e40004826200344c8800354c8000744c8000d5
:1006f40004826200e00f520004003200344c800097
:100704000410a000344c880004003700354c8000ed
:10071400d4ff2f0004826200344c88000080fa0069
:10072400000006000400fa00100798001e02900062
:10073400c4029000050f780004002f009e0262009e
:1007440004002400848f520004003200a44d800071
:100754000402e800a44d880013003700f4ff2000d1
:100764009e026200f4072000848f520003003e00c2
:100774001e0090000e0007000b003700f4ff20005d
:100784009e026200f40f2000848f520003003e009a
:100794001e009000d10f070003003700a44d800015
:1007a4000402e800a44d88000080fa00000006005e
:1007b4000400fa00100798001e029000c402900082
:1007c400050f7800f4ff20001e0f62001e0278005f
:1007d400050020005600200007002000860f52006c
:1007e400878f5a0014003e000460010005003700a2
:1007f40006003700100037001400370005003700ea
:1008040009003700dc0f0700110037000000fe006c
:100814000f003700354c8000f4fe2f000482620084
:10082400344c88000a003700344c80000440a00097
:10083400344c880006003700a44d80000402e80010
:10084400a44d8800000000000100370000000000f3
:100854000080fa00000006000400fa001007980067
:100864001e029000c4029000050f780004002f00bf
:100874009e02620004002400848f520004003200af
:10088400a44d80000402e800a44d88002500370030
:10089400f4ff20009e026200f40f2000848f5200b7
:1008a40004003e00a44d80000402e800a44d88002a
:1008b4001c003700f4ff20009e026200f42f200089
:1008c400848f520003003e001e0090009e0f07001c
:1008d40014003700f4ff20009e026200f43f200061
:1008e400848f520004003e00a44d80000402e800fe
:1008f400a44d88000b003700f4ff20009e02620024
:10090400f44f2000848f520003003e001e0090002c
:100914000a00070003003700a44d80000402e80029
:10092400a44d88000080fa00000006000200fa00ce
:10093400000f78000080fa00000006000200fa00b0
:10094400000f78000080fa00000006000a00fa0098
:1009540044822a00040f780055ff0700344c8000bd
:1009640014079800444c800024079800544c8000dd
:1009740034079800644c800044079800e135200057
:100984000e007800290f0700344d80000402e800af
:10099400344d88000080fa00000006000200fa00ce
:1009a400000f78000060fe000002eb00540888008d
:1009b4000080fa00000006001400fa0050079800b6
:1009c4006107980072079800030f9800140f9800ad
:1009d4005e0290006f02620054079800de029000ed
:1009e4000404200005027200540798005e0290007f
:1009f4000402420054079800de02900004602000c4
:100a040005027200540798005e0290004222dd0045
:100a1400540798005e029000040f78009e0278004c
:100a240004f02f0004826200040f78001e02780094
:100a34004322dd00040f78009e0278005e039000dc
:100a4400f40f20000402630005027200040f780012
:100a54001e0a9000140798000e0a900024079800bc
:100a64007e029000340798006e02900044079800bc
:100a74008e007800808a2000a50e0700741b800079
:100a840068026200e00f520001003a008760a8008b
:100a94000080fa00000006000000fa00250480002f
:100aa4000404200004826200e00f52009f00320020
:100ab40084c0a900144e80000402e800144e88008b
:100ac400144e80006f026200144e88009fff0700de
:100ad400144e800005002000f600200007002000ce
:100ae400860f5200878f5a0090003e000460010078
:100af4000f003700180037002000370029003700a6
:100b0400320037003b003700440037004d00370007
:100b1400560037005f003700680037007100370067
:100b24007a0037007b0037007c0037007d003700f7
:100b3400e44a8000d74a8000c64a8000b54a800053
:100b44008701780006017800850078000000eb003a
:100b540099ff070075003700064b8000f54a8000b6
:100b64000002eb008001eb000601780085007800ac
:100b74001000200090ff07006c003700644b8000d9
:100b8400574b8000464b8000354b8000870178002e
:100b940006017800850078002000200086ff070009
:100ba40062003700a44b8000974b8000864b800086
:100bb400754b800087017800060178008500780075
:100bc400300020007cff070058003700e44b800011
:100bd400d74b8000c64b8000b54b8000870178005e
:100be40006017800850078004000200072ff0700ad
:100bf4004e003700244c8000174c8000064c8000c7
:100c0400f54b8000870178000601780085007800a4
:100c14005000200068ff070044003700444d800066
:100c2400374d8000264d8000154d800087017800e7
:100c34000601780085007800800020005eff070030
:100c44003a003700844d8000774d8000664d800067
:100c5400554d8000870178000601780085007800f2
:100c64009000200054ff070030003700c44d80007e
:100c7400b74d8000a64d8000954d80008701780017
:100c84000601780085007800a00020004aff0700d4
:100c940026003700044e8000f74d8000e64d8000aa
:100ca400d54d800087017800060178008500780022
:100cb400b000200040ff07001c003700c44c800037
:100cc400b74c8000a64c8000954c800087017800ca
:100cd40006017800850078006000200036ff0700d8
:100ce40012003700044d8000f74c8000e64c800071
:100cf400d54c8000870178000601780085007800d3
:100d0400700020002cff0700080037009f0e07002a
:100d140006003700a90e070004003700b30e0700d1
:100d240002003700b40e0700000000000080fa0043
:100d3400000006000e00fa005007980061079800b2
:100d44000002eb00040f78006e0290002407980064
:100d54005e02900014079800e13420000e00780031
:100d6400320e0700444d80000402e800444d880020
:100d74000080fa00000006001000fa0050079800f6
:100d8400610798007207980044022a00040f780053
:100d94007e029000140798005e02900024079800d9
:100da4006e029000e10f520003003a0004102e007e
:100db400440798000200370014102e0044079800de
:100dc400e13420000e007800180e0700444d800026
:100dd4000402e800444d88000080fa000000060088
:100de4000000fa00043a800061026200e00f520041
:100df40004003a00043a800062026200e00f5200ec
:100e0400050032000002eb00645b88000002eb0086
:100e1400745b880003003700645b80000402e80010
:100e2400645b88004007a9004027a90040c7a900c7
:100e340040e7a90041e7a9004087a90041c7a900ec
:100e4400645b8000f44a8800745b8000044e880070
:100e54008f60a9008760a9000405800004c0a10078
:100e640004d0a10004e0a000040588000002eb0007
:100e7400b41c88009803a8009823a8009843a800ed
:100e840098a3a80000802000f20d0700808a2000ab
:100e9400f00d070004402000841c880000000000be
:100ea400851c8000040e2000848262000408200057
:100eb400848f5200faff3a0014002000941c88002a
:100ec40014392000a41c880014802100841988008f
:100ed400d4872100c41988000002eb00041888009c
:100ee400048020004418880004022100841888002b
:100ef400c47f2100c4188800c47f2100041988001d
:100f0400c47f21004419880014002000741b880049
:100f140024002000f41a880034002000741a880089
:100f2400040c2000241b8800040c2000a41a880050
:100f3400040c2000241a88000002eb00741c8800b2
:100f44000002eb00f41b88000002eb00841c880004
:100f540000000000851c8000040e20000482620052
:100f6400e00f5200fbff3a008f60a80054fb2500fd
:100f74008408880024f42000640888000002eb0040
:100f84003408880084c0a9008cc0a90011e1a8001d
:100f9400d4fb250094088800546222007408880059
:100fa40084e0a9008ce0a90013e1a8000002eb0092
:100fb400944c8800c4e52800a44c88000002eb008f
:100fc400b44c880014042000c44c8800440620005b
:100fd400d44c88000080fa00000006003600f800b7
:100fe400809fbe00829fbe00849fbe00869fbe007d
:100ff4000a00fa008760a900844d80000402e8001a
:10100400844d8800751c800004082000048262005e
:10101400e00f520018003200741c8000610262006c
:10102400e00f52000b003a00544d80000402e80027
:10103400544d8800e13820000e007800200d070090
:101044003e029000844a88004e029000944a880030
:1010540008003700644d80000402e800644d8800f5
:10106400e13820000e007800150d07000e0078000e
:101074004afe07009603a900f51b8000040820001f
:1010840004826200e00f520007003200744d8000b9
:101094000402e800744d8800e1372000008020003d
:1010a400ea0c07009623a900741b80006802620002
:1010b400e00f52000c003a00808a2000de0c07008a
:1010c40000027800e00f520007003200e1362000f1
:1010d400808a20003f0d07009643a900c44d80007c
:1010e4000402e800c44d8800b51c800004022000fe
:1010f40004826200e00f520005003200244d80009b
:101104000402e800244d880096a3a90008003700d3
:10111400451780000400220004826200e00f5200a0
:1011240002003200e9a2a90001003700e9a2a800e8
:10113400d41c8000144d88000080fa004f03be00c8
:101144004f02be004f01be004f00be003600f90042
:10115400004006000000fa0004012000145b88002f
:1011640001000700feff37000000fa00145b800056
:1011740005032000850f52003500320005032000ce
:10118400850f520006003e00f00f52000b003200a3
:1011940005022000850f52000c0032007400370055
:1011a40005042000850f520044003200050520008c
:1011b400850f52005c0032006d0037000d010700fe
:1011c40004022000145b88006c00370041002000fa
:1011d40060982000d2fc07000120200060982000c5
:1011e400cffc070035030700140037006500070033
:1011f4005ffc0700344c80004100200004007800ac
:10120400e0fc070000027800e00f520002003a0000
:1012140004032000145b8800344c8000110020007b
:1012240004007800d7fc070000027800e00f5200a9
:101234000200320004052000145b8800155b800066
:1012440004022000848f5200e8ff32004b00370074
:101254001a030700140037004a00070044fc070083
:10126400344c80000120200004007800c5fc0700f5
:1012740000027800e00f520002003a00040420004b
:10128400145b8800344c80001100200004007800b6
:10129400bcfc070000027800e00f5200020032009c
:1012a40004052000145b8800155b80000403200003
:1012b400848f5200e8ff320030003700f602070046
:1012c400140037002f00070029fc0700344c80006d
:1012d4000120200004007800aafc07000002780026
:1012e400e00f52000200320004032000145b880067
:1012f400344c80001100200004007800a1fc070099
:1013040000027800e00f52000200320004052000c1
:10131400145b8800155b800004042000848f520055
:10132400e8ff320015003700e40207000b00370025
:10133400140007000efc0700344c8000110020004c
:10134400040078008ffc070000027800e00f5200d0
:1013540002003a0004022000145b8800155b800040
:1013640004052000848f5200f1ff3200030037008f
:1013740004052000145b8800000000000080fa00cf
:10138400000006000000fa00350480000404200078
:1013940004826200e00f52009400320086c0a9006b
:1013a400344c800063026200e00f520002003200fd
:1013b400e982a90001003700e982a800151680001f
:1013c4000400280004826200e00f5200040032008e
:1013d400011020006098200051fc07000300370032
:1013e40001102000609820005afc0700a516800018
:1013f4000400280004826200e00f520004003a0056
:10140400014020006098200045fc070003003700dd
:1014140001402000609820004efc0700a5168000c3
:101424000410200004826200e00f52000400320025
:10143400010021006098200039fc070003003700f8
:10144400010021006098200042fc0700e45b80005a
:10145400e00f520007003200344b80000402e80021
:10146400344b88000002eb00444c88000002eb007f
:10147400e45b8800a5168000040022000482620058
:10148400e00f520003003200210020008098200069
:1014940023fc0700a51680000400240004826200d7
:1014a400e00f520003003200410020008098200029
:1014b4001bfc0700a51680000420200004826200a3
:1014c400e00f5200030032008100200080982000c9
:1014d40013fc0700a516800004402000048262006b
:1014e400e00f520003003200010120008098200028
:1014f4000bfc0700a5168000040021000482620092
:10150400e00f520003003200010220008098200006
:1015140003fc0700c09d2000e007070000a0200096
:10152400de07070040a22000dc07070080a420009b
:10153400da070700c0a62000d807070000a920008a
:10154400d607070040ab2000d407070080ad200079
:10155400d207070080a420000f08070000027800cb
:10156400e00f5200030032000108200080982000a0
:10157400ebfb0700c0af20009a07070040b1200032
:1015840098070700b4588000f55780003303200003
:101594000501780021032000409c2000410307003e
:1015a400155b800004042000848f52000700320081
:1015b400345a800075598000130320000501780017
:1015c40001032000409c200036030700e4578000fc
:1015d400444b8800a4588000544b8800243f2000ca
:1015e400644b8800447e2000744b88000080fa001d
:1015f400000006000200fa000002eb00344c8800f0
:101604000002eb00444c88000002eb00544c8800bc
:101614000002eb00644c880044202000744c8800d5
:1016240034002000844c8800410020006098200091
:10163400bbfb07000120200060982000b8fb0700d6
:101644000002eb00f44c88000002eb00e44c88003c
:1016540054002000044d8800340580000400a000dc
:101664000410a0000420a000340588008220a900f2
:10167400c404800004c0a10004d0a00004e0a000c1
:10168400c404880004602f0004168800b4072f00e7
:1016940034168800240020006416880004702f008b
:1016a40094168800341c2000f4168800c4002c0012
:1016b40024178800c4e2a800e982a800e9a2a800cf
:1016c4000002eb00040f78001f003700c4e2a900f9
:1016d400007c220091002000d00c07000060fe0076
:1016e400e982a900007c220091002000cb0c0700b5
:1016f4000060fe00e9a2a900007c22009100200005
:10170400c60c07000060fe00e9a2a800007c2200cd
:1017140091002000c10c07000060fe00e982a800cf
:10172400007c220091002000bc0c07000060fe0039
:10173400c4e2a800007c220091002000b70c07003e
:101744000060fe001e0fe8001e027800e40f520045
:10175400deff36000002eb00040888008460a90064
:10176400d4f9250024088800440d2300e4088800e7
:101774000002eb00c408880086c0a900d4f92d003b
:1017840004098800f4cf270004158800e4fd26002e
:101794001415880084442e0024158800343e2e003d
:1017a4003415880074f82000441588000082eb008a
:1017b400541588008560a9008d60a800a1e2a800e6
:1017c4002400200045002000849fbe00060028005d
:1017d400c7002000045a2200650220000268290084
:1017e4008309200011c0b300409c2000bc01070005
:1017f400e487570006a82100670020000468290038
:1018040085092000030022000041eb0001cab30057
:10181400809d20002004070071fd0700f4ff2700cd
:10182400841f78008083eb00060028008002eb0010
:101834000082eb0080c1eb000001eb0001482000b6
:10184400c09d2000600607008f87e900f4ff270091
:10185400841f78008083eb00060028008002eb00e0
:101864000082eb0080c1eb000001eb000148200086
:1018740000a02000540607008f87e900f4ff27002a
:10188400841f78008083eb00060028008002eb00b0
:101894000082eb0080c1eb000001eb00d166200068
:1018a40040a22000480607008f87e9004406200074
:1018b400841f78008083eb00060028008002eb0080
:1018c40084ea2d0080c1eb000271220001c82000cf
:1018d40080a420003c0607008f87e900f4ff27005e
:1018e400841f78008083eb00060028008002eb0050
:1018f4000082eb0080c1eb000001eb00a11a200084
:10190400c0a62000300607008f87e900f4ff2700f7
:10191400841f78008083eb00060028008002eb001f
:101924000082eb0080c1eb000001eb00d1432000fa
:1019340000a92000240607008f87e900f4ff270090
:10194400841f78008083eb00060028008002eb00ef
:101954000082eb0080c1eb000001eb0001282000b5
:1019640040ab2000180607008f87e900f4ff27002a
:10197400841f78008083eb00060028008002eb00bf
:101984000082eb0080c1eb000001eb0001002100ac
:1019940080ad20000c0607008f87e9000003eb00f0
:1019a40085bb20000465240080c1eb000001eb002e
:1019b40081f62200c0af2000500607000003eb00b0
:1019c40085bb20000465240080c1eb000001eb000e
:1019d40081f6220040b12000480607000003eb0016
:1019e4008002eb000471220080c1eb000001eb00d7
:1019f40051552500c0b22000400607000003eb004b
:101a04008002eb000082eb0080c1eb000001eb00e0
:101a14000100210040b42000380607000080fa00cd
:101a240000000600801f7800849fbe00869fbe00d1
:101a34000000fa008560a900f45a8000e00f52000b
:101a4400030032000002eb00f45a8800070137005b
:101a5400151580000408200004826200e00f520083
:101a640041003200e64e8000f74e800004148000ee
:101a7400050020000602420087824a00e44e8800e6
:101a8400f54e88004652800057528000141480009e
:101a9400050020000602420087824a004452880062
:101aa400555288000650800017508000241480008e
:101ab400050020000602420087824a000450880084
:101ac400155088002651800037518000341480005e
:101ad400050020000602420087824a002451880043
:101ae40035518800c6568000d756800044148000c3
:101af400050020000602420087824a00c45688007e
:101b0400d5568800665380007753800054148000b3
:101b1400050020000602420087824a0064538800c0
:101b240075538800865480009754800064148000a4
:101b3400050020000602420087824a00845488007f
:101b440095548800a6558000b75580007414800011
:101b5400050020000602420087824a00a45588003e
:101b6400b555880040003700e64e8000f74e8000ef
:101b740084148000050020000602420087824a0087
:101b8400e44e8800f54e880046528000575280008b
:101b940094148000050020000602420087824a0057
:101ba4004452880055528800065080001750800027
:101bb400a4148000050020000602420087824a0027
:101bc4000450880015508800265180003751800049
:101bd400b4148000050020000602420087824a00f7
:101be4002451880035518800c6568000d75680009d
:101bf400c4148000050020000602420087824a00c7
:101c0400c4568800d55688006653800077538000f8
:101c1400d4148000050020000602420087824a0096
:101c2400645388007553880086548000975480005c
:101c3400e4148000050020000602420087824a0066
:101c44008454880095548800a6558000b7558000b8
:101c5400f4148000050020000602420087824a0036
:101c6400a4558800b5558800e45a80000402e800b1
:101c7400e45a8800e55a8000f4072000848f52005b
:101c84007a003600e44e8000f54e80004d2bdd00d6
:101c94004322de0004027300c32ade00e44e8800ff
:101ca400f54e8800e44e8000f54e80000402780072
:101cb400044f88006022b800e44e8800f54e880086
:101cc40044528000555280004d2bdd004322de003b
:101cd40004027300c32ade0044528800555288006f
:101ce40044528000555280000402780064528800f7
:101cf4006022b80044528800555288000450800085
:101d0400155080004d2bdd004322de0004027300d9
:101d1400c32ade0004508800155088000450800057
:101d24001550800004027800245088006022b80016
:101d340004508800155088002451800035518000db
:101d44004d2bdd004322de0004027300c32ade00b3
:101d54002451880035518800245180003551800079
:101d640004027800445188006022b800245188009d
:101d740035518800c4568000d55680004d2bdd00b7
:101d84004322de0004027300c32ade00c456880026
:101d9400d5568800c4568000d556800004027800c9
:101da400e45688006022b800c4568800d5568800de
:101db40064538000755380004d2bdd004322de0008
:101dc40004027300c32ade0064538800755388003c
:101dd40064538000755380000402780084538800a3
:101de4006022b800645388007553880084548000ce
:101df400955480004d2bdd004322de000402730065
:101e0400c32ade00845488009554880084548000da
:101e14009554800004027800a45488006022b8001d
:101e24008454880095548800a4558000b5558000da
:101e34004d2bdd004322de0004027300c32ade00c2
:101e4400a4558800b5558800a4558000b555800078
:101e540004027800c45588006022b800a4558800a4
:101e6400b55588000002eb00e45a88000080fa00af
:101e74004f03be004f02be004f0078000040060032
:101e84000000fa0000000000000000000000fe0056
:101e94000080fa00004006000000fa001400200050
:101ea4000458880014002000c4588800d602a800f2
:101eb400d622a8000080fa00000006000000fa0004
:101ec4000002eb00045888000002eb00c4588800ac
:101ed400d602a800d622a9000080fa00000006005d
:101ee4001000fa00000f780021479800220798009c
:101ef4003307980044079800550798006607980030
:101f0400770798001e027800ae429000054a7800d8
:101f14001e0278006e039000fe03900016029800e3
:101f2400270298001e0278003ebb9700cebb9700a4
:101f340036029800470298001e037800040020002f
:101f4400e500200054039800650398001e03780000
:101f540004002000e500200074039800050b98009d
:101f64001e027800e4029000540290000400be00b7
:101f7400240a07001e027800c40290003402900074
:101f84000400be00300a07001e027800a40290007c
:101f9400140290000400be001a0a07001e02780012
:101fa40024529000e04f5200060032001e027800d6
:101fb400840a9000740290000400be00110a070015
:101fc400050037001e027800840a90007402900015
:101fd4000400be001c0a07001e027800e402900000
:101fe400540290000400be003a0a07001e02780062
:101ff400c4029000340290000400be00350a0700b9
:102004001e027800a4029000140290000400be0096
:10201400300a07001e027800840a900074029000bf
:102024000400be002b0a07001e027800144078004a
:102034002e039000be0390004e029000de0290003a
:1020440003002a000001eb00f15320000206070000
:102054000080fa00000006000200fa00000f780079
:102064001e027800e4029000540290000400be00b6
:10207400f509070000000000000000000000000057
:10208400000000001e027800e40290005402900058
:102094000400be00db0907000080fa00000006000f
:1020a4001000fa0050079800610798007207980022
:1020b4000042eb00044f78005e029000a4029000fe
:1020c400140290000400be00df0907005e029000c5
:1020d40014427800844078006e009000a90607003e
:1020e4000002be0034079800450798003e039000a4
:1020f400ce0390000400200015112100840f53002a
:10210400858f5b0002003a0014c0b300044f7800ce
:102114001e427800e04f520010003a005e02900028
:1021240014427800844078007e00900095060700f1
:102134000002be0034079800450798003e03900053
:10214400ce0390000400200015112100840f5300d9
:10215400858f5b0001003a001e14a0005e0290000f
:10216400a4029000140290000400be00a509070018
:10217400000000000000000000000000000000005b
:102184005e029000a4029000140290000400be00bd
:10219400ad0907001e427800e04f520012003a00d9
:1021a4005e0290001442780084407800000f200002
:1021b400740607000002be00340798004507980023
:1021c4003e029000140798003e039000ce03900056
:1021d4000400200015112100840f5300858f5b003b
:1021e40001003a001e24a0001e427800e04f520075
:1021f40012003a005e029000144278008440780095
:102204000000eb005f0607000002be0034079800e0
:10221400450798003e029000240798003e03900072
:10222400ce0390000400200015112100840f5300f8
:10223400858f5b0001003a001e34a0005e0290000e
:10224400a4029000140290000400be006d0907006f
:102254009e0290006e029000848f520001003200b2
:102264001e44a000ae0290007e029000848f5200b3
:102274000200320004c2b3001e4f72001e427800f6
:10228400e04f520003003200a45b80000402e80027
:10229400a45b88001e427800044078000080fa00a5
:1022a400000006001400fa00500798006107980027
:1022b40072079800030f9800140f98000042eb0077
:1022c400044f78005e029000a40290001402900073
:1022d4000400be005c0907005e029000144278000e
:1022e400844078006e009000260607000002be00bd
:1022f40034079800450798003e039000ce039000f1
:102304000400200015112100840f5300858f5b0009
:1023140002003a0014c0b300044f78001e42780053
:10232400e04f520010003a005e0290001442780020
:10233400844078007e009000120607000002be0070
:1023440034079800450798003e039000ce039000a0
:102354000400200015112100840f5300858f5b00b9
:1023640001003a001e14a0005e029000a402900036
:10237400140290000400be002209070000000000bf
:102384000000000000000000000000005e02900059
:10239400a4029000140290000400be002a09070061
:1023a4005e02900014427800844078000e08900089
:1023b400f40507000002be003407980045079800a2
:1023c4003e029000140798003e039000ce03900054
:1023d4000400200015112100840f5300858f5b0039
:1023e40002003a0014c0b300044f78001e42780083
:1023f400e04f520012003a005e029000144278004e
:10240400844078001e089000de0507000002be002c
:1024140034079800450798003e029000240798006e
:102424003e039000ce03900004002000151121000b
:10243400840f5300858f5b0001003a001e14a00036
:102444009e0290006e029000848f520001003200c0
:102454001e44a000ae0290007e029000848f5200c1
:102464000200320004c2b3001e4f72005e029000ec
:10247400a4029000140290000400be00e1080700ca
:102484000000000000000000000000000000000048
:102494005e029000a4029000140290000400be00aa
:1024a400e90807001e427800e04f520012003a008b
:1024b4005e0290001442780084407800000f2000ef
:1024c400b00507000002be003407980045079800d5
:1024d4003e029000140798003e039000ce03900043
:1024e4000400200015112100840f5300858f5b0028
:1024f40001003a001e24a0001e427800e04f520062
:1025040012003a005e029000144278008440780081
:102514000000eb009b0507000002be003407980092
:10252400450798003e029000240798003e0390005f
:10253400ce0390000400200015112100840f5300e5
:10254400858f5b0001003a001e34a0005e029000fb
:10255400a4029000140290000400be00a908070021
:102564009e0290000e0a9000848f520001003200f7
:102574001e44a000ae0290001e0a9000848f5200f8
:102584000200320004c2b3001e4f72001e427800e3
:10259400e04f520003003200a45b80000402e80014
:1025a400a45b88001e427800044078000080fa0092
:1025b400000006001000fa006007980071079800f8
:1025c4000042eb00044f78000042eb00644798009f
:1025d400570037006e029000a4029000140290008d
:1025e4000400be00980807006e02900014427800b0
:1025f4006e43900005c3b300854273008582fb00df
:1026040084407800050078005e0507000002be00e3
:1026140044079800550798004e029000140798004c
:102624004e039000de0390000400200015112100e9
:10263400840f5300858f5b0002003a0014c0b3007e
:10264400044f78001e427800e04f520018003a0010
:102654006e02900014427800ee4290008582fb00e6
:10266400858242007e039000850243009502780033
:102674008440780005007800420507000002be008f
:1026840044079800550798004e02900024079800cc
:102694004e039000de039000040020001511210079
:1026a400840f5300858f5b0001003a001e14a000c4
:1026b4006e429000e04f5200150032006e429000ce
:1026c4000482fb008402e900040320000502720076
:1026d400840278001e029000848f520001003200b0
:1026e4001e24a0006e4290000482fb000402e90054
:1026f40004024200fe029000048242009402780028
:102704002e029000848f5200010032001e34a0007b
:102714006e029000a4029000140290000400be0017
:10272400380807006e4290000442e80064479800ad
:102734001e427800e04f520003003a006e429000bf
:10274400e74f5200a3ff36006e029000a4029000ef
:10275400140290000400be003b0807001e427800eb
:10276400e04f520012003a006e02900014427800ca
:1027740084407800000f2000020507000002be001c
:1027840044079800550798004e02900014079800db
:102794004e039000de039000040020001511210078
:1027a400840f5300858f5b0001003a001e04a000d3
:1027b4001e427800e04f520012003a006e02900070
:1027c40014427800844078000000eb00ed04070018
:1027d4000002be0044079800550798004e0290007e
:1027e400240798004e039000de03900004002000ac
:1027f40015112100840f5300858f5b0001003a00fe
:102804001e14a0006e029000a40290001402900016
:102814000400be00fb0707006e4290000482fb0028
:102824008402e90004032000050272008402780097
:102834001e029000848f5200010032001e44a0004a
:102844006e4290000482fb000402e900040242008c
:10285400fe02900004824200940278002e0290004e
:10286400848f52000200320004c2b3001e4f720073
:102874001e427800e04f520003003200b45b800037
:102884000402e800b45b88001e427800044078002b
:102894000080fa00000006000e00fa00000f780025
:1028a400214798003247980023079800340798007e
:1028b4004507980056079800670798001e0278009d
:1028c400ae429000054a78001e027800be42900095
:1028d400154298001e027800ae029000150298007e
:1028e4001e027800144090006033b8003e0290004d
:1028f400ce0290005e019000ee01900001022b00d8
:10290400510507000080fa00000006000e00fa00de
:102914004007980051079800620798004e02900003
:10292400140290008402d1005e029000848f520051
:10293400530036006e0290004822de00044f7800f7
:102944006e029000144798005e0290000402420058
:10295400140798001e0290004822de0044479800a5
:102964001e029000544798004e02900014429000ba
:1029740004407800720507000002780034079800cc
:102984004e02900014429000044078008d05070028
:1029940000027800be02900005027200340798001d
:1029a4004e029000944290004e029000144278002f
:1029b4008540780004407800c405070000027800d0
:1029c400be02900005027200340798004e02900087
:1029d40014429000844078004e409000bb050700ec
:1029e40000027800be0290000502720034079800cd
:1029f4004e02900014429000844078005e409000a3
:102a0400b205070000027800be02900005027200c1
:102a1400340798004e0290001442900084407800dd
:102a24001e409000a905070000027800be02900035
:102a340005027200340798004e0290001442900080
:102a4400844078001e407800a0050700000278004a
:102a5400be02900005027200340798004e029000f6
:102a64001442900004407800080607000002780031
:102a7400be0290000502720034079800020037007d
:102a84000082eb00340798000080fa000000060082
:102a94000c00fa0040079800510798004e0290007d
:102aa400140290008402d1005e029000848f5200d0
:102ab4006c0036005e029000040242001407980085
:102ac4001e0290004822de00444798001e02900037
:102ad400544798004e02900014429000044078003d
:102ae4001705070000027800340798004e02900092
:102af4001442900004407800320507000002780078
:102b0400be02900005027200340798004e02900045
:102b1400944290004e029000144278008540780060
:102b2400044078006905070000027800be029000a6
:102b340005027200340798004e029000144290007f
:102b4400844078004e409000600507000002780041
:102b5400be02900005027200340798004e029000f5
:102b640014429000844078005e40900057050700ae
:102b740000027800be02900005027200340798003b
:102b84004e02900014429000044078002e05070085
:102b940000027800be02900005027200340798001b
:102ba4004e029000944290004e029000144278002d
:102bb4000404a00085407800044078004305070021
:102bc40000027800be0290000502720034079800eb
:102bd4004e029000144290000440780072050700f1
:102be40000027800044f78004e02900014429000d6
:102bf40004407800c605070000027800be02900079
:102c040005027200340798004e02900014429000ae
:102c14000440780064050700000278001447980017
:102c24004e0290001442900004407800da05070038
:102c340000027800be02900005027200340798007a
:102c44004e02900014429000044078008f05070063
:102c540000027800be02900005027200340798005a
:102c6400060037000082eb00340798000042eb00b6
:102c7400044f78000042eb00144798001e42900075
:102c84000482fb00140798001e0290004822dd0015
:102c9400140798009e4278000582fb009e02900073
:102ca40004824200140798001e0290000400780079
:102cb4000080fa00000006001200fa005007980095
:102cc4006107980072079800030f98007e02900035
:102cd400e00f5200640032007e029000f00f5200b8
:102ce4000200360004012000740798005e02900080
:102cf40014029000c522de006e029000848f520000
:102d0400570036006e0290004522dd00240798002b
:102d14002e0290004822de00644798002e029000a4
:102d2400744798005e0290001442900004407800ba
:102d34008304070000027800040f78005e0290000c
:102d440014429000044078009e04070000027800ba
:102d54001e0f72005e029000944290005e0290008a
:102d6400144278008540780004407800d7040700b6
:102d7400000278001e0f72005e0290001442900060
:102d8400844078006e409000d00407000002780070
:102d94001e0f72005e02900014429000844078007e
:102da4007e409000c9040700000278001e0f7200e4
:102db4000002eb00140798001e0037001e0290006a
:102dc400040242008e0a9000048242001402780039
:102dd4004822de00044f98001e02900004024200c4
:102de4008e0a90000482420014027800144f980066
:102df4005e02900014429000844078001e489000c7
:102e0400b2040700000278001e0f72005e029000f8
:102e140014429000844078000e489000ab040700f0
:102e2400000278001e0f72001e0290000402e800e7
:102e3400140798009e0290007e029000848f520036
:102e4400deff39005e0290001442900004407800d6
:102e54000e050700000278001e0f72000200370002
:102e64000082eb00040f78000080fa0000000600e6
:102e74001200fa0050079800610798007207980042
:102e8400030f98007e029000e00f5200cc00320045
:102e94007e029000f00f5200020036000401200070
:102ea400740798005e02900014029000c522de00b0
:102eb4006e029000848f5200bb0036006e029000b8
:102ec4004522dd00240798002e0290004822de00ef
:102ed400644798002e029000744798005e029000a8
:102ee40014429000044078001504070000027800a2
:102ef400040f78005e0290001442900004407800b1
:102f040030040700000278001e0f72005e02900079
:102f1400944290005e02900014427800854078004c
:102f24000440780069040700000278001e0f720054
:102f34005e02900014429000844078006e4090003d
:102f440062040700000278001e0f72005e02900007
:102f540014429000844078007e4090005b04070097
:102f6400000278001e0f72005e029000144290006e
:102f74000440780034040700000278001e0f720039
:102f84005e029000944290005e0290001442780029
:102f94000404a00085407800044078004b04070036
:102fa400000278001e0f72000002eb001407980064
:102fb4003a0037005e02900014429000044078000a
:102fc4007904070000027800044f98005e02900024
:102fd4001442900004407800cd04070000027800f9
:102fe4001e0f72005e0290001442900004407800ac
:102ff4006d04070000027800144f98005e029000f0
:103004001442900004407800c104070000027800d4
:103014001e0f72001e029000040242008e0a9000ed
:10302400848242001e4a90000482fb00840a7800d5
:103034001e029000040242008e0a90008482420024
:103044001e029000040242000e0b90000402430092
:10305400140278004822dd00840a78001e029000e1
:10306400040242008e0a9000848242001e029000f4
:10307400040242000e0b9000040243001403780083
:103084000e4a90000482fb0004024300840a780084
:103094001e0290000402e800140798007e029000cb
:1030a4008402e9001e029000848f5200c1ff3e009a
:1030b4005e02900014429000044078003a04070035
:1030c40000027800044f98005e02900014429000c1
:1030d400044078008e040700000278001e0f72007e
:1030e4005e02900014429000044078002e04070011
:1030f40000027800144f98005e0290001442900081
:1031040004407800a4040700000278001e0f720037
:103114001e029000040242008e0a90008482420043
:103124001e4a90000482fb00840a78001e0290006c
:10313400040242008e0a9000848242001e02900023
:10314400040242000e0b90000402430014027800b3
:103154004822dd00840a78001e0290000402420026
:103164008e0a9000848242001e02900004024200f3
:103174000e0b900004024300140378000e4a9000e2
:103184000482fb0004024300840a78005e0290007b
:1031940014429000044078003c04070000027800c8
:1031a4001e0f7200060037000082eb00040f780047
:1031b4000042eb00044f98000042eb00144f9800cb
:1031c4000080fa00000006001200fa0010079800c0
:1031d4002107980032079800034f9800540798007d
:1031e4006507980076079800070f98000002eb0027
:1031f400040f78001e0390006022b800048bbe0008
:103204001e0290008002eb00250298001e0290002e
:103214008002eb00350298001e029000ae0290007e
:10322400450298001e029000be02900055029800cc
:103234000e4a9000e14f42000d003a001e02900039
:1032440005002800650298001e0290008002eb0031
:10325400750298001e02900005002800050a9800d7
:103264001e0290008002eb00150a98000c00370043
:103274001e02900005002800650298001e029000be
:103284008002eb00750298001e02900005002800e1
:10329400050a98001e0290008002eb00150a9800af
:1032a4001e029000de029000250a98001e02900083
:1032b400ee029000350a98001e029000fe02900073
:1032c400550a98001e0290008e0a9000650a980024
:1032d4001e0290008002eb00750a98001e02900006
:1032e4008002eb00051298001e029000ceba9700ef
:1032f400151298000080fa00000006001000fa0081
:10330400100798002107980032079800034f98008f
:103314005407980065079800760798000002eb00b0
:10332400040f78001e0290008002eb002502980032
:103334001e029000de029000350298001e029000ea
:10334400ee029000450298001e029000fe029000da
:10335400550298001e029000ae029000650298008b
:103364001e029000be029000750298000e4a900062
:10337400e14f42000d003a001e02900005002800b3
:10338400050a98001e0290008002eb00150a9800be
:103394001e02900005002800250a98001e029000d5
:1033a4008002eb00350a98000c0037001e029000e2
:1033b40005002800050a98001e0290008002eb0018
:1033c400150a98001e02900005002800250a98009e
:1033d4001e0290008002eb00350a98000080fa007b
:1033e400000006000400fa00100798001e02900076
:1033f400740390001e029000e40290001e029000ec
:103404001402780006017800850078000400780032
:103414005705070000027800040f78001e02900090
:10342400940a90001e029000040a9000050178009e
:10343400840078001e007800380507000002780038
:10344400040f78001e029000b40a90001e0290003f
:10345400240a900005017800840078001e0078009a
:103464002e05070000027800040f78001e02900069
:1034740024029000e00f520003003a001e02900064
:10348400d4029000050f78001e0290009e0278007e
:10349400150298000080fa00000006000400fa00fb
:1034a400100798001e029000140b90001e0290005a
:1034b400840a90001e029000240290000601780005
:1034c40085007800040078001405070000027800e5
:1034d400040f78001e029000f40290001e02900077
:1034e4006402900005017800840078001e007800d2
:1034f4000a05070000027800040f78001e029000fd
:10350400d40290001e02900044029000050178004d
:10351400840078001e00780015050700000278007a
:10352400040f78001e0290009e0278003502980075
:103534000080fa00000006000400fa00000f780082
:10354400110798001e027800b40290001e02900039
:10355400848f5200030031001e027800b4029000f0
:10356400150798001e027800c40290001e02900005
:10357400848f5200030036001e027800c4029000bb
:10358400150798001e0278009e029000050a780034
:103594000080fa00000006000200fa00000f780024
:1035a4001e027800b40290001e027800240a9000e3
:1035b400848f5200020036001400200001003700fe
:1035c4000002eb00040078000080fa00000006000e
:1035d4000200fa00000f78001e027800b402900086
:1035e4001e027800340a9000848f520002003100d9
:1035f40014002000010037000002eb0004007800f2
:103604000080fa00000006000400fa001007980089
:103614001e029000d40a90001e029000440a9000fa
:103624000001eb008500780004007800bb0407006b
:1036340000027800040f78001e029000640a9000d3
:103644009e0f5200030036001e029000e40a900010
:10365400050f780004f02f009e0252001e02900015
:10366400440a9000848f5200040036001e02900029
:10367400440a90001e0f42000200370004f02f009d
:10368400040f78001e029000340290009e0f520036
:10369400060036001e029000740a90008402e800be
:1036a4001e029000750a9800090037001e0290005f
:1036b400740a9000e00f5200050032001e029000d0
:1036c400740a90008402e9001e029000750a9800b2
:1036d4001e029000f40a90001e0290001412900042
:1036e400848f52000f0039001e029000f40a9000eb
:1036f4001e0290001412900004024200848f5200b3
:10370400060039001e0290001412900004024200c8
:10371400840278001e029000750a980014002000ac
:10372400010037000002eb00040078000080fa007a
:10373400000006000400fa00100798001e02900022
:10374400d40a90001e029000440a90000001eb008d
:1037540085007800040078007004070000027800f7
:10376400040f78001e029000640a90009e0f52001d
:10377400030036001e029000e40a9000050f780052
:103784001e029000440a90009e0f5200040036006e
:103794001e029000440a90001e0f520002003700df
:1037a4000002eb00040f78001e0290003402900027
:1037b4009e0f5200060031001e0290000412900079
:1037c4008402e8001e0290000512980009003700e8
:1037d4001e02900004129000e00f52000500320017
:1037e4001e029000041290008402e9001e02900060
:1037f400051298001e029000841290001e02900090
:1038040014129000848f52000f0039001e029000a1
:10381400841290001e0290001412900004024200d0
:10382400848f5200060039001e029000141290008a
:1038340004024200840278001e02900005129800df
:1038440014002000010037000002eb00040078009f
:103854000080fa00000006001400fa0040479800b7
:1038640031079800420798005307980064079800ae
:1038740075079800060f9800170f98003e029000f5
:10388400f401b300340798000e0b90009e0b9000d7
:10389400463add00ca32de00850272004632dd009f
:1038a4006e019000fe0190000400be00a0f207002b
:1038b4000002be00048fbe0004202000050020008a
:1038c4001e03be00840f5300858f5b0003003e007f
:1038d40014002000345b880032003700348020005c
:1038e400050020001e03be00840f5300858f5b007b
:1038f4000d003e0044002000345b88001e02be0020
:103904004e2bdd004222de0004027300c22ade00d8
:10391400048fbe00be029000e4ff2f000482620008
:10392400340798001f003700f4002200050020002f
:103934001e03be00840f5300858f5b000d003e0004
:1039440004012000345b88001e02be004c2bdd0005
:103954004422de0004027300c42ade00048fbe0089
:10396400be029000d4ff2f00048262003407980046
:103974000c00370004042000345b88001e02be00e3
:103984004a2bdd004622de0004027300c62ade0054
:10399400048fbe00be029000c4ff2f0004826200a8
:1039a40034079800041c2000050020001e03be00fc
:1039b400840f5300858f5b0008003600345b800061
:1039c4004322dd00345b8800be02900034fe2f00e9
:1039d400048262003407980057003700041820005e
:1039e400050020001e03be00840f5300858f5b007a
:1039f40009003600345b80006722b90004027800b5
:103a0400345b8800be02900074fe2f0004826200c2
:103a140034079800480037000414200005002000f3
:103a24001e03be00840f5300858f5b00090036001f
:103a3400345b80006622b90004027800345b88009d
:103a4400be029000b4fe2f00048262003407980086
:103a54003900370004102000050020001e03be00ba
:103a6400840f5300858f5b0009003600345b8000af
:103a74006522b90004027800345b8800be0290001d
:103a8400f4fe2f0004826200340798002a003700f5
:103a9400040c2000050020001e03be00840f530008
:103aa400858f5b0008003600345b80004222dd0015
:103ab400345b8800be02900034ff2f000482620051
:103ac400340798001c00370004082000050020007b
:103ad4001e03be00840f5300858f5b00090036006f
:103ae400345b80006322b90004027800345b8800f0
:103af400be02900074ff2f00048262003407980015
:103b04000d00370004042000050020001e03be0041
:103b1400840f5300858f5b0007003600345b800000
:103b240004024200345b8800be029000b4ff2f0000
:103b34000482620034079800345b80004222dd0076
:103b4400345b88004e429000e14f520004003a007a
:103b54003e029000141188005e0390000611880054
:103b64004e429000e24f520004003a003e029000a0
:103b7400441188005e039000361188000080fa002a
:103b8400000006000c00fa0040079800214f98003e
:103b94000042eb00044f78002e4a9000e14f52009f
:103ba40054003a008500a9004e02900024118800b8
:103bb4000002eb0034079800180037003e02900022
:103bc4000402e80034079800345b8000be029000d1
:103bd400848f52000300360034c0b300044f7800d1
:103be4000e003700051180000404200004826200e6
:103bf400e00f52000300320044c0b300044f7800c9
:103c0400060037000411800062026200e00f5200d7
:103c140002003a0014c0b300044f78001e4278003a
:103c2400e04f5200e5ff3200200037003e029000d2
:103c34000402e80034079800345b8000be02900060
:103c4400848f52000300360034c0b300044f780060
:103c5400160037000511800004042000048262006d
:103c6400e00f52000300320044c0b300044f780058
:103c74000e00370025048000041020000482620036
:103c8400e00f52000300320024c0b300044f780058
:103c9400060037000411800061026200e00f520048
:103ca4000200320024c0b300044f78001e427800a2
:103cb400e14f5200ddff32001e427800e24f520015
:103cc40005003a0024118000050020001407980024
:103cd4002507980007003700040020001511210073
:103ce4001407980025079800445b80000402e8004c
:103cf400445b88002e4a9000e24f52004d003a0087
:103d04008740a9004e029000541188000002eb0085
:103d140034079800180037003e0290000402e800bf
:103d240034079800345b8000be029000848f5200f8
:103d34000300360034c0b300044f78000e0037008f
:103d4400351180000404200004826200e00f520058
:103d54000300320044c0b300044f7800060037006b
:103d64003411800062026200e00f520002003a0047
:103d740014c0b300044f78001e427800e04f520094
:103d8400e5ff3200190037003e0290000402e8000b
:103d940034079800345b8000be029000848f520088
:103da4000300360034c0b300044f78000f0037001e
:103db400351180000404200004826200e00f5200e8
:103dc4000300320044c0b300044f780007003700fa
:103dd400350480000440200004826200e00f520099
:103de4000200320024c0b300044f78001e42780061
:103df400e14f5200e4ff32001e427800e24f5200cd
:103e040005003a00541180000500200014079800b2
:103e14002507980007003700040020001511210031
:103e24001407980025079800545b80000402e800fa
:103e3400545b88001e029000ae0290000400be0095
:103e44000080fa00000006001400fa0040479800c1
:103e540031079800420798005307980064079800b8
:103e640075079800060f9800170f98004e019000f0
:103e7400de0190006e009000fe0090002cf107001f
:103e84000002be00048fbe001e0278004422dd0042
:103e9400945b88006e029000fe02900052cd2d00cb
:103ea400230320000400be0021f107000002be002d
:103eb4001e1f12001e971a000082eb008082eb0086
:103ec4001e0f42005e974a001e03be00140020002d
:103ed40005002000840f5300858f5b0003003e0023
:103ee4002400200005002000048fbe00f4ff2f00f2
:103ef400050020001e03be00840f5300858f5b0065
:103f0400030036002400200005002000048fbe00ba
:103f14004e429000e04f5200030032004e429000a7
:103f2400e14f520004003a00be02900035108800b0
:103f34001e027800241088000080fa0000000600a9
:103f44000600fa00404798000002eb0014079800ae
:103f54004e429000e04f5200030032004e42900067
:103f6400e14f520013003a000002eb00040f780006
:103f74000b0037001e0fe800945b80009e0278005f
:103f8400848f52000600360004a02f001407980006
:103f9400845b80000402e800845b8800050037002d
:103fa400451080000400240004826200e00f5200e7
:103fb400f0ff3a001e029000040078000080fa002e
:103fc400000006000600fa00404798000002eb00db
:103fd400140798004e429000e04f52000300320054
:103fe4004e429000e14f520013003a000602a8002e
:103ff4000002eb00040f78000b0037001e0fe800ee
:10400400945b80009e027800848f52000600360084
:1040140004a02f0014079800845b80000402e800c9
:10402400845b880004003700341080006102620061
:10403400e00f5200f1ff3a001e02900004007800e5
:104044000080fa00000006000600fa0040479800cd
:104054000002eb00140798004e429000e04f52001b
:10406400030032004e429000e14f520013003a0028
:104074000622a8000002eb00040f78000b003700b2
:104084001e0fe800945b80009e027800848f52002b
:104094000600360004a02f0014079800845b8000fb
:1040a4000402e800845b88000400370034108000b8
:1040b40062026200e00f5200f1ff3a001e0290001b
:1040c400040078000080fa00000006000600fa00f0
:1040d40040479800514798000002eb0014079800ed
:1040e4005e429000e04f5200030032005e429000b6
:1040f400e14f520028003a004e4290000482fb0037
:10410400141088000002eb00040f78000c00370044
:104114001e0fe800945b80009e027800848f52009a
:104124000700360004a02f0014079800845b800069
:104134000402e800845b88000000000011003700de
:10414400451080000400240004826200e00f520045
:10415400efff32000b0037001e0fe800945b800075
:104164009e027800848f52000600360004a02f00bf
:1041740014079800845b80000402e800845b8800d4
:10418400050037004510800004002400048262000a
:10419400e00f5200f0ff3a001e0290000400780085
:1041a4000080fa00000006000600fa00404798006c
:1041b4000002eb00140798004e429000e04f5200ba
:1041c400030032004e429000e14f52002b003a00af
:1041d4000662a8000002eb00040f78000c00370010
:1041e4001e0fe800945b80009e027800848f5200ca
:1041f4000700360004a02f0014079800845b800099
:104204000402e800845b880000000000100037000e
:104214003410800068026200e00f5200f0ff3a00a0
:104224000b0037001e0fe800945b80009e027800ac
:10423400848f52000600360004a02f001407980053
:10424400845b80000402e800845b8800040037007b
:104254004410800062026200e00f5200f1ff32005d
:104264001e029000e00f520004003a000510800086
:10427400f40f200004826200140798001e029000cc
:10428400040078000080fa00000006000600fa002e
:10429400404798000002eb00140798004e4290003b
:1042a400e04f5200030032004e429000e14f5200b2
:1042b40013003a000642a8000002eb00040f780045
:1042c4000b0037001e0fe800945b80009e0278000c
:1042d400848f52000600360004a02f0014079800b3
:1042e400845b80000402e800845b880004003700db
:1042f4003410800064026200e00f5200f1ff3a00c3
:104304001e029000040078000080fa0000000600fd
:104314000600fa00404798000002eb00040f780002
:104324000002eb00140798004e429000e04f520048
:10433400030032004e429000e14f520012003a0056
:1043440006a2a9000682a8000b0037001e0fe80091
:10435400945b80009e027800848f52000600360031
:1043640004a02f0014079800845b80000402e80076
:10437400845b8800040037003410800070026200ff
:10438400e00f5200f1ff3a001e0290000400780092
:104394000080fa00000006000600fa00404798007a
:1043a4000002eb00040f78000002eb0014079800f1
:1043b4004e429000e04f5200030032004e42900003
:1043c400e14f520012003a0006a2a8000682a8009b
:1043d4000b0037001e0fe800945b80009e027800fb
:1043e400848f52000600360004a02f0014079800a2
:1043f400845b80000402e800845b880004003700ca
:104404003410800070026200e00f5200f1ff3a00a5
:104414001e029000040078000080fa0000000600ec
:104424001001900090007800010051000000e900a4
:10443400f000b20000000600100190009000780027
:1044440002805000f000b200000006001170a600c7
:104454001a003700e40140009309e800900190003d
:104464001001e800f200b2000310e1001000320075
:10447400100178006a11b800e8014000828141000f
:104484006e8150009219780066014100b2197800db
:10449400b2197800b2197800b21978001001e80056
:1044a400f200b20002087800e60140009309e90036
:1044b400e60140009309e8001170a1000000060025
:1044c4001170a600090037006e81500012187800a0
:1044d40066014100321878003218780032187800ea
:1044e400321878001170a10008003700827f210083
:1044f40002187800020020000218780002187800e0
:104504000218780002187800310037000000060015
:10451400e40140009309e800900190001001e800d4
:10452400f200b2000310e1000e0032001001780026
:104534006a11b800e801400082814100b119780095
:10454400b1197800b1197800b1197800b11978005f
:104554001001e800f200b20002087800e601400011
:104564009309e900e60140009309e8000000060011
:1045740010019000900178000310e10008003a0057
:10458400837f2100831878000300200083187800bb
:104594008318780083187800831878000c0037009b
:1045a4006a11b8006801410000014100b2187800a6
:1045b400b2187800b2187800b2187800b2187800ef
:1045c400100190000201e800f200b200120098000d
:1045d400000006001130a7001300370010019000fe
:1045e400900178000310e1000f0032006a11b80056
:1045f4006801410000014100ee815000b2097800d9
:10460400e6814100b2197800b2197800b219780035
:10461400b21978001130a000100190000201e800e6
:10462400f200b20012009800000006001130a10050
:104634006e8150003009780066014100301978001d
:104644003019780030197800301978001130a00042
:10465400000006000018eb000018eb000018eb0047
:104664000008eb00000006000400fa0010079800a0
:104674001e029000c4029000050f78009e0278008c
:1046840004102400848f52000e003a001e02900091
:104694002402900084007800c0af2000a6fb07002d
:1046a4001e029000340290008400780040b1200083
:1046b400a1fb07004100200060982000a5ef07003f
:1046c40004003700a44d80000402e800a44d8800d3
:1046d400000000000080fa00000006000400fa0058
:1046e400100798001e029000c4029000050f780085
:1046f4001e02780005082400850f520004003200d1
:1047040015082400850f5200050032000800370008
:1047140001202000609820008eef07000800370079
:1047240001202000609820007def0700040037007e
:10473400a44d80000402e800a44d8800000000009d
:104744000080fa00000006000400fa001007980038
:104754001e029000c4029000050f7800f4ff2000b0
:104764001e0f6200a44d80000402e800a44d8800de
:104774000080fa00000006000000fa001400200087
:10478400e45b88000080fa00000006000000fa00e4
:1047940034508000a7588000e6578000954a800076
:1047a400870178000601780085007800c0042000a5
:1047b40081f007000080fa00000006000000fa0003
:1047c4007452800057518000164f8000055b8000b2
:1047d400870178000601780085007800d004200065
:1047e40075f007000080fa00000006000000fa00df
:1047f4000080fa00000006000000fa000080fa00c1
:104804000000060001600100c422b7000000060099
:10481400ca22b70000000600d022b700000006003c
:10482400d622b700000006000000000000000600c9
:10483400e222b70000000600e822b70000000600ec
:1048440000000000000006000080ea000160010092
:10485400c422b60000000600ca22b600000006000a
:10486400d022b60000000600d622b60000000600e2
:104874000000000000000600e222b600000006006e
:10488400e822b60000000600000000000000060058
:1048940001600100c022b70000000600c622b70074
:1048a40000000600cc22b70000000600d222b700a8
:1048b400000006000000000000000600de22b70031
:1048c40000000600e422b70000000600000000001b
:1048d400000006000080ea0001600100c022b6006a
:1048e40000000600c622b60000000600cc22b60076
:1048f40000000600d222b6000000060000000000fe
:1049040000000600de22b60000000600e422b60025
:104914000000060000000000000006000200e000a5
:1049240005003b00020040000800310000002000a8
:10493400782bec000500370002004000030039002a
:10494400f0ff2f00782bec00000037000101b800c5
:104954006218b8000100e00002003200f0ff2f00ee
:10496400782bec00cf10de00010070000000060080
:104974000200e00005003b00020040000800310096
:10498400000020007a2bec000500370002004000f4
:1049940003003900f0ff2f007a2bec0000003700f1
:1049a4000101b8007018b8000100e00002003200f4
:1049b400f0ff2f007a2bec00cc10de000100700019
:0449c40000000600e9
:020000040000fa
:1049c800c4090000a2010000000000000008000067
:1049d800c4010000000000007c0b00000200000081
:1049e80000000000700b0000040000000000000040
:1049f800660b00000600000000000000740b0000b9
:104a08000400000000000000780b00000400000013
:084a1800000000000000000096
:020000040000fa
:104a2000f03fb1000180b10006003500ee0309003f
:104a300000000000403fb1000180b100fbff3d00dd
:104a40001000b000203fb0000200350000800900d7
:084a5000000000000000060058
:020000040000fa
:0200000401f009
:04000000ecbb000055
:020000040000fa
:0200000401f009
:04000400e7ff000012
:020000040000fa
:0200000401f009
:040008004cff0000a9
:020000040000fa
:0200000401f009
:04000c00ffff0000f2
:020000040000fa
:0200000401f009
:04001000ffff0000ee
:020000040000fa
:0200000401f009
:04001400ffff0000ea
:020000040000fa
:0200000401f009
:04001800ffff0000e6
:00000001FF
