:020000040000fa
:080000000001040000000000f3
:020000040000fa
:10000800a00b0000a00b0000a00b0000a00b00003c
:10001800a00b0000a00b0000a00b0000a00b00002c
:10002800a00b0000a00b0000a00b0000300b00008c
:10003800a00b0000a00b0000a00b0000a00b00000c
:10004800a00b0000a00b0000a00b00004808000057
:10005800a00b0000a00b0000a00b0000a00b0000ec
:10006800a00b0000a00b0000a00b0000a00b0000dc
:10007800a00b0000a00b0000a00b0000a00b0000cc
:10008800a00b0000a00b0000a00b0000e210000075
:10009800a00b0000a00b0000a00b0000a00b0000ac
:1000a800a00b0000a00b0000a00b0000a00b00009c
:1000b800ce0a0000a00b0000a00b0000a00b00005f
:1000c800a00b0000a00b0000a00b0000a00b00007c
:1000d800a00b0000a00b0000a00b0000a00b00006c
:1000e800a00b0000a00b0000a00b0000a00b00005c
:0800f800a00b0000a00b0000aa
:020000040000fa
:10010800a00b0000a00b0000a00b0000a00b00003b
:10011800a00b0000a00b0000a00b0000a00b00002b
:10012800a00b0000a00b0000a00b0000300b00008b
:10013800a00b0000a00b0000a00b0000a00b00000b
:10014800a00b0000a00b0000a00b00004808000056
:10015800a00b0000a00b0000a00b0000a00b0000eb
:10016800a00b0000a00b0000a00b0000a00b0000db
:10017800a00b0000a00b0000a00b0000a00b0000cb
:10018800a00b0000a00b0000a00b0000e210000074
:10019800a00b0000a00b0000a00b0000a00b0000ab
:1001a800a00b0000a00b0000a00b0000a00b00009b
:1001b800ce0a0000a00b0000a00b0000a00b00005e
:1001c800a00b0000a00b0000a00b0000a00b00007b
:1001d800a00b0000a00b0000a00b0000a00b00006b
:1001e800a00b0000a00b0000a00b0000a00b00005b
:0801f800a00b0000a00b0000a9
:020000040000fa
:10020000afb920000e7f22000e0188000000000020
:10021000000020000000e000020032000001200089
:10022000200288000c000700c08b22000100200083
:1002300011000700000020000000e0000200320072
:100240000000020000000000fa01020000000000af
:100250000040da000000fe004440a9000004200035
:100260000000e0000300320000002000a001880030
:100270004440a8000000060091018800800078003a
:100280000000eb0015003700e280400032a0b4000f
:100290009101ba00e280400032a0b4009102ba009d
:1002a000e280400032a0b4000002eb00472bde00e9
:1002b000f507b200602ce10004003a000059eb00a1
:1002c0008301e900fdff3e00040037006128e100e2
:1002d000010032000082eb00040007001101ba00a7
:1002e0000200e000e8ff3a00000006003159ba00c1
:1002f0008301e9000c0032002159ba008301e900b2
:10030000080032000400e00003003a00e2804000f0
:1003100032a0b400f5ff370011d9ba008301e9001b
:10032000faff3a008100e800e180400032a0b4000a
:10033000000006006022b800060220000000d00085
:100340008180d2000482d2008582d2000000a00009
:100350000202520083825a0003003100020242006e
:1003600083824a000000a1000603e900f3ff3a007f
:040370000000060083
:020000040000fa
:100374000000000000800000000000000080000079
:100384000000000000800000000000000080000069
:100394000000000000800000000000000080000059
:1003a4000000000000800000000000000080000049
:1003b4000000000000000000000000000000000039
:1003c4000000000000000000000000000000000029
:1003d4000000000000000000000000000000000019
:1003e4000000000000000000000000000000000009
:020000040000fa
:1003f4000000fa00a4002000545b880001000700fc
:10040400feff37000000fa00545b80006123b8004f
:1004140064ff2f00f5ff2f000602420087824a0086
:100424002603200007002000860f5200878f5a0001
:10043400ca003e000460010032003700c7003700e4
:10044400c6003700c5003700c4003700c3003700ba
:10045400c2003700c1003700c0003700bf003700ba
:1004640030003700bd003700bc003700bb00370048
:10047400ba003700b9003700b8003700b7003700ba
:10048400b6003700b500370036003700b300370038
:10049400b2003700b1003700b0003700af003700ba
:1004a400ae003700ad003700ac003700ab003700ba
:1004b4003d003700a9003700a8003700a700370027
:1004c400a60037005a003700a4003700a300370005
:1004d400a2003700a1003700580037009f00370002
:1004e4009e0037009d0037009c00370077003700de
:1004f4009a003700990037009800370097003700ba
:100504008400370062010700d60207008849a8006a
:100514008809a8008969a90044012000545b880067
:1005240091003700cf0207008809a8008969a90053
:10053400080037008e00070086040700444c800042
:1005440064026200e00f520002003a00e40120005d
:10055400545b8800545b8000f40f5200f5ff3200b6
:1005640081003700bf0207008809a8008969a90033
:10057400090037007e00070076040700a5168000f6
:100584000410200004826200e00f520002003a00ce
:1005940084022000545b8800545b8000fe0f5200ec
:1005a400f4ff3200700037009b0207008809a8009e
:1005b4008969a9000002eb00e45b8800170037009a
:1005c4006b00070063040700e55b8000341f200014
:1005d400848f520002003600d4022000545b88004d
:1005e400e55b8000341f2000848f52000b0036002e
:1005f400454c80000410200004826200e00f520089
:100604000300320024032000545b880003003700f9
:1006140074032000545b88008ae9a800555b8000bd
:1006240084022000848f5200e5ff32004e00370020
:1006340024032000545b88004b003700a49820005a
:100644008002eb00050a78008809a9008969a900dd
:1006540019003700460007003e040700d45b800001
:10066400e00f52000200320074032000545b880043
:10067400745b8000e00f52000f00320040b0200095
:100684004f0d0700c0b120004d0d0700f458800045
:100694003558800033032000050178002103200031
:1006a400009d20001c0b07000002eb00845b880007
:1006b4000002eb00745b8800555b8000240320007b
:1006c400848f5200e3ff32002700370065020700e1
:1006d4008809a8008969a8000002eb00f45b88007f
:1006e40007003700220007001a040700f45b8000ab
:1006f400e90f520002003600c4032000545b880056
:10070400555b800074032000848f5200f5ff320093
:1007140015003700530207008809a8008969a8005a
:1007240009003700120007000a040700a51680001c
:100734000410200004826200e00f52000200320024
:1007440044012000545b8800555b8000c4032000f2
:10075400848f5200f3ff320003003700c4032000eb
:10076400545b8800000000000080fa0000000600ce
:100774000000fa00350480000404200004826200b2
:10078400e00f5200c000320086c0a900444c800033
:1007940061026200e00f520002003200e982a90007
:1007a40001003700e982a800555b80008402200024
:1007b400848f520009003a00e45b80000402e800e0
:1007c400e45b8800e55b8000341f2000848f5200c6
:1007d40002003600441f2000e45b880015168000e8
:1007e4000400280004826200e00f5200020032007c
:1007f4008909a800010037008909a9000002eb005b
:10080400d45b8800444c800062026200e00f520016
:10081400030032008b09a80014002000d45b880078
:10082400a51680000400280004826200e00f520034
:1008340002003a008949a800010037008949a9004b
:10084400a51680000410200004826200e00f52000c
:10085400020032008989a800010037008989a900b3
:10086400555b800074032000848f520008003a0016
:10087400f45b80000402e800f45b8800f45b800011
:10088400e90f520002003600a4002000f45b880047
:10089400555b800024032000848f52000400320042
:1008a400555b800074032000848f520038003a00a6
:1008b400a51680000400220004826200e00f5200aa
:1008c400030032008a09a80014002000d45b8800c9
:1008d400a51680000400280004826200e00f520084
:1008e40003003a008a49a80014002000d45b880061
:1008f400a51680000400240004826200e00f520068
:10090400030032008a69a80014002000d45b880028
:10091400a51680000420200004826200e00f52002b
:10092400030032008a89a80014002000d45b8800e8
:10093400a51680000440200004826200e00f5200eb
:10094400030032008aa9a80014002000d45b8800a8
:10095400a51680000400210004826200e00f52000a
:10096400030032008ac9a80014002000d45b880068
:10097400a51680000410200004826200e00f5200db
:10098400030032008a29a80014002000d45b8800e8
:10099400409e2000b80c070080a02000b60c070081
:1009a400c0a22000b40c070000a52000b20c070070
:1009b400544f8000444b880074508000544b88008e
:1009c40094518000644b8800b4528000744b8800ba
:1009d400945b8000844b8800a45b8000944b880067
:1009e400b45b8000a44b8800e4588000b44b8800ba
:1009f400545b8000c44b8800845b80000402e800e0
:100a0400845b8800555b800024032000848f52009f
:100a14000c00320040b02000690c0700c0b1200077
:100a2400670c0700f4588000355880003303200019
:100a34000501780021032000009d2000360a0700ec
:100a440011003700855b8000740c2000848f5200f5
:100a54000d0036000002eb00845b880040b02000eb
:100a6400570c0700c0b12000550c0700f458800053
:100a7400355880003303200005017800210320004d
:100a8400009d2000240a07000080fa0000000600f0
:100a94000200fa00a49820008002eb00050a780006
:100aa400849820008002eb00050a78000002eb0025
:100ab400644c88000002eb00744c88000002eb00d8
:100ac400044d88000002eb00f44c880094002000e0
:100ad400144d8800340580000400a0000410a00018
:100ae4000420a000340588008260a900c4048000aa
:100af40004c0a10004d0a00004e0a000c404880045
:100b0400a404800004c0a00004d0a10004e0a0005c
:100b1400a404880004602f0004168800b4072f0082
:100b240034168800240020006416880004702f0006
:100b340094168800341c2000f4168800c4002c008d
:100b4400241788000002eb00040888008460a900d0
:100b5400d4f9250024088800440d2300e408880003
:100b64000002eb00c408880086c0a900d4f92d0057
:100b7400040988002400200045002000849fbe0052
:100b840006002800c7002000045a22006502200045
:100b9400026829008309200011c0b300009d2000d1
:100ba400ec080700e487570016c0b30001cab3007d
:100bb40004a82100650020000268290083092000a0
:100bc40000002200fa050700f2040700f4ff2700e2
:100bd400841f78008083eb00060028008002eb006d
:100be4000082eb0033c0b3000001eb000148200099
:100bf400409e2000450b07008f87e900f4ff270083
:100c0400841f78008083eb00060028008002eb003c
:100c14000082eb0053c0b3000001eb000148200048
:100c240080a02000390b07008f87e900f4ff27001c
:100c3400841f78008083eb00060028008002eb000c
:100c44000082eb0063c0b3000001eb00d16620001a
:100c5400c0a220002d0b07008f87e9004406200066
:100c6400841f78008083eb00060028008002eb00dc
:100c740084ea2d0043c0b3000271220001c82000a1
:100c840000a52000210b07008f87e900f4ff27004f
:100c9400841f78008083eb0006002800052c2100c7
:100ca40004452100d3c0b3000001eb000120200063
:100cb40040a72000150b07008f87e900f4ff2700e9
:100cc400841f78008083eb0006002800458a2300f7
:100cd400c4c82300e3c0b3000001eb00214020009e
:100ce40080a92000090b07008f87e900f4ff270083
:100cf400841f78008083eb0006002800458a2300c7
:100d0400c4c82300f3c0b3000001eb0001102000ad
:100d1400c0ab2000fd0a07008f87e900f4ff27001d
:100d2400841f78008083eb000600280005e027007c
:100d340004202800c3c0b3000001eb00010021001f
:100d440000ae2000f10a07008f87e9000003eb00e2
:100d540085bb200084a3240023c0b3000001eb0062
:100d640081f6220040b02000480b07000003eb008e
:100d740085bb200084a3240033c0b3000001eb0032
:100d840081f62200c0b12000400b07000003eb00f5
:100d94008002eb00047122008041eb000001eb00b3
:100da4005155250040b32000380b07000003eb0029
:100db4008002eb000082eb0080c1eb000001eb003d
:100dc40001002100c0b42000300b070081bb2000cb
:100dd40040b32000cf0b070001002800c0b420005e
:100de400cc0b070014002000c45988001400200014
:100df400845a880040b32000710b0700c0b420005f
:100e04006f0b0700745a8000b5598000130320004b
:100e14000501780001032000009d20003e09070021
:100e2400f4cf270004158800e4fd2600141588007b
:100e340074f8200044158800343e2e0034158800d0
:100e440034f52f002415880004002f005415880061
:100e54008560a9008d60a800a1e2a8000002eb0053
:100e6400040f7800260037003a020700350480009a
:100e74000404200004826200e00f520002003200e9
:100e840086c0a9001e0fe8001e0278004422de007e
:100e940063026200050020003600200007002000e5
:100ea400860f5200878f5a0015003e00046001002f
:100eb4000300370006003700090037000c00370034
:100ec400c4e2a800e982a800e9a2a8000c00370047
:100ed400c4e2a900e982a800e9a2a800080037003a
:100ee400c4e2a900e982a900e9a2a800040037002d
:100ef400c4e2a900e982a900e9a2a9000000000057
:100f0400041920009e027800848f5200d6ff360018
:100f1400c4e2a90040a72000570b070080a92000c5
:100f2400550b0700c0ab2000530b070000ae200098
:100f3400510b07001456800085a923000482520037
:100f44000001eb0001802200040078007410070007
:100f54000002780085562c000502420014568800d1
:100f64008869a900d4538000044c8800f45480009c
:100f7400144c880014568000244c88003457800098
:100f8400344c8800a1e2a90084072000541588008d
:100f940084442e00241588008560a9008d60a80073
:100fa400a1e2a800301320009e050700000278008b
:100fb400644e88001132210030132000140507000c
:100fc400000000000000000000000000000000001d
:100fd400000000000000000000000000000000000d
:100fe40000000000000000000000000000000000fd
:100ff40000000000000000000000000000000000ed
:1010040000000000000000000000000000000000dc
:101014000080fa00000006000000fa00140020001e
:10102400445888001400200004598800d602a800ff
:10103400d622a90005e1a900449c200014088800d8
:101044000002eb00040888008460a9008c60a800fa
:1010540005e1a8008880a9009080a8000080fa001b
:10106400000006000000fa000002eb00445888006b
:101074000002eb00045988009080a900d602a90060
:10108400d622a8000080fa0000000600801f780025
:10109400849fbe00869fbe000000fa008560a90000
:1010a400345b8000e00f5200030032000002eb00ca
:1010b400345b8800330137001515800004082000d4
:1010c40004826200e00f520055003200545b80003d
:1010d400ea0f520029003a00065780001757800093
:1010e400051480004414800004824200050020009e
:1010f4000602420087824a00045788001557880078
:10110400a6538000b7538000151480005414800047
:1011140004824200050020000602420087824a0041
:10112400a4538800b5538800c6548000d754800067
:10113400251480006414800004824200050020000d
:101144000602420087824a00c4548800d5548800ad
:10115400e6558000f7558000351480007414800033
:1011640004824200050020000602420087824a00f1
:10117400e4558800f55588007d003700264f80002f
:10118400374f80000514800044148000048242001c
:10119400050020000602420087824a00244f88008e
:1011a400354f8800865280009752800015148000c5
:1011b400541480000482420005002000060242000c
:1011c40087824a00845288009552880046508000e5
:1011d400575080002514800064148000048242006b
:1011e400050020000602420087824a00445088001d
:1011f4005550880066518000775180003514800076
:10120400741480000482420005002000060242009b
:1012140087824a0064518800755188005400370061
:10122400545b8000ea0f520029003a000657800000
:101234001757800085148000c41480000482420083
:10124400050020000602420087824a0004578800f5
:1012540015578800a6538000b7538000951480006a
:10126400d4148000048242000500200006024200db
:1012740087824a00a4538800b5538800c65480006e
:10128400d7548000a5148000e41480000482420036
:10129400050020000602420087824a00c4548800e8
:1012a400d5548800e6558000f7558000b5148000b9
:1012b400f41480000482420005002000060242006b
:1012c40087824a00e4558800f555880028003700d5
:1012d400264f8000374f800085148000c41480009e
:1012e40004824200050020000602420087824a0070
:1012f400244f8800354f8800865280009752800022
:1013040095148000d414800004824200050020005b
:101314000602420087824a0084528800955288005f
:101324004650800057508000a5148000e4148000cb
:1013340004824200050020000602420087824a001f
:1013440044508800555088006651800077518000d1
:10135400b5148000f41480000482420005002000cb
:101364000602420087824a00645188007551880051
:10137400245b80000482e800245b8800255b8000f5
:10138400f4072000848f52007e003600545b8000f6
:10139400ea0f52003d003a000457800015578000c0
:1013a4004d2bdd004322de0004027300c32ade005d
:1013b400045788001557880004578000155780008b
:1013c40004027800245788006022b800045788007b
:1013d40015578800a4538000b55380004d2bdd00c1
:1013e4004322de0004027300c32ade00a4538800f3
:1013f400b5538800a4538000b553800004027800dc
:10140400c45388006022b800a4538800b5538800f0
:10141400c4548000d55480004d2bdd004322de00ef
:1014240004027300c32ade00c4548800d554880023
:10143400c4548000d554800004027800e454880029
:101444006022b800c4548800d5548800e455800054
:10145400f55580004d2bdd004322de0004027300ad
:10146400c32ade00e4558800f5558800e455800061
:10147400f555800004027800045688006022b80004
:10148400e4558800f55588003c003700244f80005f
:10149400354f80004d2bdd004322de000402730033
:1014a400c32ade00244f8800354f8800244f800073
:1014b400354f800004027800444f88006022b80051
:1014c400244f8800354f8800845280009552800054
:1014d4004d2bdd004322de0004027300c32ade002c
:1014e400845288009552880084528000955280006e
:1014f40004027800a45288006022b8008452880054
:101504009552880044508000555080004d2bdd00da
:101514004322de0004027300c32ade004450880024
:1015240055508800445080005550800004027800d3
:10153400645088006022b8004450880055508800e8
:1015440064518000755180004d2bdd004322de0084
:1015540004027300c32ade006451880075518800b8
:101564006451800075518000040278008451880021
:101574006022b80064518800755188000002eb00b5
:10158400245b88000080fa004f03be004f02be00b7
:101594004f00780000400600841f78000000fa0025
:1015a400d602a90005e1a9000002eb0004088800a6
:1015b400441f20001408880005e1a8008460a900e5
:1015c400745b8000e00f520003003200a45b8000d3
:1015d4000402e800a45b88006404800068026200de
:1015e400e00f520003003200b45b80000402e80004
:1015f400b45b88008c60a900000000002404800013
:1016040068026200e00f5200fcff3200d602a8001c
:1016140005e1a9000002eb00040888008460a90029
:101624008c60a800449c20001408880005e1a800f0
:1016340014002000745b880014002000345b8800d0
:10164400945b80000402e800945b88008880a90011
:101654000080fa004f027800004006003600f800cf
:10166400809fbe00829fbe00849fbe00869fbe00f6
:101674000000fa008460a9008c60a90005e1a900bb
:10168400151680000400280004826200e00f520056
:1016940023003a002003200001002000cb0e0700a5
:1016a400151680000400280004826200e00f520036
:1016b4001b003a002003200001002000c30e070095
:1016c400151680000400280004826200e00f520016
:1016d40013003a002003200001002000bb0e070085
:1016e400151680000400280004826200e00f5200f6
:1016f4000b003a002003200001002000b30e070075
:10170400151680000400280004826200e00f5200d5
:1017140003003a00445b80000402e800445b880054
:101724000080fa004f03be004f02be004f01be000e
:101734004f00be003600f900004006000000fa0029
:1017440000000000000000000000fe000080fa001d
:10175400004006000000fa001f000700e300070035
:10176400d7010700e5010700144e8000e44a880011
:10177400e54a8000e44d800004824200e44a880087
:10178400e54a8000f44d800004824200e44a880067
:10179400e54a8000044e800004824200e44a880046
:1017a400e54a8000c44d800004824200e44a880077
:1017b400e54a8000b44d800004824200e44a880077
:1017c400e54a8000a44d800004824200e44a880077
:1017d4000080fa00000006000a00fa001e0037002c
:1017e4008e007800408020007b0d07009e02780068
:1017f400840720008482620004022000848f520047
:1018040004003200c44d80000402e800c44d880086
:10181400110037009e027800044a2100848f520090
:1018240003003a000e007800160007000a00370093
:101834009e02780004622100848f520003003a0063
:101844000e0078006800070003003700a44d8000f4
:101854000402e800a44d880040802000100d070019
:1018640000027800e00f5200ddff3a00944580004a
:10187400e44d880054408000f44d88000080fa0054
:10188400000006000400fa00100798001e029000f1
:10189400c4029000050f780004002f009e0262002d
:1018a40004002400848f520004003200b44d8000f0
:1018b4000402e800b44d88001a003700f4ff200049
:1018c4001e0f6200f40f20009e027800848f5200e5
:1018d40003003e001e0090001400070011003700b2
:1018e400f41f20009e027800848f520003003e0003
:1018f4001e009000240007000a003700f43f200077
:101904009e027800848f520003003e001e00900067
:10191400b50d070003003700b44d80000402e80051
:10192400b44d88000080fa00000006000400fa00ac
:10193400100798001e029000c4029000050f780062
:10194400f4ff20001e0f62001e027800e10f520017
:1019540003003200e30f520003003200040037009a
:101964000000fe0006003700b2090700040037003b
:10197400b44d80000402e800b44d8800000000006b
:101984000080fa00000006000400fa001007980026
:101994001e029000c4029000050f7800f4ff20009e
:1019a4001e0f62001e029000140290008400780052
:1019b4001e007800960207001e029000a402900008
:1019c4001e02e800850078000400780090020700f9
:1019d4000000000000000000000000000000000003
:1019e4000080fa00000006000e00fa00600798006c
:1019f4006e029000c4029000050f780004002f00ce
:101a04009e02620004002400848f5200040032000d
:101a1400b44d80000402e800b44d88002e00370065
:101a2400f4ff20001e0f6200f48f20009e02780055
:101a3400848f520004003600f49f20009e02780038
:101a4400848f520004003600b44d80000402e80084
:101a5400b44d88002000370004802f001e0f420080
:101a640044022a00140798006e029000c4029000f9
:101a740004802f0004824200540798000002eb0007
:101a8400440798001e02e80004007800e5020700fd
:101a940000027800340798001e007800e102070075
:101aa40000027800240798000000000000000000f5
:101ab400000000000e82e80084007800c08a200044
:101ac400ad0c0700741b800068026200e00f520036
:101ad40001003a008760a8000080fa0000000600b8
:101ae4000000fa000080fa00000006000000fa007e
:101af400250480000404200004826200e00f5200e8
:101b0400a000320084c0a900044080000402e80060
:101b140004408800044080006f0262000440880092
:101b24009a0007000440800005002000f600200011
:101b340007002000860f5200878f5a0091003e0054
:101b4400046001000f00370018003700210037003f
:101b54002a003700330037003c00370045003700c7
:101b64004e00370057003700600037006900370027
:101b7400720037007b0037007c0037007d0037009f
:101b84007e003700f44a8000e74a8000d64a80008d
:101b9400c54a800087017800060178008500780036
:101ba4000000eb008e00070076003700249620002a
:101bb40014037800054b80000002eb008001eb0069
:101bc40006017800850078001000200084000700da
:101bd4006c003700744b8000674b8000564b8000cc
:101be400454b800087017800060178008500780065
:101bf400200020007a00070062003700b44b800008
:101c0400a74b8000964b8000854b800087017800ad
:101c1400060178008500780030002000700007007d
:101c240058003700f44b8000e74b8000d64b80000f
:101c3400c54b800087017800060178008500780094
:101c440040002000660007004e003700344c80003e
:101c5400274c8000164c8000054c800087017800da
:101c64000601780085007800500020005c00070021
:101c740044003700544d8000474d8000364d8000ad
:101c8400254d8000870178000601780085007800e2
:101c940080002000520007003a003700944d800075
:101ca400874d8000764d8000654d80008701780067
:101cb40006017800850078009000200048000700a5
:101cc40030003700d44d8000c74d8000b64d8000f1
:101cd400a54d800087017800060178008500780012
:101ce400a00020003e00070026003700144e8000ac
:101cf400074e8000f64d8000e54d80008701780096
:101d04000601780085007800b00020003400070048
:101d14001c003700d44c8000c74c8000b64c8000b7
:101d2400a54c8000870178000601780085007800c2
:101d3400600020002a00070012003700144d8000c4
:101d4400074d8000f64c8000e54c80008701780048
:101d5400060178008500780070002000200007004c
:101d640008003700bb0c070006003700c50c07004d
:101d740004003700cf0c070002003700d00c070026
:101d8400000000000080fa00000006000a00fa00cb
:101d940044822a00040f78008498200014027800fa
:101da40014079800a49820001402780024079800cf
:101db400644c800034079800744c800044079800f9
:101dc400e13520000e007800320c0700444d8000fd
:101dd4000402e800444d88000080fa000000060078
:101de4001400fa00500798006107980072079800e1
:101df400030f9800140f98005e0290006f026200b7
:101e040054079800de0290000404200005027200ca
:101e1400540798005e0290000402420054079800a0
:101e2400de0290000460200005027200540798004e
:101e34005e0290004222dd00540798005e0290008a
:101e4400040f78009e02780004f02f0004826200e0
:101e5400040f78001e0278004322dd00040f78008e
:101e64009e0278005e039000f40f200004026300d9
:101e740005027200040f78001e0a900014079800ef
:101e84000e0a9000240798007e0290003407980000
:101e94006e029000440798008e007800c08a2000eb
:101ea400b50b0700741b800068026200e00f52004b
:101eb40001003a008760a8000080fa0000000600d4
:101ec4000000fa0025048000040820000482620057
:101ed400e00f52000700320084e0a900144e800095
:101ee4000402e800144e8800144e8000c45c88008c
:101ef4008829a8000080fa00000006000000fa000b
:101f040014408000e00f520005003a00444c800069
:101f140061026200e00f5200010032009bff0700e3
:101f2400444c8000614262000482fb00144088003b
:101f34000080fa00000006000200fa00000f78009a
:101f4400449c20009e02780095029000050a7800c7
:101f54001e027800a4029000449c20001502980000
:101f64001e027800b4029000449c200025029800d0
:101f7400449c20008082eb00350298000060fe0043
:101f84008829a9000002eb00540888000080fa00a8
:101f9400000006000000fa00043a800061026200ba
:101fa400e00f520004003a00043a8000620262002a
:101fb400e00f5200050032000002eb00b45c880020
:101fc4000002eb00c45c880003003700b45c8000ae
:101fd4000402e800b45c8800449c20008002eb000a
:101fe400050a7800449c2000150020001502980082
:101ff400449c20002500200025029800449c2000d9
:1020040035002000350298004007a9004027a900a8
:1020140040c7a90040e7a90041e7a9004087a900fb
:1020240041c7a900b45c8000044b8800c45c8000f4
:10203400144e88008f60a9008760a9000405800001
:1020440004c0a10004d0a10004e0a000040588009d
:102054000002eb00b41c88009803a8009823a80091
:102064009843a80098a3a80040802000930b070081
:10207400c08a2000910b070004402000841c8800c3
:1020840000000000851c8000040e20008482620091
:1020940004082000848f5200faff3a001400200044
:1020a400941c880014392000a41c8800148021008a
:1020b40084198800d4872100c41988000002eb0029
:1020c40004188800048020004418880004022100b9
:1020d40084188800c47f2100c4188800c47f2100ac
:1020e40004198800c47f21004419880014002000ca
:1020f400741b880024002000f41a88003400200097
:10210400741a8800040c2000241b8800040c20008e
:10211400a41a8800040c2000241a88000002eb0092
:10212400741c88000002eb00f41b88000002eb0022
:10213400841c880000000000851c8000040e200020
:1021440004826200e00f5200fbff3a008f60a80097
:1021540054fb25008408880024f4200064088800c7
:102164000002eb003408880084c0a9008cc0a900d8
:1021740011e1a800d4fb25009408880054622200d1
:102184007408880084e0a9008ce0a90013e1a80089
:102194000002eb00a44c8800c4e52800b44c88007d
:1021a4000002eb00c44c880014042000d44c8800c6
:1021b40044062000e44c88000080fa000000060079
:1021c4003600f800809fbe00829fbe00849fbe0040
:1021d400869fbe00889fbe004400f8004200f800bd
:1021e4000a00fa008760a900944d80000402e80008
:1021f400944d8800751c800004082000048262004d
:10220400e00f520024003200741c8000610262005e
:10221400e00f52000f003a00644d80000402e80011
:10222400644d8800e13820000e0078002802800008
:1022340019028000bc0a07001902880028028800dd
:102244003e029000a44a88004e029000b44a8800de
:1022540010003700744d80000402e800744d8800bb
:10226400e13820000e007800280280001902800066
:10227400ad0a070019028800280288000e007800c1
:1022840028028000190280002bff07001902880031
:10229400280288009603a900f51b8000040820008a
:1022a40004826200e00f52000b003200844d800073
:1022b4000402e800844d8800e137200040802000bb
:1022c40028028000190280007a0a07001902880097
:1022d400280288009623a900741b8000680262000b
:1022e400e00f520014003a00c08a20002802800047
:1022f400190280006a0a070019028800280288006f
:1023040000027800e00f52000b003200e13620009a
:10231400c08a20002802800019028000c70a070032
:1023240019028800280288009643a900d44d800031
:102334000402e800d44d8800b51c8000040220008b
:1023440004826200e00f520005003200344d800028
:102354000402e800344d880096a3a9000800370061
:10236400451780000400220004826200e00f52003e
:1023740002003200e9a2a90001003700e9a2a80086
:10238400d41c8000244d88000080fa004200f9002b
:102394004400f9004f04be004f03be004f02be00cc
:1023a4004f01be004f00be003600f9000040060099
:1023b4000c00fa00000f7800120798002307980019
:1023c4003407980045079800214f9800364f98002d
:1023d4002e48900092ebb7003e48900093ebb70074
:1023e4001e027800a45c880093cbbf006033b80061
:1023f4001e029000ae0290003e019000ce019000bb
:1024040001022b00aa0807000080fa000000060061
:102414001000fa006007980071079800a45c80001f
:102424008402d1006e029000848f5200790036003d
:102434007e0290004822de00644798007e029000ed
:10244400744798006e02900004024200440798000a
:102454004e0290004822de00244f98004e02900065
:10246400344f980014002000040f780034b9200081
:102474001442780004407800cb080700000278007a
:10248400040f780034b92000144278000440780026
:10249400e6080700000278001e0f720035b920001c
:1024a4009542780024b920001442780085407800d1
:1024b400044078001f090700000278001e0f720014
:1024c400441080004f22de00044278000482fb00a6
:1024d400240798000002eb0014079800230037003b
:1024e40034b92000144278000440780081090700c0
:1024f400000278001e0f720034b9200014427800e4
:1025040004407800a808070000027800040f78004f
:1025140034b920001442780004407800c30807004e
:10252400000278001e0f720035b920009542780031
:1025340024b92000144278008540780004407800d3
:10254400fc080700000278001e0f7200441080008f
:102554004f22de00044278000482fb002407980026
:102564001e0290000402e800140798002e02900056
:10257400e00f5200040032009e029000840c200000
:10258400848f5200d6ff360034b9200014427800fc
:10259400844078002e489000e60807000002780086
:1025a4001e0f720034b92000144278008440780071
:1025b4003e489000df080700000278001e0f7200fa
:1025c40034b9200014427800844078007e409000a2
:1025d400d8080700000278001e0f720034b92000ea
:1025e40014427800844078006e409000d1080700bf
:1025f400000278001e0f720034b9200014427800e3
:10260400044078003b090700000278001e0f7200a6
:10261400020037000082eb00040f78000080fa000b
:10262400000006000e00fa0060079800a45c800019
:102634008402d1006e029000848f52008c00360018
:102644006e02900004024200440798004e0290007b
:102654004822de00244f98004e029000344f980028
:1026640034b9200014427800044078004e08070072
:1026740000027800040f780034b920001442780076
:102684000440780069080700000278001e0f7200f9
:1026940035b920009542780024b92000144278000e
:1026a4008540780004407800a20807000002780002
:1026b4001e0f7200441080004f22de000442780096
:1026c4000482fb00340798000002eb002407980002
:1026d4002300370034b92000144278000440780005
:1026e40004090700000278001e0f720034b92000ac
:1026f40014427800044078002b0807000002780098
:10270400040f780034b920001442780004407800a3
:1027140046080700000278001e0f720035b9200039
:102724009542780024b9200014427800854078004e
:10273400044078007f080700000278001e0f720032
:10274400441080004f22de00044278000482fb0023
:10275400340798002e0290000402e8002407980031
:102764003e029000e00f520004003200ae029000de
:10277400840c2000848f5200d6ff360034b9200028
:1027840014427800844078002e48900069080700bd
:10279400000278001e0f720034b920001442780041
:1027a400844078003e4890006208070000027800e8
:1027b4001e0f720034b920001442780004407800df
:1027c4003b080700000278001e0f720035b9200094
:1027d4009542780024b92000144278000404a00033
:1027e4008540780004407800520807000002780011
:1027f4001e0f720034b9200014427800044078009f
:1028040083080700000278002447980034b92000a8
:102814001442780004407800d708070000027800ca
:102824001e0f720034b9200014427800044078006e
:1028340077080700000278003447980034b9200074
:102844001442780004407800ed0807000002780084
:102854001e0f720034b9200014427800044078003e
:10286400a4080700000278001e0f7200060037005b
:102874000082eb00040f78000042eb00244798002c
:102884000042eb00344798003e4290000482fb0073
:10289400440798004e0290004822dd004407980047
:1028a4002e4290000482fb00ce029000048242007b
:1028b400440798004e029000040078000080fa005b
:1028c400000006001400fa0070079800010f980039
:1028d400120f98000e0a9000e00f5200950032008b
:1028e4000e0a9000f00f520002003600040120008e
:1028f400040f9800a45c8000c522de007e029000d4
:10290400848f5200890036007e0290004522dd004b
:10291400440798004e0290004822de00244f98009d
:102924004e029000344f980034b9200014427800cd
:10293400044078009c07070000027800040f780028
:1029440034b920001442780004407800b707070027
:10295400000278001e0f720035b9200095427800fd
:1029640024b920001442780085407800044078009f
:10297400f0070700000278001e0f72004410800068
:102984004f22de00044278000482fb0034079800e2
:102994000002eb00240798002300370034b920001c
:1029a40014427800044078005208070000027800be
:1029b4001e0f720034b920001442780004407800dd
:1029c4007907070000027800040f780034b920006a
:1029d400144278000440780094070700000278004d
:1029e4001e0f720035b920009542780024b92000ea
:1029f400144278008540780004407800cd07070031
:102a0400000278001e0f7200441080004f22de0086
:102a1400044278000482fb00340798002e029000e0
:102a24000402e800240798003e029000e00f5200e0
:102a340004003200ae029000840c2000848f520007
:102a4400d6ff360034b92000144278008440780060
:102a54002e489000b7070700000278001e0f72008e
:102a640034b9200014427800844078003e48900035
:102a7400b0070700000278001e0f72000002eb008e
:102a8400140798001e0037001e0290000402420042
:102a94009e0a900004824200140278004822de005c
:102aa400444f98001e029000040242009e0a9000c7
:102ab4000482420014027800544f980034b9200074
:102ac40014427800844078005e489000990707001b
:102ad400000278001e0f720034b9200014427800fe
:102ae400844078004e489000920707000002780066
:102af4001e0f72001e0290000402e80014079800e2
:102b04009e0290000e0a9000848f5200deff39006e
:102b140034b920001442780004407800f507070017
:102b2400000278001e0f7200020037000082eb00e2
:102b3400040f78000080fa00000006001400fa0078
:102b440070079800010f9800120f98000e0a900069
:102b5400e00f5200fd0032000e0a9000f00f520008
:102b64000200360004012000040f9800a45c8000d9
:102b7400c522de007e029000848f5200ed003600f4
:102b84007e0290004522dd00440798004e0290002a
:102b94004822de00244f98004e029000344f9800e3
:102ba40034b920001442780004407800fe0607007f
:102bb40000027800040f780034b920001442780031
:102bc4000440780019070700000278001e0f720005
:102bd40035b920009542780024b9200014427800c9
:102be400854078000440780052070700000278000e
:102bf4001e0f7200441080004f22de000442780051
:102c04000482fb00340798000002eb0024079800bc
:102c14002300370034b920001442780004407800bf
:102c2400b4070700000278001e0f720034b92000b8
:102c34001442780004407800db06070000027800a4
:102c4400040f780034b9200014427800044078005e
:102c5400f6060700000278001e0f720035b9200046
:102c64009542780024b92000144278008540780009
:102c7400044078002f070700000278001e0f72003e
:102c8400441080004f22de00044278000482fb00de
:102c9400340798002e0290000402e80024079800ec
:102ca4003e029000e00f520004003200ae02900099
:102cb400840c2000848f5200d6ff360034b92000e3
:102cc40014427800844078002e48900019070700c9
:102cd400000278001e0f720034b9200014427800fc
:102ce400844078003e4890001207070000027800f4
:102cf4001e0f720034b9200014427800044078009a
:102d0400eb060700000278001e0f720035b92000a0
:102d14009542780024b92000144278000404a000ed
:102d2400854078000440780002070700000278001c
:102d34001e0f72000002eb00140798003a003700df
:102d440034b92000144278000440780030070700aa
:102d540000027800444f980034b9200014427800ef
:102d64000440780084070700000278001e0f7200f8
:102d740034b9200014427800044078002407070086
:102d840000027800544f980034b9200014427800af
:102d94000440780078070700000278001e0f7200d4
:102da4001e029000040242009e0a900084824200a7
:102db4005e4a90000482fb00840a78001e029000a0
:102dc400040242009e0a9000848242001e02900087
:102dd400040242001e0b9000040243001402780017
:102de4004822dd00840a78001e029000040242009a
:102df4009e0a9000848242001e0290000402420057
:102e04001e0b900004024300140378004e4a900005
:102e14000482fb0004024300840a78001e0290002e
:102e24000402e800140798000e0a90008402e900e6
:102e34001e029000848f5200c1ff3e0034b920006e
:102e44001442780004407800f1060700000278007c
:102e5400444f980034b920001442780004407800ac
:102e640045070700000278001e0f720034b92000e5
:102e74001442780004407800e50607000002780058
:102e8400544f980034b9200014427800044078006c
:102e94005b070700000278001e0f72001e029000fc
:102ea400040242009e0a9000848242005e4a90001e
:102eb4000482fb00840a78001e029000040242008f
:102ec4009e0a9000848242001e0290000402420086
:102ed4001e0b900004024300140278004822dd0017
:102ee400840a78001e029000040242009e0a9000a8
:102ef400848242001e029000040242001e0b9000d5
:102f040004024300140378004e4a90000482fb003c
:102f140004024300840a780034b920001442780083
:102f240004407800f3060700000278001e0f7200c8
:102f3400060037000082eb00040f78000042eb002b
:102f4400444f98000042eb00544f98000080fa0070
:102f5400000006001000fa00000f780021479800d6
:102f640022079800330798004407980055079800f3
:102f740066079800770798001e027800ae4290001a
:102f8400054a78001e0278006e039000fe0390004c
:102f940016029800270298001e0278003ebb970094
:102fa400cebb970036029800470298001e037800b3
:102fb40004002000e50020005403980065039800f5
:102fc4001e03780004002000e5002000740398002c
:102fd400050b98001e027800e40290005402900051
:102fe4000400be00ba0707001e027800c402900065
:102ff400340290000400be00c60707001e027800d9
:10300400a4029000140290000400be00b007070060
:103014001e02780024529000e04f52000600320055
:103024001e027800840a9000740290000400be001e
:10303400a7070700050037001e027800840a9000e5
:10304400740290000400be00b20707001e0278005c
:10305400e4029000540290000400be00d007070070
:103064001e027800c4029000340290000400be00e6
:10307400cb0707001e027800a402900014029000ff
:103084000400be00c60707001e027800840a9000f0
:10309400740290000400be00c10707001e027800fd
:1030a400144078002e039000be0390004e0290005e
:1030b400de02900003002a000001eb00f15320001f
:1030c400ff0307000080fa00000006000200fa0077
:1030d400000f78001e027800e40290005402900071
:1030e4000400be008b070700000000000000000081
:1030f40000000000000000001e027800e4029000be
:10310400540290000400be00710707000080fa001a
:10311400000006001000fa005007980061079800ac
:10312400720798000042eb00044f78005e029000a2
:10313400a4029000140290000400be00750707006a
:103144005e02900014427800844078006e00900083
:10315400a60407000002be00340798004507980043
:103164003e039000ce0390000400200015112100be
:10317400840f5300858f5b0002003a0014c0b30033
:10318400044f78001e427800e04f520010003a00cd
:103194005e02900014427800844078007e00900023
:1031a400920407000002be00340798004507980007
:1031b4003e039000ce03900004002000151121006e
:1031c400840f5300858f5b0001003a001e14a00099
:1031d4005e029000a4029000140290000400be005d
:1031e4003b07070000000000000000000000000092
:1031f400000000005e029000a402900014029000ff
:103204000400be00430707001e427800e04f52004e
:1032140012003a005e029000144278008440780064
:10322400000f2000710407000002be00340798005c
:10323400450798003e029000140798003e03900052
:10324400ce0390000400200015112100840f5300c8
:10325400858f5b0001003a001e24a0001e42780006
:10326400e04f520012003a005e02900014427800cf
:10327400844078000000eb005c0407000002be00fc
:1032840034079800450798003e02900024079800f0
:103294003e039000ce03900004002000151121008d
:1032a400840f5300858f5b0001003a001e34a00098
:1032b4005e029000a4029000140290000400be007c
:1032c400030707009e0290006e029000848f520054
:1032d400010032001e44a000ae0290007e02900065
:1032e400848f52000200320004c2b3001e4f7200e9
:1032f4001e427800e04f520003003200745c8000ec
:103304000402e800745c88001e42780004407800df
:103314000080fa00000006001400fa00500798002c
:103324006107980072079800030f9800140f980023
:103334000042eb00044f78005e029000a40290006b
:10334400140290000400be00f20607005e02900022
:1033540014427800844078006e0090002304070033
:103364000002be0034079800450798003e03900011
:10337400ce0390000400200015112100840f530097
:10338400858f5b0002003a0014c0b300044f78003c
:103394001e427800e04f520010003a005e02900096
:1033a40014427800844078007e0090000f040700e7
:1033b4000002be0034079800450798003e039000c1
:1033c400ce0390000400200015112100840f530047
:1033d400858f5b0001003a001e14a0005e0290007d
:1033e400a4029000140290000400be00b806070076
:1033f40000000000000000000000000000000000c9
:103404005e029000a4029000140290000400be002a
:10341400c00607005e0290001442780084407800e1
:103424000e089000f10307000002be003407980064
:10343400450798003e029000140798003e03900050
:10344400ce0390000400200015112100840f5300c6
:10345400858f5b0002003a0014c0b300044f78006b
:103464001e427800e04f520012003a005e029000c3
:1034740014427800844078001e089000db030700a3
:103484000002be0034079800450798003e029000f1
:10349400240798003e039000ce039000040020000f
:1034a40015112100840f5300858f5b0001003a0041
:1034b4001e14a0009e0290006e029000848f5200a1
:1034c400010032001e44a000ae0290007e02900073
:1034d400848f52000200320004c2b3001e4f7200f7
:1034e4005e029000a4029000140290000400be004a
:1034f4007706070000000000000000000000000044
:10350400000000005e029000a402900014029000eb
:103514000400be007f0607001e427800e04f520000
:1035240012003a005e029000144278008440780051
:10353400000f2000ad0307000002be00340798000e
:10354400450798003e029000140798003e0390003f
:10355400ce0390000400200015112100840f5300b5
:10356400858f5b0001003a001e24a0001e427800f3
:10357400e04f520012003a005e02900014427800bc
:10358400844078000000eb00980307000002be00ae
:1035940034079800450798003e02900024079800dd
:1035a4003e039000ce03900004002000151121007a
:1035b400840f5300858f5b0001003a001e34a00085
:1035c4005e029000a4029000140290000400be0069
:1035d4003f0607009e0290000e0a9000848f52005e
:1035e400010032001e44a000ae0290001e0a9000aa
:1035f400848f52000200320004c2b3001e4f7200d6
:103604001e427800e04f520003003200745c8000d8
:103614000402e800745c88001e42780004407800cc
:103624000080fa00000006001000fa00600798000d
:10363400710798000042eb00044f78000042eb0051
:1036440064479800570037006e029000a40290006f
:10365400140290000400be002e0607006e029000c3
:10366400144278006e43900005c3b3008542730092
:103674008582fb0084407800050078005b03070026
:103684000002be0044079800550798004e029000bf
:10369400140798004e039000de03900004002000fd
:1036a40015112100840f5300858f5b0002003a003e
:1036b40014c0b300044f78001e427800e04f52005b
:1036c40018003a006e02900014427800ee42900016
:1036d4008582fb00858242007e03900085024300c0
:1036e4009502780084407800050078003f030700c5
:1036f4000002be0044079800550798004e0290004f
:10370400240798004e039000de039000040020007c
:1037140015112100840f5300858f5b0001003a00ce
:103724001e14a0006e429000e04f520015003200bb
:103734006e4290000482fb008402e900040320002e
:1037440005027200840278001e029000848f5200e9
:10375400010032001e24a0006e4290000482fb008f
:103764000402e90004024200fe02900004824200c6
:10377400940278002e029000848f520001003200df
:103784001e34a0006e029000a40290001402900067
:103794000400be00ce0507006e4290000442e8001b
:1037a400644798001e427800e04f520003003a003c
:1037b4006e429000e74f5200a3ff36006e02900065
:1037c400a4029000140290000400be00d10507007a
:1037d4001e427800e04f520012003a006e02900040
:1037e4001442780084407800000f2000ff02070094
:1037f4000002be0044079800550798004e0290004e
:10380400140798004e039000de039000040020008b
:1038140015112100840f5300858f5b0001003a00cd
:103824001e04a0001e427800e04f520012003a002d
:103834006e02900014427800844078000000eb008f
:10384400ea0207000002be004407980055079800ea
:103854004e029000240798004e039000de0390006f
:103864000400200015112100840f5300858f5b0094
:1038740001003a001e14a0006e029000a402900001
:10388400140290000400be00910507006e429000ef
:103894000482fb008402e900040320000502720094
:1038a400840278001e029000848f520001003200ce
:1038b4001e44a0006e4290000482fb000402e90052
:1038c40004024200fe029000048242009402780046
:1038d4002e029000848f52000200320004c2b30012
:1038e4001e4f72001e427800e04f52000300320067
:1038f400845c80000402e800845c88001e42780036
:10390400044078000080fa00000006001200fa006b
:10391400100798002107980032079800034f980079
:10392400540798006507980076079800070f9800d9
:103934000002eb00040f78001e0390006022b80020
:10394400048bbe001e0290008002eb00250298004a
:103954001e0290008002eb00350298001e029000c7
:10396400ae029000450298001e029000be02900034
:10397400550298000e4a9000ef4f52000d00360099
:103984001e02900005002800650298001e029000a7
:103994008002eb00750298001e02900005002800ca
:1039a400050a98001e0290008002eb00150a980098
:1039b4001f0037000e4a90000482fb000404b0008c
:1039c4004222dd00040f78001e00780015fb07007a
:1039d40000027800840278001e02900075029800ac
:1039e4001e02e800040078000efb070000027800c5
:1039f4009e029000e40298001e82e8000400780011
:103a040008fb070000027800840278001e02900080
:103a1400150a98009e027800638242000400780030
:103a240000fb0700000278009e029000840a9800c0
:103a34001e029000de029000250a98001e029000eb
:103a4400ee029000350a98001e029000fe029000db
:103a5400550a98001e0290008e0a9000650a98008c
:103a64001e0290008002eb00750a98001e0290006e
:103a74008002eb00051298001e029000ceba970057
:103a8400151298000080fa00000006001000fa00e9
:103a9400100798002107980032079800034f9800f8
:103aa4005407980065079800760798000002eb0019
:103ab400040f78001e0290008002eb00250298009b
:103ac4001e029000de029000350298001e02900053
:103ad400ee029000450298001e029000fe02900043
:103ae400550298001e029000ae02900065029800f4
:103af4001e029000be029000750298000e4a9000cb
:103b0400e74f52000d0036001e0290000500280009
:103b1400050a98001e0290008002eb00150a980026
:103b24001e02900005002800250a98001e0290003d
:103b34008002eb00350a98001f0037000e4a9000ff
:103b44000482fb000405b0004222dd00040f78006b
:103b54001e007800b3fa070000027800840278009f
:103b64001e029000150a98001e02e8000400780066
:103b7400acfa0700000278009e029000840a9800c4
:103b84001e82e80004007800a6fa0700000278000c
:103b9400840278001e029000350a98009e02780084
:103ba40063824200040078009efa07000002780055
:103bb4009e029000a40a98000080fa00000006000b
:103bc4000400fa00100798001e029000740390008d
:103bd4001e029000e40290001e029000140278007d
:103be4000601780085007800040078004c05070081
:103bf40000027800040f78001e029000940a9000de
:103c04001e029000040a90000501780084007800e8
:103c14001e0078002d05070000027800040f7800cc
:103c24001e029000b40a90001e029000240a900024
:103c340005017800840078001e0078002305070041
:103c440000027800040f78001e0290002402900005
:103c5400e00f520003003a001e029000d4029000cc
:103c6400050f78001e0290009e027800150298004d
:103c74000080fa00000006000400fa001007980013
:103c84001e029000140b90001e029000840a900003
:103c94001e0290002402900006017800850078003e
:103ca400040078000905070000027800040f78007a
:103cb4001e029000f40290001e0290006402900024
:103cc40005017800840078001e007800ff040700d6
:103cd40000027800040f78001e029000d4029000c5
:103ce4001e029000440290000501780084007800d0
:103cf4001e0078000a05070000027800040f78000f
:103d04001e0290009e027800350298000080fa009e
:103d1400000006000400fa00000f78001107980064
:103d24001e027800b40290001e029000848f52009c
:103d3400030031001e027800b402900015079800b9
:103d44001e027800c40290001e029000848f52006c
:103d5400030036001e027800c40290001507980084
:103d64001e0278009e029000050a78000080fa0086
:103d7400000006000200fa00000f78001e0278001e
:103d8400b40290001e027800240a9000848f52002e
:103d94000200360014002000010037000002eb008e
:103da400040078000080fa00000006000200fa0017
:103db400000f78001e027800b40290001e02780002
:103dc400340a9000848f5200020031001400200055
:103dd400010037000002eb00040078000080fa00c4
:103de400000006000400fa00100798001e0290006c
:103df400d40a90001e029000440a90000001eb00d7
:103e04008500780004007800b00407000002780000
:103e1400040f78001e029000640a90009e0f520066
:103e2400030036001e029000e40a9000050f78009b
:103e340004f02f009e0252001e029000440a9000db
:103e4400848f5200040036001e029000440a900041
:103e54001e0f42000200370004f02f00040f780008
:103e64001e029000340290009e0f5200060036009d
:103e74001e029000740a90008402e8001e02900062
:103e8400750a9800090037001e029000740a900019
:103e9400e00f5200050032001e029000740a9000e8
:103ea4008402e9001e029000750a98001e02900028
:103eb400f40a90001e02900014129000848f5200a5
:103ec4000f0039001e029000f40a90001e029000b8
:103ed4001412900004024200848f5200060039003c
:103ee4001e02900014129000040242008402780022
:103ef4001e029000750a980014002000010037008b
:103f04000002eb00040078000080fa0000000600c4
:103f14000400fa00100798001e029000d40a9000d2
:103f24001e029000440a90000001eb008500780016
:103f3400040078006504070000027800040f78008c
:103f44001e029000640a90009e0f52000300360087
:103f54001e029000e40a9000050f78001e029000f3
:103f6400440a90009e0f5200040036001e02900086
:103f7400440a90001e0f5200020037000002eb00ba
:103f8400040f78001e029000340290009e0f52002d
:103f9400060031001e029000041290008402e80022
:103fa4001e02900005129800090037001e029000be
:103fb40004129000e00f5200050032001e0290002f
:103fc400041290008402e9001e0290000512980079
:103fd4001e029000841290001e02900014129000a1
:103fe400848f52000f0039001e029000841290004a
:103ff4001e0290001412900004024200848f5200aa
:10400400060039001e0290001412900004024200bf
:10401400840278001e02900005129800140020000b
:10402400010037000002eb00040078000080fa0071
:10403400000006000000fa00a21b28000101200075
:10404400000120001ffa0700a21b28000101200024
:10405400100120001bfa0700a21b28000101200008
:104064002001200017fa0700a21b280001012000ec
:104074003001200013fa0700a21b280001012000d0
:10408400400120000ffa0700a21b280001012000b4
:10409400500120000bfa0700a21d28000101200096
:1040a4006001200007fa0700a21d2800010120007a
:1040b4007001200003fa07000080fa0000000600e7
:1040c4001400fa004047980031079800420798000e
:1040d400530798006407980075079800060f980026
:1040e400170f98003e029000f401b30034079800c3
:1040f4000e0b90009e0b9000463add00ca32de00a3
:10410400850272004632dd006e019000fe019000cf
:104114000400be0086f007000002be00048fbe004b
:1041240004202000050020001e03be00840f53005d
:10413400858f5b0003003e0014002000045c8800af
:104144003200370034802000050020001e03be002a
:10415400840f5300858f5b000d003e004400200057
:10416400045c88001e02be004e2bdd004222de00ed
:1041740004027300c22ade00048fbe00be02900057
:10418400e4ff2f0004826200340798001f00370008
:10419400f4002200050020001e03be00840f53001b
:1041a400858f5b000d003e0004012000045c880044
:1041b4001e02be004c2bdd004422de00040273000c
:1041c400c42ade00048fbe00be029000d4ff2f007c
:1041d40004826200340798000c00370004042000b5
:1041e400045c88001e02be004a2bdd004622de006d
:1041f40004027300c62ade00048fbe00be029000d3
:10420400c4ff2f000482620034079800041c2000bd
:10421400050020001e03be00840f5300858f5b0041
:1042240008003600045c80004322dd00045c880042
:10423400be02900034fe2f0004826200340798000e
:104244005700370004182000050020001e03be009c
:10425400840f5300858f5b0009003600045c8000e6
:104264006722b90004027800045c8800be02900052
:1042740074fe2f000482620034079800480037005f
:1042840004142000050020001e03be00840f530008
:10429400858f5b0009003600045c80006622b9004b
:1042a40004027800045c8800be029000b4fe2f0073
:1042b400048262003407980039003700041020009b
:1042c400050020001e03be00840f5300858f5b0091
:1042d40009003600045c80006522b90004027800fd
:1042e400045c8800be029000f4fe2f000482620089
:1042f400340798002a003700040c20000500200031
:104304001e03be00840f5300858f5b000800360037
:10431400045c80004222dd00045c8800be02900040
:1043240034ff2f0004826200340798001c00370019
:1043340004082000050020001e03be00840f530063
:10434400858f5b0009003600045c80006322b9009d
:1043540004027800045c8800be02900074ff2f0001
:1043640004826200340798000d0037000404200022
:10437400050020001e03be00840f5300858f5b00e0
:1043840007003600045c800004024200045c8800dc
:10439400be029000b4ff2f0004826200340798002c
:1043a400045c80004222dd00045c88004e429000e0
:1043b400e14f520004003a003e02900014118800bc
:1043c4005e039000061188004e429000e24f5200b6
:1043d40004003a003e029000441188005e039000fd
:1043e400361188000080fa00000006000c00fa0074
:1043f40040079800214f98000042eb00044f7800da
:104404002e4a9000e14f520054003a008500a90062
:104414004e029000241188000002eb00340798003b
:10442400180037003e0290000402e80034079800a8
:10443400045c8000be029000848f520003003600aa
:1044440034c0b300044f78000e003700051180001b
:104454000404200004826200e00f520003003200d2
:1044640044c0b300044f78000600370004118000f4
:1044740062026200e00f520002003a0014c0b3006e
:10448400044f78001e427800e04f5200e5ff3200ee
:10449400200037003e0290000402e8003407980030
:1044a400045c8000be029000848f5200030036003a
:1044b40034c0b300044f78001600370005118000a3
:1044c4000404200004826200e00f52000300320062
:1044d40044c0b300044f78000e0037002504800068
:1044e4000410200004826200e00f52000300320036
:1044f40024c0b300044f7800060037000411800084
:1045040061026200e00f52000200320024c0b300d6
:10451400044f78001e427800e14f5200ddff320064
:104524001e427800e24f520005003a002411800038
:10453400050020001407980025079800070037009d
:104544000400200015112100140798002507980085
:10455400145c80000402e800145c88002e4a900079
:10456400e24f52004d003a008740a9004e029000ed
:10457400541188000002eb0034079800180037003b
:104584003e0290000402e80034079800045c8000b6
:10459400be029000848f52000300360034c0b30082
:1045a400044f78000e003700351180000404200009
:1045b40004826200e00f52000300320044c0b300e2
:1045c400044f780006003700341180006202620054
:1045d400e00f520002003a0014c0b300044f780008
:1045e4001e427800e04f5200e5ff32001900370008
:1045f4003e0290000402e80034079800045c800046
:10460400be029000848f52000300360034c0b30011
:10461400044f78000f003700351180000404200097
:1046240004826200e00f52000300320044c0b30071
:10463400044f780007003700350480000440200050
:1046440004826200e00f52000200320024c0b30072
:10465400044f78001e427800e14f5200e4ff32001c
:104664001e427800e24f520005003a0054118000c7
:10467400050020001407980025079800070037005c
:104684000400200015112100140798002507980044
:10469400245c80000402e800245c88001e02900070
:1046a400ae0290000400be000080fa000000060084
:1046b4001400fa0040479800310798004207980018
:1046c400530798006407980075079800060f980030
:1046d400170f98004e019000de0190006e009000cc
:1046e400fe00900012ef07000002be00048fbe001f
:1046f4001e0278004422dd00445c88006e029000b3
:10470400fe02900052cd2d00230320000400be00c1
:1047140007ef07000002be001e1f12001e971a00ba
:104724000082eb008082eb001e0f42005e974a007d
:104734001e03be001400200005002000840f530057
:10474400858f5b0003003e0024002000050020004c
:10475400048fbe00f4ff2f00050020001e03be00de
:10476400840f5300858f5b00030036002400200073
:1047740005002000048fbe004e429000e04f52001e
:10478400030032004e429000e14f520004003a0010
:10479400be029000351088001e02780024108800a4
:1047a4000080fa00000006000600fa004047980066
:1047b4000002eb00140798004e429000e04f5200b4
:1047c400030032004e429000e14f520013003a00c1
:1047d4000002eb00040f78000b0037001e0fe80006
:1047e400445c80009e027800848f520006003600ec
:1047f4000410200014079800345c80000402e800d0
:10480400345c880005003700451080000400240053
:1048140004826200e00f5200f0ff3a001e02900092
:10482400040078000080fa00000006000600fa0088
:10483400404798000002eb00140798004e42900095
:10484400e04f5200030032004e429000e14f52000c
:1048540013003a000602a8000002eb00040f7800df
:104864000b0037001e0fe800445c80009e027800b5
:10487400848f52000600360004202000140798009c
:10488400345c80000402e800345c880004003700d3
:104894003410800061026200e00f5200f1ff3a0020
:1048a4001e029000040078000080fa000000060058
:1048b4000600fa00404798000002eb001407980035
:1048c4004e429000e04f5200030032004e429000ee
:1048d400e14f520013003a000622a8000002eb0048
:1048e400040f78000b0037001e0fe800445c8000c2
:1048f4009e027800848f5200060036000440200097
:1049040014079800345c80000402e800345c8800da
:10491400040037003410800062026200e00f52008d
:10492400f1ff3a001e029000040078000080fa00b3
:10493400000006000600fa0040479800514798001e
:104944000002eb00140798005e429000e04f520012
:10495400030032005e429000e14f520028003a000a
:104964004e4290000482fb00141088000002eb0009
:10497400040f78000c0037001e0fe800445c800030
:104984009e027800848f52000700360004802000c5
:1049940014079800345c80000402e800345c88004a
:1049a40000000000110037004510800004002400be
:1049b40004826200e00f5200efff32000b00370068
:1049c4001e0fe800445c80009e027800848f520031
:1049d400060036000480200014079800345c800030
:1049e4000402e800345c88000500370045108000ac
:1049f4000400240004826200e00f5200f0ff3a0039
:104a04001e029000040078000080fa0000000600f6
:104a14000600fa00404798000002eb0014079800d3
:104a24004e429000e04f5200030032004e4290008c
:104a3400e14f52002b003a000662a8000002eb008e
:104a4400040f78000c0037001e0fe800445c80005f
:104a54009e027800848f5200070036000400210073
:104a640014079800345c80000402e800345c880079
:104a7400000000001000370034108000680262005b
:104a8400e00f5200f0ff3a000b0037001e0fe80061
:104a9400445c80009e027800848f52000600360039
:104aa4000400210014079800345c80000402e8002c
:104ab400345c880004003700441080006202620005
:104ac400e00f5200f1ff32001e029000e00f52008e
:104ad40004003a0005108000f40f200004826200f4
:104ae400140798001e029000040078000080fa0069
:104af400000006000600fa00404798000002eb00a0
:104b0400140798004e429000e04f52000300320018
:104b14004e429000e14f520013003a000642a800b2
:104b24000002eb00040f78000b0037001e0fe800b2
:104b3400445c80009e027800848f52000600360098
:104b44000400220014079800345c80000402e8008a
:104b5400345c880004003700341080006402620072
:104b6400e00f5200f1ff3a001e02900004007800aa
:104b74000080fa00000006000600fa004047980092
:104b84000002eb00040f78000002eb001407980009
:104b94004e429000e04f5200030032004e4290001b
:104ba400e14f520012003a0006a2a9000682a800b2
:104bb4000b0037001e0fe800445c80009e02780062
:104bc400848f520006003600040024001407980065
:104bd400345c80000402e800345c88000400370080
:104be4003410800070026200e00f5200f1ff3a00be
:104bf4001e029000040078000080fa000000060005
:104c04000600fa00404798000002eb00040f780009
:104c14000002eb00140798004e429000e04f52004f
:104c2400030032004e429000e14f520012003a005d
:104c340006a2a8000682a8000b0037001e0fe80099
:104c4400445c80009e027800848f52000600360087
:104c54000400280014079800345c80000402e80073
:104c6400345c880004003700341080007002620055
:104c7400e00f5200f1ff3a001e0290000400780099
:104c84000080fa00000006001001900090007800f7
:104c9400010051000000e900f000b200000006002d
:104ca400100190009000780002805000f000b200e3
:104cb400000006001170a6001a003700e40140004d
:104cc4009309e800900190001001e800f200b2009e
:104cd4000310e10010003200100178006a11b800de
:104ce400e8014000828141006e81500092197800f1
:104cf40066014100b2197800b2197800b21978003f
:104d0400b21978001001e800f200b200020878003d
:104d1400e60140009309e900e60140009309e80038
:104d24001170a100000006001170a60009003700f0
:104d34006e81500012187800660141003218780024
:104d44003218780032187800321878001170a100f7
:104d540008003700827f210002187800020020003a
:104d640002187800021878000218780002187800f7
:104d74003100370000000600e40140009309e80018
:104d8400900190001001e800f200b2000310e1006d
:104d94000e003200100178006a11b800e8014000ea
:104da40082814100b1197800b1197800b1197800f5
:104db400b1197800b11978001001e800f200b200ce
:104dc40002087800e60140009309e900e60140008a
:104dd4009309e8000000060010019000900178009b
:104de4000310e10008003a00837f21008318780053
:104df4000300200083187800831878008318780053
:104e0400831878000c0037006a11b800680141006b
:104e140000014100b2187800b2187800b218780086
:104e2400b2187800b2187800100190000201e8006e
:104e3400f200b20012009800000006001130a70032
:104e44001300370010019000900178000310e10076
:104e54000f0032006a11b8006801410000014100ee
:104e6400ee815000b2097800e6814100b219780061
:104e7400b2197800b2197800b21978001130a00084
:104e8400100190000201e800f200b2001200980044
:104e9400000006001130a1006e8150003009780036
:104ea4006601410030197800301978003019780013
:104eb400301978001130a000000006000018eb0043
:104ec4000018eb000018eb000008eb0000000600df
:104ed40001600100c422b70000000600ca22b70026
:104ee40000000600d022b70000000600d622b7005a
:104ef400000006000000000000000600e222b700e7
:104f040000000600e822b7000000060000000000d0
:104f1400000006000080ea0001600100c422b6001f
:104f240000000600ca22b60000000600d022b60027
:104f340000000600d622b6000000060000000000b3
:104f440000000600e222b60000000600e822b600d7
:104f540000000600000000000000060001600100df
:104f6400c022b70000000600c622b70000000600f9
:104f7400cc22b70000000600d222b70000000600d1
:104f84000000000000000600de22b700000006005a
:104f9400e422b70000000600000000000000060044
:104fa4000080ea0001600100c022b6000000060093
:104fb400c622b60000000600cc22b600000006009f
:104fc400d222b60000000600000000000000060027
:104fd400de22b60000000600e422b600000006004f
:104fe40000000000000006000400fa00100798000a
:104ff4001e029000c4029000050f78009e02780003
:1050040004202400848f52000c003a001e029000f9
:10501400240290008400780040b020003dfb07008b
:105024001e0290003402900084007800c0b1200079
:1050340038fb07008849a90004003700b44d8000fc
:105044000402e800b44d8800000000000080fa006b
:10505400000006000000fa0074508000e758800049
:1050640026588000b54a8000870178000601780040
:1050740085007800c004200059f307000080fa007e
:10508400000006000000fa00b4528000975180002e
:10509400564f8000455b8000870178000601780048
:1050a40085007800d00420004df307000080fa004a
:1050b400000006000000fa000080fa00000006006c
:1050c4000000fa000080fa00000006000200e00080
:1050d40005003b00020040000800310000002000f1
:1050e4008a2bec0005003700020040000300390061
:1050f400f0ff2f008a2bec00000037000101b800fc
:105104006218b8000100e00002003200f0ff2f0036
:105114008a2bec00cf10de000100700000000600b6
:105124000200e00005003b000200400008003100de
:10513400000020008c2bec0005003700020040002a
:1051440003003900f0ff2f008c2bec000000370027
:105154000101b8007018b8000100e000020032003c
:10516400f0ff2f008c2bec00cc10de00010070004f
:045174000000060031
:020000040000fa
:10517800860b00000400000000000000800b000007
:1051880006000000000000008a0b00000400000078
:1051980000000000cc090000b4010000000000007d
:1051a8008e0b00000400000000000000920b0000bd
:1051b800040000000000000000080000cc0100000e
:0851c8000000000000000000df
:020000040000fa
:1051d000f03fb1000180b10006003500ee03090088
:1051e00000000000403fb1000180b100fbff3d0026
:1051f0001000b000203fb000020035000080090020
:085200000000000000000600a0
:020000040000fa
:0200000401f009
:04000000ecbb000055
:020000040000fa
:0200000401f009
:04000400f7ff000002
:020000040000fa
:0200000401f009
:040008004cff0000a9
:020000040000fa
:0200000401f009
:04000c00ffff0000f2
:020000040000fa
:0200000401f009
:04001000ffff0000ee
:020000040000fa
:0200000401f009
:04001400ffff0000ea
:020000040000fa
:0200000401f009
:04001800ffff0000e6
:00000001FF
