:020000040000fa
:080000000001040000000000f3
:020000040000fa
:100008000c1500000c1500000c1500000c15000064
:100018000c1500000c1500000c1500000c15000054
:100028000c1500000c1500000c1500000c15000044
:100038000c1500000c1500000c1500000c15000034
:100048000c1500000c1500000c150000de12000055
:100058000c1500000c1500000c1500000c15000014
:100068000c1500000c1500000c1500000c15000004
:100078000c1500000c1500000c1500000c150000f4
:100088000c1500000c1500000c1500004e070000b0
:100098000c1500000c1500000c1500000c150000d4
:1000a8000c1500000c1500000c1500000c150000c4
:1000b8000c1500000c1500000c1500000c150000b4
:1000c8000c1500000c1500000c1500000c150000a4
:1000d8000c1500000c1500000c1500000c15000094
:1000e8000c1500000c1500000c1500000c15000084
:0800f8000c1500000c150000be
:020000040000fa
:100108000c1500000c1500000c1500000c15000063
:100118000c1500000c1500000c1500000c15000053
:100128000c1500000c1500000c1500000c15000043
:100138000c1500000c1500000c1500000c15000033
:100148000c1500000c1500000c150000de12000054
:100158000c1500000c1500000c1500000c15000013
:100168000c1500000c1500000c1500000c15000003
:100178000c1500000c1500000c1500000c150000f3
:100188000c1500000c1500000c1500004e070000af
:100198000c1500000c1500000c1500000c150000d3
:1001a8000c1500000c1500000c1500000c150000c3
:1001b8000c1500000c1500000c1500000c150000b3
:1001c8000c1500000c1500000c1500000c150000a3
:1001d8000c1500000c1500000c1500000c15000093
:1001e8000c1500000c1500000c1500000c15000083
:0801f8000c1500000c150000bd
:020000040000fa
:100200004fb720000e7f22000e0188000000000082
:10021000000020000000e000020032000001200089
:10022000200288000c000700c00b22000100200003
:1002300011000700000020000000e0000200320072
:1002400000000200000000007e110200000000001b
:100250000040da000000fe004440a9000000200039
:100260000000e0000300320000002000a001880030
:100270004440a8000000060091018800800078003a
:100280000000eb0015003700e280400032a0b4000f
:100290009101ba00e280400032a0b4009102ba009d
:1002a000e280400032a0b4000002eb00472bde00e9
:1002b000f507b200602ce10004003a000059eb00a1
:1002c0008301e900fdff3e00040037006128e100e2
:1002d000010032000082eb00040007001101ba00a7
:1002e0000200e000e8ff3a00000006003159ba00c1
:1002f0008301e9000c0032002159ba008301e900b2
:10030000080032000400e00003003a00e2804000f0
:1003100032a0b400f5ff370011d9ba008301e9001b
:10032000faff3a008100e800e180400032a0b4000a
:10033000000006006022b800060220000000d00085
:100340008180d2000482d2008582d2000000a00009
:100350000202520083825a0003003100020242006e
:1003600083824a000000a1000603e900f3ff3a007f
:040370000000060083
:020000040000fa
:100374000000fa00140007008b0107008200070048
:10038400020007000080fa00000006000000fa00e6
:10039400250480000408200004826200e00f52005b
:1003a4000700320084e0a900044e80000402e80043
:1003b400044e8800444c80000400a000444c880093
:1003c4000080fa00000006000a00fa002e00370040
:1003d4008e007800008020006b0e07009e027800db
:1003e400840720008482620004022000848f52006b
:1003f40004003200b44d80000402e800b44d8800cb
:10040400210037009e027800044a2100848f5200a4
:1004140003003a000e007800860007001a00370037
:100424009e027800045a2100848f520003003a008f
:100434000e0078001f000700130037009e027800aa
:1004440004622100848f520003003a000e007800f9
:10045400c50007000c0037009e027800c4c72100c5
:100464008482620004022100848f520003003a0057
:100474000e0078000f00070003003700944d800041
:100484000402e800944d880000802000f00d07006d
:1004940000027800e00f5200cdff3a00744580005e
:1004a400d44d880034408000e44d88000080fa0078
:1004b400000006000400fa00100798001e029000d5
:1004c400c4029000050f780004002f009e02620011
:1004d40004002400848f520004003200a44d8000e4
:1004e4000402e800a44d880025003700f4ff200032
:1004f4009e026200f40f2000848f520004003e002c
:10050400a44d80000402e800a44d88001c003700bc
:10051400f4ff20009e026200f42f2000848f52001a
:1005240003003e001e009000550e07001400370023
:10053400f4ff20009e026200f43f2000848f5200ea
:1005440004003e00a44d80000402e800a44d88008d
:100554000b003700f4ff20009e026200f44f2000dd
:10056400848f520003003e001e009000b300070079
:1005740003003700a44d80000402e800a44d880065
:100584000080fa00000006000200fa00344c8000eb
:10059400630f62000a0007001e027800e00f520099
:1005a40005003a00344c800063026200e00f520000
:1005b40001003200a90007000080fa0000000600d4
:1005c4000000fa00454c8000844c800004826200e4
:1005d400e00f520004003200344c80000400a000fc
:1005e400344c880004003700354c8000e4ff2f00b1
:1005f40004826200344c8800354c8000744c8000c6
:1006040004826200e00f520004003200344c800087
:100614000410a000344c880004003700354c8000de
:10062400d4ff2f0004826200344c88000080fa005a
:10063400000006000400fa00100798001e02900053
:10064400c4029000050f780004002f009e0262008f
:1006540004002400848f520004003200a44d800062
:100664000402e800a44d880013003700f4ff2000c2
:100674009e026200f4072000848f520003003e00b3
:100684001e0090000e0007000b003700f4ff20004e
:100694009e026200f40f2000848f520003003e008b
:1006a4001e0090000c0e070003003700a44d8000cc
:1006b4000402e800a44d88000080fa00000006004f
:1006c4000400fa00100798001e029000c402900073
:1006d400050f7800f4ff20001e0f62001e02780050
:1006e400050020005600200007002000860f52005d
:1006f400878f5a0014003e00046001000500370093
:1007040006003700100037001400370005003700da
:1007140009003700060e0700110037000000fe0034
:100724000f003700354c8000f4fe2f000482620075
:10073400344c88000a003700344c80000440a00088
:10074400344c880006003700a44d80000402e80001
:10075400a44d8800000000000100370000000000e4
:100764000080fa00000006000400fa001007980058
:100774001e029000c4029000050f780004002f00b0
:100784009e02620004002400848f520004003200a0
:10079400a44d80000402e800a44d88002500370021
:1007a400f4ff20009e026200f40f2000848f5200a8
:1007b40004003e00a44d80000402e800a44d88001b
:1007c4001c003700f4ff20009e026200f42f20007a
:1007d400848f520003003e001e009000c80d0700e5
:1007e40014003700f4ff20009e026200f43f200052
:1007f400848f520004003e00a44d80000402e800ef
:10080400a44d88000b003700f4ff20009e02620014
:10081400f44f2000848f520003003e001e0090001d
:100824000a00070003003700a44d80000402e8001a
:10083400a44d88000080fa00000006000200fa00bf
:10084400000f78000080fa00000006000200fa00a1
:10085400000f78000080fa00000006000a00fa0089
:1008640044822a00040f780055ff0700344c8000ae
:1008740014079800444c800024079800544c8000ce
:1008840034079800644c800044079800e135200048
:100894000e0078006b0d0700344d80000402e80060
:1008a400344d88000080fa00000006000200fa00bf
:1008b400000f78000060fe000002eb00540888007e
:1008c4000080fa00000006001400fa0050079800a7
:1008d4006107980072079800030f9800140f98009e
:1008e4005e0290006f02620054079800de029000de
:1008f4000404200005027200540798005e02900070
:100904000402420054079800de02900004602000b4
:1009140005027200540798005e0290004222dd0036
:10092400540798005e029000040f78009e0278003d
:1009340004f02f0004826200040f78001e02780085
:100944004322dd00040f78009e0278005e039000cd
:10095400f40f20000402630005027200040f780003
:100964001e0a9000140798000e0a900024079800ad
:100974007e029000340798006e02900044079800ad
:100984008e007800808a2000e70c0700741b80002a
:1009940068026200e00f520001003a008760a8007c
:1009a4000080fa00000006000000fa002504800020
:1009b4000404200004826200e00f52009f00320011
:1009c40084c0a900144e80000402e800144e88007c
:1009d400144e80006f026200144e88009fff0700cf
:1009e400144e800005002000f600200007002000bf
:1009f400860f5200878f5a0090003e000460010069
:100a04000f00370018003700200037002900370096
:100a1400320037003b003700440037004d003700f8
:100a2400560037005f003700680037007100370058
:100a34007a0037007b0037007c0037007d003700e8
:100a4400e44a8000d74a8000c64a8000b54a800044
:100a54008701780006017800850078000000eb002b
:100a640099ff070075003700064b8000f54a8000a7
:100a74000002eb008001eb0006017800850078009d
:100a84001000200090ff07006c003700644b8000ca
:100a9400574b8000464b8000354b8000870178001f
:100aa40006017800850078002000200086ff0700fa
:100ab40062003700a44b8000974b8000864b800077
:100ac400754b800087017800060178008500780066
:100ad400300020007cff070058003700e44b800002
:100ae400d74b8000c64b8000b54b8000870178004f
:100af40006017800850078004000200072ff07009e
:100b04004e003700244c8000174c8000064c8000b7
:100b1400f54b800087017800060178008500780095
:100b24005000200068ff070044003700444d800057
:100b3400374d8000264d8000154d800087017800d8
:100b44000601780085007800800020005eff070021
:100b54003a003700844d8000774d8000664d800058
:100b6400554d8000870178000601780085007800e3
:100b74009000200054ff070030003700c44d80006f
:100b8400b74d8000a64d8000954d80008701780008
:100b94000601780085007800a00020004aff0700c5
:100ba40026003700044e8000f74d8000e64d80009b
:100bb400d54d800087017800060178008500780013
:100bc400b000200040ff07001c003700c44c800028
:100bd400b74c8000a64c8000954c800087017800bb
:100be40006017800850078006000200036ff0700c9
:100bf40012003700044d8000f74c8000e64c800062
:100c0400d54c8000870178000601780085007800c3
:100c1400700020002cff070008003700c70c0700f5
:100c240006003700d10c070004003700db0c070076
:100c340002003700dc0c0700000000000080fa000e
:100c4400000006000e00fa005007980061079800a3
:100c54000002eb00040f78006e0290002407980055
:100c64005e02900014079800e13420000e00780022
:100c7400740c0700444d80000402e800444d8800d1
:100c84000080fa00000006001000fa0050079800e7
:100c9400610798007207980044022a00040f780044
:100ca4007e029000140798005e02900024079800ca
:100cb4006e029000e10f520003003a0004102e006f
:100cc400440798000200370014102e0044079800cf
:100cd400e13420000e0078005a0c0700444d8000d7
:100ce4000402e800444d88000080fa000000060079
:100cf4000000fa008f60a9008760a9000405800045
:100d040004c0a10004d0a10004e0a00004058800f0
:100d14000002eb00b41c88009803a8009823a800e4
:100d24009843a80098a3a800008020004f0c070057
:100d3400808a20004d0c070004402000841c880099
:100d440000000000851c8000040e200084826200e4
:100d540004082000848f5200faff3a001400200097
:100d6400941c880014392000a41c880014802100dd
:100d740084198800d4872100c41988000002eb007c
:100d8400041888000480200044188800040221000c
:100d940084188800c47f2100c4188800c47f2100ff
:100da40004198800c47f210044198800140020001d
:100db400741b880024002000f41a880034002000ea
:100dc400741a8800040c2000241b8800040c2000e2
:100dd400a41a8800040c2000241a88000002eb00e6
:100de400741c88000002eb00f41b88000002eb0076
:100df400841c880000000000851c8000040e200074
:100e040004826200e00f5200fbff3a008f60a800ea
:100e140054fb25008408880024f42000640888001a
:100e24000002eb003408880084c0a9008cc0a9002b
:100e340011e1a800d4fb2500940888005462220024
:100e44007408880084e0a9008ce0a90013e1a800dc
:100e54000002eb00944c880004d82800a44c8800bd
:100e6400441f2000b44c880014042000c44c8800a3
:100e7400940c2000d44c88000002eb00f44c880051
:100e840014002000e44c880064002000044d880015
:100e94000080fa00000006003600f800809fbe00c3
:100ea400829fbe00849fbe00869fbe000a00fa0097
:100eb4008760a900844d80000402e800844d880006
:100ec400751c80000408200004826200e00f5200b8
:100ed40018003200741c800061026200e00f5200ae
:100ee4000b003a00544d80000402e800544d880081
:100ef400e13820000e007800770b07003e029000d6
:100f0400844a88004e029000944a88000800370002
:100f1400644d80000402e800644d8800e13820003c
:100f24000e0078006c0b07000e0078005ffe0700cf
:100f34009603a900f51b80000408200004826200c7
:100f4400e00f520007003200744d80000402e800f4
:100f5400744d8800e137200000802000410b070019
:100f64009623a900741b800068026200e00f5200ff
:100f74000c003a00808a2000350b0700000278003c
:100f8400e00f520007003200e1362000808a200082
:100f9400960b07009643a900c44d80000402e800a4
:100fa400c44d8800b51c8000040220000482620045
:100fb400e00f520005003200244d80000402e800d6
:100fc400244d880096a3a900080037004517800027
:100fd4000400220004826200e00f5200020032008a
:100fe400e9a2a90001003700e9a2a800d41c8000ee
:100ff400144d88000080fa004f03be004f02be006b
:101004004f01be004f00be003600f900004006004c
:101014001000fa00000f780021479800220798007a
:10102400330798004407980055079800660798000e
:10103400770798001e027800ae429000054a7800b7
:101044001e0278006e039000fe03900016029800c2
:10105400270298001e0278003ebb9700cebb970083
:1010640036029800470298001e037800040020000e
:10107400e500200054039800650398001e037800df
:1010840004002000e500200074039800050b98007c
:101094001e027800e4029000540290000400be0096
:1010a400c40b07001e027800c402900034029000b2
:1010b4000400be00d00b07001e027800a4029000ba
:1010c400140290000400be00ba0b07001e02780050
:1010d40024529000e04f5200060032001e027800b5
:1010e400840a9000740290000400be00b10b070053
:1010f400050037001e027800840a900074029000f4
:101104000400be00bc0b07001e027800e40290003d
:10111400540290000400be00da0b07001e0278009f
:10112400c4029000340290000400be00d50b0700f6
:101134001e027800a4029000140290000400be0075
:10114400d00b07001e027800840a900074029000fd
:101154000400be00cb0b07001e0278001440780088
:101164002e039000be0390004e029000de02900019
:1011740003002a000001eb00f15320009f06070042
:101184000080fa00000006000200fa00000f780058
:101194001e027800e4029000540290000400be0095
:1011a400950b070000000000000000000000000094
:1011b400000000001e027800e40290005402900037
:1011c4000400be007b0b07000080fa00000006004c
:1011d4001000fa0050079800610798007207980001
:1011e4000042eb00044f78005e029000a4029000dd
:1011f400140290000400be007f0b07005e02900002
:1012040014427800844078006e009000460707007e
:101214000002be0034079800450798003e03900082
:10122400ce0390000400200015112100840f530008
:10123400858f5b0002003a0014c0b300044f7800ad
:101244001e427800e04f520010003a005e02900007
:1012540014427800844078007e0090003207070032
:101264000002be0034079800450798003e03900032
:10127400ce0390000400200015112100840f5300b8
:10128400858f5b0001003a001e14a0005e029000ee
:10129400a4029000140290000400be00450b070055
:1012a400000000000000000000000000000000003a
:1012b4005e029000a4029000140290000400be009c
:1012c4004d0b07001e427800e04f520012003a0016
:1012d4005e0290001442780084407800000f2000e1
:1012e400110707000002be00340798004507980064
:1012f4003e029000140798003e039000ce03900035
:101304000400200015112100840f5300858f5b0019
:1013140001003a001e24a0001e427800e04f520053
:1013240012003a005e029000144278008440780073
:101334000000eb00fc0607000002be003407980022
:10134400450798003e029000240798003e03900051
:10135400ce0390000400200015112100840f5300d7
:10136400858f5b0001003a001e34a0005e029000ed
:10137400a4029000140290000400be000d0b0700ac
:101384009e0290006e029000848f52000100320091
:101394001e44a000ae0290007e029000848f520092
:1013a4000200320004c2b3001e4f72001e427800d5
:1013b400e04f520003003200645b80000402e80046
:1013c400645b88001e427800044078000080fa00c4
:1013d400000006001400fa00500798006107980006
:1013e40072079800030f9800140f98000042eb0056
:1013f400044f78005e029000a40290001402900052
:101404000400be00fc0a07005e029000144278004b
:10141400844078006e009000c30607000002be00fe
:1014240034079800450798003e039000ce039000cf
:101434000400200015112100840f5300858f5b00e8
:1014440002003a0014c0b300044f78001e42780032
:10145400e04f520010003a005e02900014427800ff
:10146400844078007e009000af0607000002be00b2
:1014740034079800450798003e039000ce0390007f
:101484000400200015112100840f5300858f5b0098
:1014940001003a001e14a0005e029000a402900015
:1014a400140290000400be00c20a070000000000fd
:1014b4000000000000000000000000005e02900038
:1014c400a4029000140290000400be00ca0a07009f
:1014d4005e02900014427800844078000e08900068
:1014e400910607000002be003407980045079800e3
:1014f4003e029000140798003e039000ce03900033
:101504000400200015112100840f5300858f5b0017
:1015140002003a0014c0b300044f78001e42780061
:10152400e04f520012003a005e029000144278002c
:10153400844078001e0890007b0607000002be006d
:1015440034079800450798003e029000240798004d
:101554003e039000ce0390000400200015112100ea
:10156400840f5300858f5b0001003a001e14a00015
:101574009e0290006e029000848f5200010032009f
:101584001e44a000ae0290007e029000848f5200a0
:101594000200320004c2b3001e4f72005e029000cb
:1015a400a4029000140290000400be00810a070007
:1015b4000000000000000000000000000000000027
:1015c4005e029000a4029000140290000400be0089
:1015d400890a07001e427800e04f520012003a00c8
:1015e4005e0290001442780084407800000f2000ce
:1015f4004d0607000002be00340798004507980016
:101604003e029000140798003e039000ce03900021
:101614000400200015112100840f5300858f5b0006
:1016240001003a001e24a0001e427800e04f520040
:1016340012003a005e029000144278008440780060
:101644000000eb00380607000002be0034079800d3
:10165400450798003e029000240798003e0390003e
:10166400ce0390000400200015112100840f5300c4
:10167400858f5b0001003a001e34a0005e029000da
:10168400a4029000140290000400be00490a07005e
:101694009e0290000e0a9000848f520001003200d6
:1016a4001e44a000ae0290001e0a9000848f5200d7
:1016b4000200320004c2b3001e4f72001e427800c2
:1016c400e04f520003003200645b80000402e80033
:1016d400645b88001e427800044078000080fa00b1
:1016e400000006001000fa006007980071079800d7
:1016f4000042eb00044f78000042eb00644798007e
:10170400570037006e029000a4029000140290006b
:101714000400be00380a07006e02900014427800ec
:101724006e43900005c3b300854273008582fb00bd
:101734008440780005007800fb0507000002be0025
:1017440044079800550798004e029000140798002b
:101754004e039000de0390000400200015112100c8
:10176400840f5300858f5b0002003a0014c0b3005d
:10177400044f78001e427800e04f520018003a00ef
:101784006e02900014427800ee4290008582fb00c5
:10179400858242007e039000850243009502780012
:1017a4008440780005007800df0507000002be00d1
:1017b40044079800550798004e02900024079800ab
:1017c4004e039000de039000040020001511210058
:1017d400840f5300858f5b0001003a001e14a000a3
:1017e4006e429000e04f5200150032006e429000ad
:1017f4000482fb008402e900040320000502720055
:10180400840278001e029000848f5200010032008e
:101814001e24a0006e4290000482fb000402e90032
:1018240004024200fe029000048242009402780006
:101834002e029000848f5200010032001e34a0005a
:101844006e029000a4029000140290000400be00f6
:10185400d80907006e4290000442e80064479800eb
:101864001e427800e04f520003003a006e4290009e
:10187400e74f5200a3ff36006e029000a4029000ce
:10188400140290000400be00db0907001e42780029
:10189400e04f520012003a006e02900014427800a9
:1018a40084407800000f20009f0507000002be005e
:1018b40044079800550798004e02900014079800ba
:1018c4004e039000de039000040020001511210057
:1018d400840f5300858f5b0001003a001e04a000b2
:1018e4001e427800e04f520012003a006e0290004f
:1018f40014427800844078000000eb008a05070059
:101904000002be0044079800550798004e0290005c
:10191400240798004e039000de039000040020008a
:1019240015112100840f5300858f5b0001003a00dc
:101934001e14a0006e029000a402900014029000f5
:101944000400be009b0907006e4290000482fb0065
:101954008402e90004032000050272008402780076
:101964001e029000848f5200010032001e44a00029
:101974006e4290000482fb000402e900040242006b
:10198400fe02900004824200940278002e0290002d
:10199400848f52000200320004c2b3001e4f720052
:1019a4001e427800e04f520003003200745b800056
:1019b4000402e800745b88001e427800044078004a
:1019c4000080fa00000006000e00fa00000f780004
:1019d400214798003247980023079800340798005d
:1019e4004507980056079800670798001e0278007c
:1019f400ae429000054a78001e027800be42900074
:101a0400154298001e027800ae029000150298005c
:101a14001e027800144090006033b8003e0290002b
:101a2400ce0290005e019000ee01900001022b00b6
:101a3400ee0507000080fa00000006000e00fa0020
:101a44004007980051079800620798004e029000e2
:101a5400140290008402d1005e029000848f520030
:101a6400530036006e0290004822de00044f7800d6
:101a74006e029000144798005e0290000402420037
:101a8400140798001e0290004822de004447980084
:101a94001e029000544798004e0290001442900099
:101aa400044078000f06070000027800340798000d
:101ab4004e02900014429000044078002a06070069
:101ac40000027800be0290000502720034079800fc
:101ad4004e029000944290004e029000144278000e
:101ae4008540780004407800610607000002780011
:101af400be02900005027200340798004e02900066
:101b040014429000844078004e409000580607002c
:101b140000027800be0290000502720034079800ab
:101b24004e02900014429000844078005e40900081
:101b34004f06070000027800be0290000502720002
:101b4400340798004e0290001442900084407800bc
:101b54001e4090004606070000027800be02900076
:101b640005027200340798004e029000144290005f
:101b7400844078001e4078003d060700000278008b
:101b8400be02900005027200340798004e029000d5
:101b94001442900004407800a50607000002780073
:101ba400be0290000502720034079800020037005c
:101bb4000082eb00340798000080fa000000060061
:101bc4000c00fa0040079800510798004e0290005c
:101bd400140290008402d1005e029000848f5200af
:101be4006c0036005e029000040242001407980064
:101bf4001e0290004822de00444798001e02900016
:101c0400544798004e02900014429000044078001b
:101c1400b405070000027800340798004e029000d3
:101c24001442900004407800cf05070000027800b9
:101c3400be02900005027200340798004e02900024
:101c4400944290004e02900014427800854078003f
:101c5400044078000606070000027800be029000e7
:101c640005027200340798004e029000144290005e
:101c7400844078004e409000fd0507000002780083
:101c8400be02900005027200340798004e029000d4
:101c940014429000844078005e409000f4050700f0
:101ca40000027800be02900005027200340798001a
:101cb4004e0290001442900004407800cb050700c7
:101cc40000027800be0290000502720034079800fa
:101cd4004e029000944290004e029000144278000c
:101ce4000404a0008540780004407800e005070063
:101cf40000027800be0290000502720034079800ca
:101d04004e02900014429000044078000f06070031
:101d140000027800044f78004e02900014429000b4
:101d2400044078006306070000027800be029000b9
:101d340005027200340798004e029000144290008d
:101d44000440780001060700000278001447980058
:101d54004e02900014429000044078007706070079
:101d640000027800be029000050272003407980059
:101d74004e02900014429000044078002c060700a4
:101d840000027800be029000050272003407980039
:101d9400060037000082eb00340798000042eb0095
:101da400044f78000042eb00144798001e42900054
:101db4000482fb00140798001e0290004822dd00f4
:101dc400140798009e4278000582fb009e02900052
:101dd40004824200140798001e0290000400780058
:101de4000080fa00000006001200fa005007980074
:101df4006107980072079800030f98007e02900014
:101e0400e00f5200640032007e029000f00f520096
:101e14000200360004012000740798005e0290005e
:101e240014029000c522de006e029000848f5200de
:101e3400570036006e0290004522dd00240798000a
:101e44002e0290004822de00644798002e02900083
:101e5400744798005e029000144290000440780099
:101e64002005070000027800040f78005e0290004d
:101e740014429000044078003b05070000027800fb
:101e84001e0f72005e029000944290005e02900069
:101e940014427800854078000440780074050700f7
:101ea400000278001e0f72005e029000144290003f
:101eb400844078006e4090006d05070000027800b1
:101ec4001e0f72005e02900014429000844078005d
:101ed4007e40900066050700000278001e0f720025
:101ee4000002eb00140798001e0037001e02900049
:101ef400040242008e0a9000048242001402780018
:101f04004822de00044f98001e02900004024200a2
:101f14008e0a90000482420014027800144f980044
:101f24005e02900014429000844078001e489000a5
:101f34004f050700000278001e0f72005e02900039
:101f440014429000844078000e4890004805070031
:101f5400000278001e0f72001e0290000402e800c6
:101f6400140798009e0290007e029000848f520015
:101f7400deff39005e0290001442900004407800b5
:101f8400ab050700000278001e0f72000200370044
:101f94000082eb00040f78000080fa0000000600c5
:101fa4001200fa0050079800610798007207980021
:101fb400030f98007e029000e00f5200cc00320024
:101fc4007e029000f00f520002003600040120004f
:101fd400740798005e02900014029000c522de008f
:101fe4006e029000848f5200bb0036006e02900097
:101ff4004522dd00240798002e0290004822de00ce
:10200400644798002e029000744798005e02900086
:102014001442900004407800b204070000027800e3
:10202400040f78005e02900014429000044078008f
:10203400cd040700000278001e0f72005e029000bb
:10204400944290005e02900014427800854078002b
:102054000440780006050700000278001e0f720095
:102064005e02900014429000844078006e4090001c
:10207400ff040700000278001e0f72005e02900049
:1020840014429000844078007e409000f8040700d9
:10209400000278001e0f72005e029000144290004d
:1020a40004407800d1040700000278001e0f72007b
:1020b4005e029000944290005e0290001442780008
:1020c4000404a0008540780004407800e804070078
:1020d400000278001e0f72000002eb001407980043
:1020e4003a0037005e0290001442900004407800e9
:1020f4001605070000027800044f98005e02900065
:1021040014429000044078006a0507000002780039
:102114001e0f72005e02900014429000044078008a
:102124000a05070000027800144f98005e02900030
:1021340014429000044078005e0507000002780015
:102144001e0f72001e029000040242008e0a9000cc
:10215400848242001e4a90000482fb00840a7800b4
:102164001e029000040242008e0a90008482420003
:102174001e029000040242000e0b90000402430071
:10218400140278004822dd00840a78001e029000c0
:10219400040242008e0a9000848242001e029000d3
:1021a400040242000e0b9000040243001403780062
:1021b4000e4a90000482fb0004024300840a780063
:1021c4001e0290000402e800140798007e029000aa
:1021d4008402e9001e029000848f5200c1ff3e0079
:1021e4005e0290001442900004407800d704070077
:1021f40000027800044f98005e02900014429000a0
:10220400044078002b050700000278001e0f7200be
:102214005e0290001442900004407800cb04070052
:1022240000027800144f98005e029000144290005f
:102234000440780041050700000278001e0f720078
:102244001e029000040242008e0a90008482420022
:102254001e4a90000482fb00840a78001e0290004b
:10226400040242008e0a9000848242001e02900002
:10227400040242000e0b9000040243001402780092
:102284004822dd00840a78001e0290000402420005
:102294008e0a9000848242001e02900004024200d2
:1022a4000e0b900004024300140378000e4a9000c1
:1022b4000482fb0004024300840a78005e0290005a
:1022c4001442900004407800d9040700000278000a
:1022d4001e0f7200060037000082eb00040f780026
:1022e4000042eb00044f98000042eb00144f9800aa
:1022f4000080fa00000006000000fa007cfa0700e3
:10230400020007001af80700feff37000000fa0079
:102314000002eb00344c88000002eb00444c8800bf
:102324000002eb00544c88000002eb00644c88006f
:1023340044602100744c880034002000844c8800e0
:10234400340580000400a0000410a0000420a000b4
:10235400340588008220a900c404800004c0a100c0
:1023640004d0a00004e0a000c404880004602f008e
:1023740004168800b4072f003416880024002000b7
:102384006416880004702f0094168800341c200002
:10239400f4168800c4002c0024178800d4f9250002
:1023a400240888000002eb00040888008460a90067
:1023b400d4f92500040988000002eb00c408880051
:1023c40086c0a900440d2300e4088800f4cf270048
:1023d40004158800e4fd26001415880084442e00aa
:1023e40024158800343e2e003415880074f820002b
:1023f400441588000082eb00541588008560a9000c
:102404008d60a800a1e2a80024002000450020005f
:10241400849fbe0006002800c7002000045a220042
:1024240065022000026829008309200011c0b3005e
:10243400409c2000f6fa0700e487570006a8210014
:102444006700200004682900850920000300220099
:102454000041eb0001cab300809d20005afd070033
:1024640004482000244f88000002eb00344f880009
:1024740080c0eb00c09d20006c01070004482000d0
:10248400445088000002eb005450880080c0eb00e8
:1024940000a0200065010700d46620006451880074
:1024a4000002eb007451880080c0eb0040a22000c1
:1024b4005e01070004c820008452880004712200d1
:1024c4009452880080c0eb0080a4200057010700cc
:1024d400a41a2000a45388000002eb00b45388001f
:1024e40080c0eb00c0a6200050010700d4432000a8
:1024f400c45488000002eb00d454880080c0eb0070
:1025040000a920004901070004282000e4558800a0
:102514000002eb00f455880080c0eb0040ab2000c3
:102524004201070004002100045788000002eb0068
:102534001457880080c0eb0080ad20003b010700e9
:1025440084f62200445888000002eb0054588800a6
:1025540080c0eb00c0af20006b01070084f62200ae
:10256400045988000002eb001459880080c0eb0075
:1025740040b120006401070054552500c459880067
:102584000002eb00d459880080c0eb00c0b22000e8
:102594005d01070004002100845a88000002eb005a
:1025a400945a880080c0eb0040b420005601070014
:1025b4000080fa0000000600801f7800849fbe009f
:1025c400869fbe000000fa008560a900f45a8000ce
:1025d400e00f5200030032000002eb00f45a8800be
:1025e40007013700151580000408200004826200ea
:1025f400e00f520041003200e64e8000f74e8000aa
:1026040004148000050020000602420087824a006c
:10261400e44e8800f54e88004652800057528000f0
:1026240014148000050020000602420087824a003c
:10263400445288005552880006508000175080008c
:1026440024148000050020000602420087824a000c
:1026540004508800155088002651800037518000ae
:1026640034148000050020000602420087824a00dc
:102674002451880035518800c6568000d756800002
:1026840044148000050020000602420087824a00ac
:10269400c4568800d556880066538000775380005e
:1026a40054148000050020000602420087824a007c
:1026b40064538800755388008654800097548000c2
:1026c40064148000050020000602420087824a004c
:1026d4008454880095548800a6558000b75580001e
:1026e40074148000050020000602420087824a001c
:1026f400a4558800b555880040003700e64e800098
:10270400f74e800084148000050020000602420079
:1027140087824a00e44e8800f54e880046528000c5
:1027240057528000941480000500200006024200e5
:1027340087824a004452880055528800065080001f
:1027440017508000a41480000500200006024200f7
:1027540087824a0004508800155088002651800062
:1027640037518000b41480000500200006024200a6
:1027740087824a002451880035518800c65680005b
:10278400d7568000c41480000500200006024200d1
:1027940087824a00c4568800d55688006653800054
:1027a40077538000d4148000050020000602420004
:1027b40087824a00645388007553880086548000d9
:1027c40097548000e41480000500200006024200b3
:1027d40087824a008454880095548800a655800056
:1027e400b7558000f4148000050020000602420062
:1027f40087824a00a4558800b5558800e45a8000b1
:102804000402e800e45a8800e55a8000f407200036
:10281400848f52007a003600e44e8000f54e80002a
:102824004d2bdd004322de0004027300c32ade00c8
:10283400e44e8800f54e8800e44e8000f54e80009a
:1028440004027800044f88006022b800e44e880037
:10285400f54e880044528000555280004d2bdd0017
:102864004322de0004027300c32ade0044528800bf
:10287400555288004452800055528000040278006a
:10288400645288006022b80044528800555288007f
:1028940004508000155080004d2bdd004322de00e3
:1028a40004027300c32ade00045088001550880017
:1028b40004508000155080000402780024508800e1
:1028c4006022b8000450880015508800245180000c
:1028d400355180004d2bdd004322de0004027300dd
:1028e400c32ade0024518800355188002451800019
:1028f4003551800004027800445188006022b800f9
:102904002451880035518800c4568000d556800073
:102914004d2bdd004322de0004027300c32ade00d7
:10292400c4568800d5568800c4568000d556800009
:1029340004027800e45688006022b800c456880077
:10294400d556880064538000755380004d2bdd00fc
:102954004322de0004027300c32ade0064538800ad
:102964007553880064538000755380000402780016
:10297400845388006022b80064538800755388002b
:1029840084548000955480004d2bdd004322de00ea
:1029940004027300c32ade0084548800955488001e
:1029a400845480009554800004027800a454880064
:1029b4006022b8008454880095548800a45580008f
:1029c400b55580004d2bdd004322de000402730068
:1029d400c32ade00a4558800b5558800a45580009c
:1029e400b555800004027800c45588006022b80000
:1029f400a4558800b55588000002eb00e45a88000d
:102a04000080fa004f03be004f02be004f00780062
:102a1400004006000000fa00000000000000000072
:102a24000000fe000080fa00004006000600fa00e4
:102a340010079800414798004e429000e14f420031
:102a44000d003a001e02900005002800650298005f
:102a54001e0290008002eb00750298001e02900096
:102a640005002800050a98001e0290008002eb0071
:102a7400150a9800220037004e4290000482fb00a1
:102a84000420b00004024200040f78001e00780005
:102a94005400070000027800840278001e029000af
:102aa400750298001e02e800040078004d0007003b
:102ab400000278009e029000e40298004e429000ca
:102ac4000482fb000421b00004024200040f7800d9
:102ad4001e0078004300070000027800840278009a
:102ae4001e029000150a98001e02e80004007800f7
:102af4003c000700000278009e029000840a9800bf
:102b04000080fa00000006000600fa001007980092
:102b1400414798004e429000e14f42000d003a00b8
:102b24001e02900005002800050a98001e0290006d
:102b34008002eb00150a98001e0290000500280090
:102b4400250a98001e0290008002eb00350a9800c6
:102b5400220037004e4290000482fb000422b000a1
:102b640004024200040f78001e0078001d000700d4
:102b740000027800840278001e029000150a980072
:102b84001e02e80004007800160007000002780026
:102b94009e029000840a98004e4290000482fb003a
:102ba4000423b00004024200040f78001e007800e1
:102bb4000c00070000027800840278001e029000d6
:102bc400350a98001e02e80004007800050007009a
:102bd400000278009e029000a40a98000080fa0087
:102be400000006000200fa00000f78000002eb006b
:102bf400040078000080fa00000006001400fa00c7
:102c040040479800310798004207980053079800fe
:102c14006407980075079800060f9800170f98002e
:102c24003e029000f401b300340798000e0b9000ac
:102c34009e0b9000463add00ca32de008502720027
:102c44004632dd006e019000fe0190000400be00db
:102c5400b7f507000002be00048fbe000420200068
:102c6400050020001e03be00840f5300858f5b0007
:102c740003003e0014002000145b8800320037007b
:102c840034802000050020001e03be00840f530082
:102c9400858f5b000d003e0044002000145b88001b
:102ca4001e02be004e2bdd004222de000402730031
:102cb400c22ade00048fbe00be029000e4ff2f0093
:102cc40004826200340798001f003700f4002200d9
:102cd400050020001e03be00840f5300858f5b0097
:102ce4000d003e0004012000145b88001e02be009b
:102cf4004c2bdd004422de0004027300c42ade00f3
:102d0400048fbe00be029000d4ff2f000482620034
:102d1400340798000c00370004042000145b88007a
:102d24001e02be004a2bdd004622de0004027300b0
:102d3400c62ade00048fbe00be029000c4ff2f002e
:102d44000482620034079800041c2000050020005f
:102d54001e03be00840f5300858f5b0008003600fd
:102d6400145b80004322dd00145b8800be029000e7
:102d740034fe2f00048262003407980057003700a5
:102d840004182000050020001e03be00840f530019
:102d9400858f5b0009003600145b80006722b90050
:102da40004027800145b8800be02900074fe2f00b9
:102db400048262003407980048003700041420009d
:102dc400050020001e03be00840f5300858f5b00a6
:102dd40009003600145b80006622b9000402780002
:102de400145b8800be029000b4fe2f0004826200cf
:102df4003407980039003700041020000500200033
:102e04001e03be00840f5300858f5b00090036004b
:102e1400145b80006522b90004027800145b88000a
:102e2400be029000f4fe2f00048262003407980072
:102e34002a003700040c2000050020001e03be00f9
:102e4400840f5300858f5b0008003600145b8000fc
:102e54004222dd00145b8800be02900034ff2f0084
:102e640004826200340798001c0037000408200024
:102e7400050020001e03be00840f5300858f5b00f5
:102e840009003600145b80006322b9000402780054
:102e9400145b8800be02900074ff2f00048262005d
:102ea400340798000d0037000404200005002000ba
:102eb4001e03be00840f5300858f5b00070036009d
:102ec400145b800004024200145b8800be02900080
:102ed400b4ff2f000482620034079800145b800062
:102ee4004222dd00145b88004e429000e14f520004
:102ef40004003a003e029000141188005e03900022
:102f0400061188004e429000e24f520004003a003d
:102f14003e029000441188005e0390003611880040
:102f24000080fa00000006000c00fa004007980038
:102f3400214f98000042eb00044f78002e4a900085
:102f4400e14f520054003a008500a9004e0290005f
:102f5400241188000002eb003407980018003700a1
:102f64003e0290000402e80034079800145b8000dd
:102f7400be029000848f52000300360034c0b300b8
:102f8400044f78000e00370005118000040420006f
:102f940004826200e00f52000300320044c0b30018
:102fa400044f7800060037000411800062026200ba
:102fb400e00f520002003a0014c0b300044f78003e
:102fc4001e427800e04f5200e5ff32002000370037
:102fd4003e0290000402e80034079800145b80006d
:102fe400be029000848f52000300360034c0b30048
:102ff400044f7800160037000511800004042000f7
:1030040004826200e00f52000300320044c0b300a7
:10301400044f78000e0037002504800004102000bf
:1030240004826200e00f52000300320024c0b300a7
:10303400044f78000600370004118000610262002a
:10304400e00f52000200320024c0b300044f7800a5
:103054001e427800e14f5200ddff32001e4278002c
:10306400e24f520005003a002411800005002000c0
:103074001407980025079800070037000400200073
:10308400151121001407980025079800245b80007f
:103094000402e800245b88002e4a9000e24f5200ac
:1030a4004d003a008740a9004e0290005411880058
:1030b4000002eb0034079800180037003e0290002d
:1030c4000402e80034079800145b8000be029000fc
:1030d400848f52000300360034c0b300044f7800dc
:1030e4000e003700351180000404200004826200c1
:1030f400e00f52000300320044c0b300044f7800d4
:10310400060037003411800062026200e00f5200b2
:1031140002003a0014c0b300044f78001e42780045
:10312400e04f5200e5ff3200190037003e029000e4
:103134000402e80034079800145b8000be0290008b
:10314400848f52000300360034c0b300044f78006b
:103154000f0037003511800004042000048262004f
:10316400e00f52000300320044c0b300044f780063
:103174000700370035048000044020000482620008
:10318400e00f52000200320024c0b300044f780064
:103194001e427800e14f5200e4ff32001e427800e4
:1031a400e24f520005003a0054118000050020004f
:1031b4001407980025079800070037000400200032
:1031c400151121001407980025079800345b80002e
:1031d4000402e800345b88001e029000ae029000f6
:1031e4000400be000080fa00000006001400fa008b
:1031f4004047980031079800420798005307980009
:103204006407980075079800060f9800170f980038
:103214004e019000de0190006e009000fe009000d0
:1032240043f407000002be00048fbe001e027800b3
:103234004422dd00545b88006e029000fe02900080
:1032440052cd2d00230320000400be0038f40700f3
:103254000002be001e1f12001e971a000082eb001f
:103264008082eb001e0f42005e974a001e03be00e0
:103274001400200005002000840f5300858f5b009c
:1032840003003e002400200005002000048fbe003f
:10329400f4ff2f00050020001e03be00840f53001e
:1032a400858f5b0003003600240020000500200009
:1032b400048fbe004e429000e04f520003003200e3
:1032c4004e429000e14f520004003a00be029000ca
:1032d400351088001e027800241088000080fa004f
:1032e400000006000600fa00404798000002eb00c8
:1032f400140798004e429000e04f52000300320041
:103304004e429000e14f520013003a000002eb00dd
:10331400040f78000b0037001e0fe800545b800098
:103324009e027800848f52000600360004a02f000d
:1033340014079800445b80000402e800445b8800a2
:103344000500370045108000040024000482620058
:10335400e00f5200f0ff3a001e02900004007800d3
:103364000080fa00000006000600fa0040479800ba
:103374000002eb00140798004e429000e04f520008
:10338400030032004e429000e14f520013003a0015
:103394000602a8000002eb00040f78000b003700bf
:1033a4001e0fe800545b80009e027800848f520058
:1033b4000600360004a02f0014079800445b800028
:1033c4000402e800445b88000400370034108000e5
:1033d40061026200e00f5200f1ff3a001e02900009
:1033e400040078000080fa00000006000600fa00dd
:1033f400404798000002eb00140798004e429000ea
:10340400e04f5200030032004e429000e14f520060
:1034140013003a000622a8000002eb00040f780013
:103424000b0037001e0fe800545b80009e027800fa
:10343400848f52000600360004a02f001407980061
:10344400445b80000402e800445b88000400370009
:103454003410800062026200e00f5200f1ff3a0073
:103464001e029000040078000080fa0000000600ac
:103474000600fa0040479800514798000002eb000c
:10348400140798005e429000e04f5200030032009f
:103494005e429000e14f520028003a004e429000f4
:1034a4000482fb00141088000002eb00040f780073
:1034b4000c0037001e0fe800545b80009e02780069
:1034c400848f52000700360004a02f0014079800d0
:1034d400445b80000402e800445b880000000000b4
:1034e40011003700451080000400240004826200ab
:1034f400e00f5200efff32000b0037001e0fe80010
:10350400545b80009e027800848f520006003600cf
:1035140004a02f0014079800445b80000402e80014
:10352400445b880005003700451080000400240037
:1035340004826200e00f5200f0ff3a001e02900085
:10354400040078000080fa00000006000600fa007b
:10355400404798000002eb00140798004e42900088
:10356400e04f5200030032004e429000e14f5200ff
:103574002b003a000662a8000002eb00040f78005a
:103584000c0037001e0fe800545b80009e02780098
:10359400848f52000700360004a02f0014079800ff
:1035a400445b80000402e800445b880000000000e3
:1035b400100037003410800068026200e00f5200ef
:1035c400f0ff3a000b0037001e0fe800545b800048
:1035d4009e027800848f52000600360004a02f005b
:1035e40014079800445b80000402e800445b8800f0
:1035f400040037004410800062026200e00f5200b1
:10360400f1ff32001e029000e00f520004003a0065
:1036140005108000f40f2000048262001407980053
:103624001e029000040078000080fa0000000600ea
:103634000600fa00404798000002eb0014079800c7
:103644004e429000e04f5200030032004e42900080
:10365400e14f520013003a000642a8000002eb00ba
:10366400040f78000b0037001e0fe800545b800045
:103674009e027800848f52000600360004a02f00ba
:1036840014079800445b80000402e800445b88004f
:10369400040037003410800064026200e00f52001e
:1036a400f1ff3a001e029000040078000080fa0046
:1036b400000006000600fa00404798000002eb00f4
:1036c400040f78000002eb00140798004e429000ab
:1036d400e04f5200030032004e429000e14f52008e
:1036e40012003a0006a2a9000682a8000b003700c7
:1036f4001e0fe800545b80009e027800848f520005
:103704000600360004a02f0014079800445b8000d4
:103714000402e800445b8800040037003410800091
:1037240070026200e00f5200f1ff3a001e029000a6
:10373400040078000080fa00000006000600fa0089
:10374400404798000002eb00040f78000002eb00f1
:10375400140798004e429000e04f520003003200dc
:103764004e429000e14f520012003a0006a2a80017
:103774000682a8000b0037001e0fe800545b80008f
:103784009e027800848f52000600360004a02f00a9
:1037940014079800445b80000402e800445b88003e
:1037a400040037003410800070026200e00f520001
:1037b400f1ff3a001e029000040078000080fa0035
:1037c400000006000400fa00100798001e02900092
:1037d400740390001e029000e40290001e02900008
:1037e400140278000601780085007800040078004f
:1037f4004b02070000027800040f78001e029000bc
:10380400940a90001e029000040a900005017800ba
:10381400840078001e0078002c0207000002780063
:10382400040f78001e029000b40a90001e0290005b
:10383400240a900005017800840078001e007800b6
:103844002202070000027800040f78001e02900094
:1038540024029000e00f520003003a001e02900080
:10386400d4029000050f78001e0290009e0278009a
:10387400150298000080fa00000006000400fa0017
:10388400100798001e029000140b90001e02900076
:10389400840a90001e029000240290000601780021
:1038a40085007800040078001d02070000027800fb
:1038b400040f78001e029000f40290001e02900093
:1038c4006402900005017800840078001e007800ee
:1038d400fe01070000027800040f78001e02900029
:1038e400d40290001e02900044029000050178006a
:1038f400840078001e0078000902070000027800a6
:10390400040f78001e0290009e0278003502980091
:103914000080fa00000006000400fa00000f78009e
:10392400110798001e027800b40290001e02900055
:10393400848f5200030031001e027800b40290000c
:10394400150798001e027800c40290001e02900021
:10395400848f5200030036001e027800c4029000d7
:10396400150798001e0278009e029000050a780050
:103974000080fa00000006000200fa00000f780040
:103984001e027800b40290001e027800240a9000ff
:10399400848f52000200360014002000010037001a
:1039a4000002eb00040078000080fa00000006002a
:1039b4000200fa00000f78001e027800b4029000a2
:1039c4001e027800340a9000848f520002003100f5
:1039d40014002000010037000002eb00040078000e
:1039e4000080fa00000006000400fa0010079800a6
:1039f4001e029000d40a90001e029000440a900017
:103a04000001eb008500780004007800af01070096
:103a140000027800040f78001e029000640a9000ef
:103a24009e0f5200030036001e029000e40a90002c
:103a3400050f780004f02f009e0252001e02900031
:103a4400440a9000848f5200040036001e02900045
:103a5400440a90001e0f42000200370004f02f00b9
:103a6400040f78001e029000340290009e0f520052
:103a7400060036001e029000740a90008402e800da
:103a84001e029000750a9800090037001e0290007b
:103a9400740a9000e00f5200050032001e029000ec
:103aa400740a90008402e9001e029000750a9800ce
:103ab4001e029000f40a90001e029000141290005e
:103ac400848f52000f0039001e029000f40a900007
:103ad4001e0290001412900004024200848f5200cf
:103ae400060039001e0290001412900004024200e5
:103af400840278001e029000750a980014002000c9
:103b0400010037000002eb00040078000080fa0096
:103b1400000006000400fa00100798001e0290003e
:103b2400d40a90001e029000440a90000001eb00a9
:103b34008500780004007800640107000002780022
:103b4400040f78001e029000640a90009e0f520039
:103b5400030036001e029000e40a9000050f78006e
:103b64001e029000440a90009e0f5200040031008f
:103b74001e029000440a90001e0f520002003700fb
:103b84000002eb00040f78001e0290003402900043
:103b94009e0f5200060031001e0290000412900095
:103ba4008402e8001e029000051298000900370004
:103bb4001e02900004129000e00f52000500320033
:103bc4001e029000041290008402e9001e0290007c
:103bd400051298001e029000841290001e029000ac
:103be40014129000848f52000f0039001e029000be
:103bf400841290001e0290001412900004024200ed
:103c0400848f5200060039001e02900014129000a6
:103c140004024200840278001e02900005129800fb
:103c240014002000010037000002eb0004007800bb
:103c34000080fa0000000600100190009000780057
:103c4400010051000000e900f000b200000006008d
:103c5400100190009000780002805000f000b20043
:103c6400000006001170a6001a003700e4014000ad
:103c74009309e800900190001001e800f200b200fe
:103c84000310e10010003200100178006a11b8003e
:103c9400e8014000828141006e8150009219780051
:103ca40066014100b2197800b2197800b21978009f
:103cb400b21978001001e800f200b200020878009e
:103cc400e60140009309e900e60140009309e80099
:103cd4001170a100000006001170a6000900370051
:103ce4006e81500012187800660141003218780085
:103cf4003218780032187800321878001170a10058
:103d040008003700827f210002187800020020009a
:103d14000218780002187800021878000218780057
:103d24003100370000000600e40140009309e80078
:103d3400900190001001e800f200b2000310e100cd
:103d44000e003200100178006a11b800e80140004a
:103d540082814100b1197800b1197800b119780055
:103d6400b1197800b11978001001e800f200b2002e
:103d740002087800e60140009309e900e6014000ea
:103d84009309e800000006001001900090017800fb
:103d94000310e10008003a00837f210083187800b3
:103da40003002000831878008318780083187800b3
:103db400831878000c0037006a11b80068014100cc
:103dc40000014100b2187800b2187800b2187800e7
:103dd400b2187800b2187800100190000201e800cf
:103de400f200b20012009800000006001130a70093
:103df4001300370010019000900178000310e100d7
:103e04000f0032006a11b80068014100000141004e
:103e1400ee815000b2097800e6814100b2197800c1
:103e2400b2197800b2197800b21978001130a000e4
:103e3400100190000201e800f200b20012009800a4
:103e4400000006001130a1006e8150003009780096
:103e54006601410030197800301978003019780073
:103e6400301978001130a000000006000018eb00a3
:103e74000018eb000018eb000008eb00000006003f
:103e84000400fa00100798001e029000c40290007b
:103e9400050f78009e02780004102400848f5200dd
:103ea40007003a001e02900024029000e4578800a4
:103eb4001e02900034029000a458880004003700c9
:103ec400a44d80000402e800a44d88000000000016
:103ed4000080fa00000006000400fa0010079800b1
:103ee4001e029000c4029000050f7800a44d8000cb
:103ef4000402e800a44d88000080fa0000000600d7
:103f04000400fa00100798001e029000c4029000fa
:103f1400050f7800f4ff20001e0f6200a44d8000fe
:103f24000402e800a44d88000080fa0000000600a6
:103f34000000fa000080fa00000006000000fa0009
:103f440034508000a7588000e6578000954a8000ce
:103f5400870178000601780085007800c0042000fd
:103f640059f207000080fa00000006000000fa0081
:103f74007452800057518000164f8000055b80000a
:103f8400870178000601780085007800d0042000bd
:103f94004df207000080fa00000006000000fa005d
:103fa4000080fa00000006000000fa000080fa0019
:103fb4000000060001600100c422b70000000600f2
:103fc400ca22b70000000600d022b7000000060095
:103fd400d622b70000000600000000000000060022
:103fe400e222b70000000600e822b7000000060045
:103ff40000000000000006000080ea0001600100eb
:10400400c422b60000000600ca22b6000000060062
:10401400d022b60000000600d622b600000006003a
:104024000000000000000600e222b60000000600c6
:10403400e822b600000006000000000000000600b0
:1040440001600100c022b70000000600c622b700cc
:1040540000000600cc22b70000000600d222b70000
:10406400000006000000000000000600de22b70089
:1040740000000600e422b700000006000000000073
:10408400000006000080ea0001600100c022b600c2
:1040940000000600c622b60000000600cc22b600ce
:1040a40000000600d222b600000006000000000056
:1040b40000000600de22b60000000600e422b6007e
:1040c4000000060000000000000006000200e000fe
:1040d40005003b0002004000080031000000200001
:1040e400702bec000500370002004000030039008b
:1040f400f0ff2f00702bec00000037000101b80026
:104104006218b8000100e00002003200f0ff2f0046
:10411400702bec00cf10de000100700000000600e0
:104124000200e00005003b000200400008003100ee
:1041340000002000722bec00050037000200400054
:1041440003003900f0ff2f00722bec000000370051
:104154000101b8007018b8000100e000020032004c
:10416400f0ff2f00722bec00cc10de000100700079
:044174000000060041
:020000040000fa
:10417800c40900009e0100000000000000080000c3
:10418800c401000000000000680b000004000000eb
:1041980000000000620b00000600000000000000a4
:1041a8006c0b00000400000000000000700b000011
:0c41b800040000000000000000000000f7
:020000040000fa
:0200000401f009
:04000000ecbb000055
:020000040000fa
:0200000401f009
:04000400e7ff000012
:020000040000fa
:0200000401f009
:040008004cff0000a9
:020000040000fa
:0200000401f009
:04000c00ffff0000f2
:020000040000fa
:0200000401f009
:04001000ffff0000ee
:020000040000fa
:0200000401f009
:04001400ffff0000ea
:020000040000fa
:0200000401f009
:04001800ffff0000e6
:00000001FF
