:020000040000fa
:080000000001040000000000f3
:020000040000fa
:100008003a0c00003a0c00003a0c00003a0c0000d0
:100018003a0c00003a0c00003a0c00003a0c0000c0
:100028003a0c00003a0c00003a0c0000ca0b000021
:100038003a0c00003a0c00003a0c00003a0c0000a0
:100048003a0c00003a0c00003a0c0000e2080000ec
:100058003a0c00003a0c00003a0c00003a0c000080
:100068003a0c00003a0c00003a0c00003a0c000070
:100078003a0c00003a0c00003a0c00003a0c000060
:100088003a0c00003a0c00003a0c0000561300002d
:100098003a0c00003a0c00003a0c00003a0c000040
:1000a8003a0c00003a0c00003a0c00003a0c000030
:1000b800680b00003a0c00003a0c00003a0c0000f3
:1000c8003a0c00003a0c00003a0c00003a0c000010
:1000d8003a0c00003a0c00003a0c00003a0c000000
:1000e8003a0c00003a0c00003a0c00003a0c0000f0
:0800f8003a0c00003a0c000074
:020000040000fa
:100108003a0c00003a0c00003a0c00003a0c0000cf
:100118003a0c00003a0c00003a0c00003a0c0000bf
:100128003a0c00003a0c00003a0c0000ca0b000020
:100138003a0c00003a0c00003a0c00003a0c00009f
:100148003a0c00003a0c00003a0c0000e2080000eb
:100158003a0c00003a0c00003a0c00003a0c00007f
:100168003a0c00003a0c00003a0c00003a0c00006f
:100178003a0c00003a0c00003a0c00003a0c00005f
:100188003a0c00003a0c00003a0c0000561300002c
:100198003a0c00003a0c00003a0c00003a0c00003f
:1001a8003a0c00003a0c00003a0c00003a0c00002f
:1001b800680b00003a0c00003a0c00003a0c0000f2
:1001c8003a0c00003a0c00003a0c00003a0c00000f
:1001d8003a0c00003a0c00003a0c00003a0c0000ff
:1001e8003a0c00003a0c00003a0c00003a0c0000ef
:0801f8003a0c00003a0c000073
:020000040000fa
:100200000fbc20000e7f22000e01880000000000bd
:10021000000020000000e000020032000001200089
:10022000200288000c000700e0ae22000100200040
:1002300011000700000020000000e0000200320072
:100240000000020000000000da01020000000000cf
:100250000040da000000fe004440a9000002200037
:100260000000e0000300320000002000a001880030
:100270004440a8000000060091018800800078003a
:100280000000eb0015003700e280400032a0b4000f
:100290009101ba00e280400032a0b4009102ba009d
:1002a000e280400032a0b4000002eb00472bde00e9
:1002b000f507b200602ce10004003a000059eb00a1
:1002c0008301e900fdff3e00040037006128e100e2
:1002d000010032000082eb00040007001101ba00a7
:1002e0000200e000e8ff3a00000006003159ba00c1
:1002f0008301e9000c0032002159ba008301e900b2
:10030000080032000400e00003003a00e2804000f0
:1003100032a0b400f5ff370011d9ba008301e9001b
:10032000faff3a008100e800e180400032a0b4000a
:10033000000006006022b800060220000000d00085
:100340008180d2000482d2008582d2000000a00009
:100350000202520083825a0003003100020242006e
:1003600083824a000000a1000603e900f3ff3a007f
:040370000000060083
:020000040000fa
:100374000000000000800000000000000080000079
:100384000000000000800000000000000080000069
:100394000000000000800000000000000080000059
:1003a4000000000000800000000000000080000049
:020000040000fa
:1003b4000000fa00a4002000945b880001000700fc
:1003c400feff37000000fa00945b80006123b80050
:1003d40064ff2f00f5ff2f000602420087824a00c7
:1003e4002603200007002000860f5200878f5a0042
:1003f400ca003e000460010032003700c700370025
:10040400c6003700c5003700c4003700c3003700fa
:10041400c2003700c1003700c0003700bf003700fa
:1004240030003700bd003700bc003700bb00370088
:10043400ba003700b9003700b8003700b7003700fa
:10044400b6003700b500370036003700b300370078
:10045400b2003700b1003700b0003700af003700fa
:10046400ae003700ad003700ac003700ab003700fa
:100474003d003700a9003700a8003700a700370067
:10048400a60037005a003700a4003700a300370045
:10049400a2003700a1003700580037009f00370042
:1004a4009e0037009d0037009c003700770037001e
:1004b4009a003700990037009800370097003700fa
:1004c4008400370062010700330307008849a8004d
:1004d4008809a8008969a90044012000945b880068
:1004e400910037002c0307008809a8008969a90036
:1004f400080037008e0007001a050700444c8000ee
:1005040064026200e00f520002003a00e40120009d
:10051400945b8800945b8000f40f5200f5ff320076
:10052400810037001c0307008809a8008969a90015
:10053400090037007e0007000a050700a5168000a1
:100544000410200004826200e00f520002003a000e
:1005540084022000945b8800945b8000fe0f5200ac
:10056400f4ff320070003700f80207008809a80081
:100574008969a9000002eb00245c88001700370099
:100584006b000700f7040700255c8000341f20007f
:10059400848f520002003600d4022000945b88004d
:1005a400255c8000341f2000848f52000b0036002d
:1005b400454c80000410200004826200e00f5200c9
:1005c4000300320024032000945b880003003700fa
:1005d40074032000945b88008ae9a800955b80007e
:1005e40084022000848f5200e5ff32004e00370061
:1005f40024032000945b88004b003700a49820005b
:100604008002eb00050a78008809a9008969a9001d
:100614001900370046000700d2040700145c80006c
:10062400e00f52000200320074032000945b880043
:10063400b45b8000e00f52000f003200c0b0200015
:10064400800e070040b220007e0e0700345980005f
:100654007558800033032000050178002103200031
:10066400409d2000730c07000002eb00c45b88006f
:100674000002eb00b45b8800955b8000240320003b
:10068400848f5200e3ff320027003700c2020700c4
:100694008809a8008969a8000002eb00345c88007e
:1006a4000700370022000700ae040700345c800016
:1006b400e90f520002003600c4032000945b880056
:1006c400955b800074032000848f5200f5ff320094
:1006d40015003700b00207008809a8008969a8003e
:1006e40009003700120007009e040700a5168000c9
:1006f4000410200004826200e00f52000200320065
:1007040044012000945b8800955b8000c4032000b2
:10071400848f5200f3ff320003003700c40320002b
:10072400945b8800000000000080fa0000000600ce
:100734000000fa00350480000404200004826200f2
:10074400e00f5200c000320086c0a900444c800073
:1007540061026200e00f520002003200e982a90047
:1007640001003700e982a800955b80008402200024
:10077400848f520009003a00245c80000402e800df
:10078400245c8800255c8000341f2000848f520084
:1007940002003600441f2000245c880015168000e7
:1007a4000400280004826200e00f520002003200bc
:1007b4008909a800010037008909a9000002eb009b
:1007c400145c8800444c800062026200e00f520016
:1007d400030032008b09a80014002000145c880078
:1007e400a51680000400280004826200e00f520075
:1007f40002003a008949a800010037008949a9008c
:10080400a51680000410200004826200e00f52004c
:10081400020032008989a800010037008989a900f3
:10082400955b800074032000848f520008003a0016
:10083400345c80000402e800345c8800345c80008e
:10084400e90f520002003600a4002000345c880046
:10085400955b800024032000848f52000400320042
:10086400955b800074032000848f520038003a00a6
:10087400a51680000400220004826200e00f5200ea
:10088400030032008a09a80014002000145c8800c8
:10089400a51680000400280004826200e00f5200c4
:1008a40003003a008a49a80014002000145c880060
:1008b400a51680000400240004826200e00f5200a8
:1008c400030032008a69a80014002000145c880028
:1008d400a51680000420200004826200e00f52006c
:1008e400030032008a89a80014002000145c8800e8
:1008f400a51680000440200004826200e00f52002c
:10090400030032008aa9a80014002000145c8800a7
:10091400a51680000400210004826200e00f52004a
:10092400030032008ac9a80014002000145c880067
:10093400a51680000410200004826200e00f52001b
:10094400030032008a29a80014002000145c8800e7
:10095400c09e2000e90d070000a12000e70d07005c
:1009640040a32000e50d070080a52000e30d07004b
:10097400944f8000444b8800b4508000544b88004e
:10098400d4518000644b8800f4528000744b88007a
:10099400d45b8000844b8800e45b8000944b880027
:1009a400f45b8000a44b880024598000b44b880079
:1009b400945b8000c44b8800c45b80000402e800a0
:1009c400c45b8800955b800024032000848f520060
:1009d4000c003200c0b020009a0d070040b2200085
:1009e400980d0700345980007558800033032000a7
:1009f4000501780021032000409d20008d0b070095
:100a040011003700c55b8000740c2000848f5200f5
:100a14000d0036000002eb00c45b8800c0b020006b
:100a2400880d070040b22000860d0700345980006d
:100a3400755880003303200005017800210320004d
:100a4400409d20007b0b07000080fa000000060098
:100a54000200fa00a49820008002eb00050a780046
:100a6400849820008002eb00050a78000002eb0065
:100a7400644c88000002eb00744c88000002eb0018
:100a8400044d880014002000f44c88004400200029
:100a9400144d8800340580000400a0000410a00058
:100aa4000420a000340588008260a900c4048000ea
:100ab40004c0a10004d0a00004e0a000c404880085
:100ac400a404800004c0a00004d0a10004e0a0009d
:100ad400a404880004602f0004168800b4072f00c3
:100ae40034168800240020006416880004702f0047
:100af40094168800341c2000f4168800c4002c00ce
:100b0400241788000002eb00040888008460a90010
:100b1400d4f9250024088800440d2300e408880043
:100b24000002eb00c408880086c0a900d4f92d0097
:100b3400040988002400200045002000849fbe0092
:100b440006002800c7002000045a22006502200085
:100b5400026829008309200011c0b300409d2000d1
:100b6400430a0700e487570006a821006700200015
:100b74000468290085092000030022000041eb00dd
:100b840001cab300809e2000430707003b0607000c
:100b9400809e200033060700f4ff2700841f78009e
:100ba4008083eb00060028008002eb000082eb004b
:100bb40080c1eb000001eb0001482000c09e200032
:100bc400990c07008f87e900f4ff2700841f780041
:100bd4008083eb00060028008002eb000082eb001b
:100be40080c1eb000001eb000148200000a12000bf
:100bf4008d0c07008f87e900f4ff2700841f78001d
:100c04008083eb00060028008002eb000082eb00ea
:100c140080c1eb000001eb00d166200040a320005e
:100c2400810c07008f87e90044062000841f7800a8
:100c34008083eb00060028008002eb0084ea2d008c
:100c440080c1eb000271220001c8200080a52000b1
:100c5400750c07008f87e900f4ff2700841f7800d4
:100c64008083eb0006002800052c210004452100a8
:100c740080c1eb000001eb0001202000c0a7200090
:100c8400690c07008f87e900f4ff2700841f7800b0
:100c94008083eb0006002800458a2300c4c8230093
:100ca40080c1eb000001eb002140200000aa2000dd
:100cb4005d0c07008f87e900f4ff2700841f78008c
:100cc4008083eb0006002800458a2300c4c8230063
:100cd40080c1eb000001eb000110200040ac2000bb
:100ce400510c07008f87e900f4ff2700841f780068
:100cf4008083eb000600280005e02700042028007c
:100d040080c1eb000001eb000100210080ae200057
:100d1400450c07008f87e9000003eb0085bb20002a
:100d24000465240080c1eb000001eb0081f6220081
:100d3400c0b02000890c07000003eb0085bb200035
:100d44000465240080c1eb000001eb0081f6220061
:100d540040b22000810c07000003eb008002eb008e
:100d64000471220080c1eb000001eb005155250005
:100d7400c0b32000790c07000003eb008002eb00f5
:100d84000082eb0080c1eb000001eb0001002100b8
:100d940040b52000710c070081bb2000c0b32000c7
:100da400fd0c07000100280040b52000fa0c0700e4
:100db40014002000045a880014002000c45a88003b
:100dc400c0b320009f0c070040b520009d0c070015
:100dd400b45a8000f55980001303200005017800ff
:100de40001032000409d2000920a0700f4cf270051
:100df40004158800e4fd26001415880074f820000a
:100e040044158800343e2e003415880034f52f0034
:100e14002415880004002f00541588008560a9005b
:100e24008d60a800a1e2a8000002eb00040f780086
:100e340026003700cb02070035048000040420009c
:100e440004826200e00f52000200320086c0a90052
:100e54001e0fe8001e0278004422de0063026200d6
:100e6400050020003600200007002000860f5200f5
:100e7400878f5a0015003e0004600100030037000c
:100e840006003700090037000c003700c4e2a80050
:100e9400e982a800e9a2a8000c003700c4e2a90076
:100ea400e982a800e9a2a80008003700c4e2a9006a
:100eb400e982a900e9a2a80004003700c4e2a9005d
:100ec400e982a900e9a2a900000000000419200099
:100ed4009e027800848f5200d6ff3600c4e2a90037
:100ee400c0a72000850c070000aa2000830c07007f
:100ef40040ac2000810c070080ae20007f0c07006e
:100f04005456800085a92300048252000001eb009e
:100f140001802200040078009a1107000002780082
:100f240085562c0005024200545688008869a900a1
:100f3400c0a72000b00c070000027800e00f5200a8
:100f4400040032008869a8001100200020962000c7
:100f5400ee020700c0a72000b50c070000027800cd
:100f6400e00f5200040032008869a800210020002c
:100f740020962000e502070000aa20009e0c07002e
:100f840000027800e00f5200040032008869a800d3
:100f94004100200020962000dc02070000aa200067
:100fa400a30c070000027800e00f52000400320096
:100fb4008869a8008100200020962000d302070041
:100fc40040ac20008c0c070000027800e00f5200b7
:100fd400040032008869a800010120002096200046
:100fe400ca02070040ac2000910c07000002780000
:100ff400e00f5200040032008869a80001022000ba
:1010040020962000c102070080ae20007a0c070061
:1010140000027800e00f5200040032008869a80042
:101024000104200020962000b802070080ae2000b2
:101034007f0c070000027800e00f52000400320029
:101044008869a8000108200020962000af0207004c
:1010540014548000044c880034558000144c8800db
:1010640054568000244c880074578000344c880007
:10107400a1e2a900840720005415880084442e00ae
:10108400241588008560a9008d60a800a1e2a8004d
:1010940083b82000020120008000eb00809e200025
:1010a400eb07070000000000000000000000000043
:1010b4000000000083b8200002012000110020007d
:1010c400809e2000e20707000000000000000000ee
:1010d400000000000000000083b82000020120008e
:1010e40021002000809e2000d90707000000000096
:1010f40000000000000000000000000083b8200091
:101104000201200031002000809e2000d00707004b
:1011140000000000000000000000000000000000cb
:1011240083b82000020120008000eb00809e200094
:10113400c7070700000000000000000000000000d6
:10114400000000000080fa00000006000000fa0021
:10115400140020008458880014002000445988009a
:10116400d602a800d622a90005e1a90074b7200080
:10117400140888000002eb00040888008460a900b9
:101184008c60a80005e1a8008880a9009080a800d0
:101194000080fa00000006000000fa000002eb00e4
:1011a400845888000002eb00445988009080a9000c
:1011b400d602a900d622a8000080fa00000006008a
:1011c400801f7800849fbe00869fbe000000fa0046
:1011d4008560a900745b8000e00f520003003200b8
:1011e4000002eb00745b88003301370015158000a2
:1011f4000408200004826200e00f5200550032000f
:10120400945b8000ea0f520029003a0046578000a0
:101214005757800005148000441480000482420063
:10122400050020000602420087824a0044578800d5
:1012340055578800e6538000f7538000151480004a
:10124400541480000482420005002000060242007b
:1012540087824a00e4538800f553880006558000cd
:101264001755800025148000641480000482420015
:10127400050020000602420087824a0004558800c7
:101284001555880026568000375680003514800096
:10129400741480000482420005002000060242000b
:1012a40087824a0024568800355688007d0037001e
:1012b400664f8000774f800005148000441480003e
:1012c40004824200050020000602420087824a0090
:1012d400644f8800754f8800c6528000d752800042
:1012e400151480005414800004824200050020007c
:1012f4000602420087824a00c4528800d552880000
:10130400865080009750800025148000641480006b
:1013140004824200050020000602420087824a003f
:101324008450880095508800a6518000b7518000f1
:1013340035148000741480000482420005002000eb
:101344000602420087824a00a4518800b5518800f1
:1013540054003700945b8000ea0f520029003a00e1
:10136400465780005757800085148000c4148000bd
:1013740004824200050020000602420087824a00df
:101384004457880055578800e6538000f75380007f
:1013940095148000d41480000482420005002000cb
:1013a4000602420087824a00e4538800f55388000d
:1013b4000655800017558000a5148000e4148000b1
:1013c40004824200050020000602420087824a008f
:1013d400045588001555880026568000375680002d
:1013e400b5148000f414800004824200050020003b
:1013f4000602420087824a00245688003556880037
:1014040028003700664f8000774f800085148000e5
:10141400c414800004824200050020000602420039
:1014240087824a00644f8800754f8800c652800046
:10143400d752800095148000d414800004824200a6
:10144400050020000602420087824a00c452880038
:10145400d55288008650800097508000a5148000e3
:10146400e4148000048242000500200006024200c9
:1014740087824a008450880095508800a6518000d5
:10148400b7518000b5148000f41480000482420037
:10149400050020000602420087824a00a451880009
:1014a400b5518800645b80000482e800645b8800b6
:1014b400655b8000f4072000848f52007e003600b4
:1014c400945b8000ea0f52003d003a0044578000cc
:1014d400555780004d2bdd004322de0004027300cb
:1014e400c32ade00445788005557880044578000bb
:1014f4005557800004027800645788006022b800c1
:101504004457880055578800e4538000f553800001
:101514004d2bdd004322de0004027300c32ade00eb
:10152400e4538800f5538800e4538000f5538000a9
:1015340004027800045488006022b800e453880050
:10154400f553880004558000155580004d2bdd00af
:101554004322de0004027300c32ade00045588001f
:101564001555880004558000155580000402780044
:10157400245588006022b800045588001555880059
:1015840024568000355680004d2bdd004322de00ba
:1015940004027300c32ade002456880035568800ee
:1015a4002456800035568000040278004456880092
:1015b4006022b80024568800355688003c00370065
:1015c400644f8000754f80004d2bdd004322de0008
:1015d40004027300c32ade00644f8800754f88003c
:1015e400644f8000754f800004027800844f8800a7
:1015f4006022b800644f8800754f8800c452800090
:10160400d55280004d2bdd004322de00040273001e
:10161400c32ade00c4528800d5528800c452800018
:10162400d552800004027800e45288006022b80099
:10163400c4528800d55288008450800095508000a0
:101644004d2bdd004322de0004027300c32ade00ba
:101654008450880095508800845080009550800004
:1016640004027800a45088006022b80084508800e6
:1016740095508800a4518000b55180004d2bdd00a9
:101684004322de0004027300c32ade00a451880052
:10169400b5518800a4518000b5518000040278003f
:1016a400c45188006022b800a4518800b551880054
:1016b4000002eb00645b88000080fa004f03be0068
:1016c4004f02be004f00780000400600841f7800df
:1016d4000000fa00d602a90005e1a9000002eb000f
:1016e40004088800140420001408880005e1a800f8
:1016f4008460a900b45b8000e00f52000300320054
:10170400e45b80000402e800e45b88006404800079
:1017140068026200e00f520003003200f45b8000b4
:101724000402e800f45b88008c60a900000000005b
:101734002404800068026200e00f5200fcff3200c3
:10174400d602a80005e1a9000002eb000408880005
:101754008460a9008c60a80074b720001408880075
:1017640005e1a80014002000b45b880014002000e8
:10177400745b8800d45b80000402e800d45b8800ba
:101784008880a9000080fa004f027800004006001b
:101794003600f800809fbe00829fbe00849fbe007a
:1017a400869fbe000000fa008460a9008c60a90036
:1017b40005e1a900151680000400280004826200d7
:1017c400e00f520023003a00200320000100200013
:1017d400a50f07001516800004002800048262008b
:1017e400e00f52001b003a002003200001002000fb
:1017f4009d0f070015168000040028000482620073
:10180400e00f520013003a002003200001002000e2
:10181400950f07001516800004002800048262005a
:10182400e00f52000b003a002003200001002000ca
:101834008d0f070015168000040028000482620042
:10184400e00f520003003a00845b80000402e800c9
:10185400845b88000080fa004f03be004f02be0084
:101864004f01be004f00be003600f90000400600e4
:101874000000fa0000000000000000000000fe006c
:101884000080fa00004006002000fa00a41b280093
:101894000f000900341f78000e02b10004408000dc
:1018a4008e017800020120008000eb000400780023
:1018b40047050700044080008e01780002012000e3
:1018c4001100200004007800410507000440800056
:1018d4008e0178000201200021002000040078001d
:1018e4003b050700044080008e01780002012000bf
:1018f4003100200004007800350507000440800012
:101904008e017800020120004100200004007800cc
:101914002f050700044080008e017800020120009a
:1019240051002000040078002905070004408000cd
:101934008e0178000201200061002000040078007c
:1019440023050700044080008e0178000201200076
:1019540071002000040078001d0507000080fa00d3
:10196400000006000000fa002e000700eb0107004b
:10197400c10007001c000700144e8000e44a8800e0
:10198400e54a8000e44d800004824200e44a880075
:10199400e54a8000f44d800004824200e44a880055
:1019a400e54a8000044e800004824200e44a880034
:1019b400e54a8000c44d800004824200e44a880065
:1019c400e54a8000b44d800004824200e44a880065
:1019d400e54a8000a44d800004824200e44a880065
:1019e4000080fa00000006000000fa0025048000d0
:1019f4000408200004826200e00f52000700320055
:101a040084e0a900144e80000402e800144e88000b
:101a1400144e8000845d88008829a8000080fa00a4
:101a2400000006000a00fa002d0037008e0078003e
:101a340020802000e60d07009e0278008407200025
:101a44008482620004022000848f52000400320069
:101a5400c44d80000402e800c44d88002000370013
:101a64009e027800044a2100848f520003003a0049
:101a74000e0078008f000700190037009e027800de
:101a8400045a2100848f520003003a000e007800ab
:101a94003f000700120037009e0278000462210014
:101aa400848f520003003a000e007800bb00070048
:101ab4000b0037009e027800c4c7210084826200b4
:101ac40004022100848f520005003a000e007800c1
:101ad4002f000700a44d80000402e800a44d8800f4
:101ae400208020006c0d070000027800e00f5200f7
:101af400ceff3a0084458000e44d880044408000d5
:101b0400f44d88000080fa00000006000400fa008a
:101b1400000f7800110798001e02780094027800e4
:101b24001e02900004037800050373008602780007
:101b34001e027800050a78000080fa000000060002
:101b44000400fa00000f7800110798001e027800c4
:101b5400940278001e0290000482ea0084826200eb
:101b64001e027800050a78000080fa0000000600d2
:101b74000400fa00000f7800110798001e0290007c
:101b84001e026200040078000080fa0000000600d3
:101b94000400fa00100798001e029000c40290008e
:101ba400050f780004002f009e0262000400240048
:101bb400848f520004003200b44d80000402e80017
:101bc400b44d88002a003700f4ff20009e02620012
:101bd400f40f2000848f520004003e00b44d8000b6
:101be4000402e800b44d880021003700f4ff20000f
:101bf4009e026200f42f2000848f520003003e00f6
:101c04001e009000b00d070019003700f4ff2000fb
:101c14009e026200f43f2000848f520004003e00c4
:101c2400b44d80000402e800b44d88001000370071
:101c3400f4ff20009e026200f4ef2000848f520023
:101c440008003600f4ff20009e026200f4f7200032
:101c5400848f520003003e001e0090008f00070096
:101c640003003700b44d80000402e800b44d88003e
:101c74000080fa00000006000000fa00644e8000b4
:101c8400e00f520005003a00444c800061026200fb
:101c9400e00f520001003200bc000700444c8000f9
:101ca400614262000482fb00644e88000080fa00f6
:101cb400000006000400fa00100798001e029000bd
:101cc400c4029000050f780004002f009e026200f9
:101cd40004002400848f520004003200b44d8000bc
:101ce4000402e800b44d880013003700f4ff20001c
:101cf4009e026200f4072000848f520003003e001d
:101d04001e0090000e0007000b003700f4ff2000b7
:101d14009e026200f40f2000848f520003003e00f4
:101d24001e009000830d070003003700b44d8000af
:101d34000402e800b44d88000080fa0000000600a8
:101d44000400fa00100798001e029000c4029000dc
:101d5400050f7800f4ff20001e0f62001e027800b9
:101d6400e10f520003003200e30f5200030032007f
:101d7400040037000000fe0006003700c2fe070022
:101d840004003700b44d80000402e800b44d88001c
:101d9400000000000080fa00000006000600fa00bf
:101da400200798002e029000c4029000050f7800ce
:101db4002e0290008002eb00150298002e02900083
:101dc4008002eb00250298002e0290008002eb00b6
:101dd4003502980004002f009e02620004002400d3
:101de400848f520004003200b44d80000402e800e5
:101df400b44d8800270037002e029000c4029000e2
:101e0400f4ff200004826200140798009e029000f0
:101e1400f41f2000848f5200070036009e029000b9
:101e2400f42f2000848f520003003e002e00900007
:101e34004a0d07000f0037009e029000f4ef2000c7
:101e4400848f5200070036009e029000f4f72000b1
:101e5400848f520003003e002e00900030000700e3
:101e640004003700b44d80000402e800b44d88003b
:101e740008003700ae009000a08a2000bc0c0700c8
:101e8400741b800068026200e00f520001003a00f7
:101e94008760a8000080fa00000006000800fa002d
:101ea400300798003e029000c4029000f40f200016
:101eb400048f62003e02900094029000150798007f
:101ec4003e029000a4029000250798000440800080
:101ed4001e0190009e007800040078008b02070029
:101ee4009e02e800044080002e01900085007800e6
:101ef4000400780085020700be009000a08a20003c
:101f04009b0c0700741b800068026200e00f520003
:101f140001003a008760a8000080fa000000060073
:101f24000800fa00300798003e029000c4029000b6
:101f3400f40f2000048f6200044080009e007800ab
:101f440004007800f80207000002780014079800e3
:101f54009e02e800044080008500780004007800b8
:101f6400f102070000027800240798003e02900066
:101f74009e029000150298003e029000ae0290006e
:101f8400250298000080fa00000006000a00fa000a
:101f940044822a00040f78008498200014027800f8
:101fa40014079800a49820001402780024079800cd
:101fb400040a2a0034079800040b2b0044079800f5
:101fc400e13520000e007800b00c0700444d80007d
:101fd4000402e800444d88000080fa000000060076
:101fe4000200fa00000f7800449c20009e02780052
:101ff40095029000050a78001e027800a402900061
:10200400449c2000150298001e027800b40290003f
:10201400449c200025029800449c20008082eb0010
:10202400350298000060fe008829a9000002eb0038
:10203400540888000080fa00000006001400fa002a
:10204400500798006107980072079800030f9800e2
:10205400140f98005e0290006f026200540798000b
:10206400de02900004042000050272005407980068
:102074005e0290000402420054079800de029000c1
:102084000460200005027200540798005e0290006c
:102094004222dd00540798005e029000040f78008d
:1020a4009e02780004f02f0004826200040f78007e
:1020b4001e0278004322dd00040f78009e0278009f
:1020c4005e039000f40f2000040263000502720016
:1020d400040f78001e0a9000140798000e0a90005e
:1020e400240798007e029000340798006e02900046
:1020f400440798008e007800a08a20001c0c07007a
:10210400741b800068026200e00f520001003a0074
:102114008760a8000080fa00000006000000fa00b2
:10212400250480000404200004826200e00f5200b1
:102134009f00320084c0a900744e80000402e800ad
:10214400744e8800744e80006f026200744e8800e2
:102154008eff0700744e800005002000f60020006a
:1021640007002000860f5200878f5a0090003e001f
:10217400046001000f00370018003700200037000a
:1021840029003700320037003b0037004400370095
:102194004d003700560037005f00370068003700f5
:1021a400710037007a0037007b0037007c0037006d
:1021b4007d003700f44a8000e74a8000d64a800058
:1021c400c54a800087017800060178008500780000
:1021d4000000eb0099ff070075003700164b8000e4
:1021e400054b80000002eb008001eb000601780043
:1021f400850078001000200090ff07006c00370075
:10220400744b8000674b8000564b8000454b800028
:1022140087017800060178008500780020002000fe
:1022240086ff070062003700b44b8000a74b800094
:10223400964b8000854b800087017800060178006a
:1022440085007800300020007cff0700580037002c
:10225400f44b8000e74b8000d64b8000c54b8000d8
:10226400870178000601780085007800400020008e
:1022740072ff07004e003700344c8000274c80006a
:10228400164c8000054c8000870178000601780018
:10229400850078005000200068ff070044003700e4
:1022a400544d8000474d8000364d8000254d800000
:1022b40087017800060178008500780080002000fe
:1022c4005eff07003a003700944d8000874d800080
:1022d400764d8000654d8000870178000601780006
:1022e400850078009000200054ff0700300037007c
:1022f400d44d8000c74d8000b64d8000a54d8000b0
:10230400870178000601780085007800a00020008d
:102314004aff070026003700144e8000074e800055
:10232400f64d8000e54d80008701780006017800b5
:1023340085007800b000200040ff07001c00370033
:10234400d44c8000c74c8000b64c8000a54c800063
:10235400870178000601780085007800600020007d
:1023640036ff070012003700144d8000074d80002f
:10237400f64c8000e54c8000870178000601780067
:1023840085007800700020002cff0700080037004b
:10239400030c0700060037000d0c0700040037008b
:1023a400170c070002003700180c0700000000009b
:1023b4000080fa00000006000e00fa0050079800a2
:1023c400610798000002eb00040f78006e02900091
:1023d400240798005e02900014079800e13420005e
:1023e4000e007800a90b0700544d80000402e80099
:1023f400544d88000080fa00000006001000fa0026
:1024040050079800610798007207980044022a0058
:10241400040f78007e029000140798005e0290007a
:10242400240798006e029000e10f520003003a0066
:1024340004102e00440798000200370014102e00e8
:1024440044079800e13420000e0078008f0b070049
:10245400544d80000402e800544d88000080fa00c6
:10246400000006000200fa00000f78001e02780047
:10247400044088000080fa00000006000000fa0012
:10248400043a800061026200e00f520004003a0046
:10249400043a800062026200e00f5200050032003c
:1024a4000002eb00745d88000002eb00845d88008c
:1024b40003003700745d80000402e800745d880046
:1024c400449c20008002eb00050a7800449c200014
:1024d4001500200015029800449c200025002000cf
:1024e40025029800449c2000350020003502980005
:1024f4004007a9004027a90040c7a90040e7a90058
:1025040041e7a9004087a90041c7a900745d800084
:10251400044b8800845d8000144e88008f60a900fd
:102524008760a9000405800004c0a10004d0a100b4
:1025340004e0a000040588000002eb00b41c88003d
:102544009803a8009823a8009843a80098a3a8007b
:1025540020802000570b0700a08a2000550b07009d
:1025640004402000841c880000000000851c8000ba
:10257400040e20008482620004082000848f52002c
:10258400faff3a0014002000941c8800143920003b
:10259400a41c88001480210084198800d487210099
:1025a400c41988000002eb0004188800048020008d
:1025b400441888000402210084188800c47f210084
:1025c400c4188800c47f210004198800c47f210036
:1025d4004419880014002000741b88002400200083
:1025e400f41a880034002000741a8800040c2000b7
:1025f400241b8800040c2000a41a8800040c20006a
:10260400241a88000002eb00741c88000002eb000e
:10261400f41b88000002eb00841c8800000000000a
:10262400851c8000040e200004826200e00f52002a
:10263400fbff3a008f60a80054fb25008408880043
:1026440024f42000640888000002eb0034088800a9
:1026540084c0a9008cc0a90011e1a800d4fb250006
:1026640094088800546222007408880084e0a90059
:102674008ce0a90013e1a8000002eb00a44c880040
:10268400c4e52800b44c88000002eb00c44c880068
:1026940014042000d44c880044062000e44c880034
:1026a4000080fa00000006003600f800809fbe009b
:1026b400829fbe00849fbe00869fbe00889fbe008e
:1026c4004400f8004200f8000a00fa008760a900fc
:1026d400944d80000402e800944d8800751c80002d
:1026e4000408200004826200e00f5200240032003b
:1026f400741c800061026200e00f52000f003a0077
:10270400644d80000402e800644d8800e138200034
:102714000e0078002802800019028000800a070059
:1027240019028800280288003e029000944a88001a
:102734004e029000a44a880010003700744d8000b7
:102744000402e800744d8800e13820000e0078008f
:102754002802800019028000710a0700190288000b
:10276400280288000e0078002802800019028000e8
:102774001bfe070019028800280288009603a9009e
:10278400f51b80000408200004826200e00f520060
:102794000b003200844d80000402e800844d880060
:1027a400e1372000208020002802800019028000e8
:1027b4003e0a070019028800280288009623a9000f
:1027c400741b800068026200e00f520014003a009b
:1027d400a08a200028028000190280002e0a070027
:1027e400190288002802880000027800e00f5200d5
:1027f4000b003200e1362000a08a2000280280006d
:10280400190280008b0a0700190288002802880038
:102814009643a900d44d80000402e800d44d8800fa
:10282400b51c80000402200004826200e00f520004
:1028340005003200344d80000402e800344d880065
:1028440096a3a90008003700451780000400220061
:1028540004826200e00f520002003200e9a2a900e3
:1028640001003700e9a2a800d41c8000244d880090
:102874000080fa004200f9004400f9004f04be0051
:102884004f03be004f02be004f01be004f00be000a
:102894003600f900004006000e00fa00000f780030
:1028a400214798003247980023079800340798007e
:1028b4004507980056079800670798001e0278009d
:1028c400ae429000054a78001e027800be42900095
:1028d400154298001e027800ae029000150298007e
:1028e4001e027800144090006033b8003e0290004d
:1028f400ce0290005e019000ee01900001022b00d8
:10290400690807000080fa00000006001200fa00bf
:102914006007980071079800020f98006e029000fb
:10292400140290008402d1007e029000848f520031
:10293400790036000e0a90004822de0064479800b1
:102944000e0a9000744798007e0290000402420030
:10295400440798004e0290004822de00244f98005d
:102964004e029000344f980014002000040f7800a9
:102974006e0290001442900004407800880807001a
:1029840000027800040f78006e0290001442900058
:1029940004407800a3080700000278001e0f7200ac
:1029a4006e029000944290006e02900014427800ef
:1029b4008540780004407800dc08070000027800b5
:1029c4001e0f7200441080004f22de000442780083
:1029d4000482fb00240798000002eb00140798000f
:1029e400230037006e0290001442900004407800e7
:1029f4003e090700000278001e0f72006e0290006c
:102a04001442900004407800650807000002780032
:102a1400040f78006e029000144290000440780085
:102a240080080700000278001e0f72006e029000fa
:102a3400944290006e029000144278008540780021
:102a440004407800b9080700000278001e0f7200e5
:102a5400441080004f22de00044278000482fb0010
:102a6400240798001e0290000402e800140798004e
:102a74002e029000e00f5200040032009e029000eb
:102a8400840c2000848f5200d6ff36006e02900022
:102a940014429000844078002e489000a308070058
:102aa400000278001e0f72006e0290001442900023
:102ab400844078003e4890009c080700000278009b
:102ac4001e0f72006e029000144290008440780041
:102ad4007e40900095080700000278001e0f7200e7
:102ae4006e02900014429000844078006e40900082
:102af4008e080700000278001e0f72006e0290001c
:102b04001442900004407800f8080700000278009e
:102b14001e0f7200020037000082eb00040f7800e1
:102b24000080fa00000006001000fa006007980018
:102b3400710798006e029000140290008402d10084
:102b44007e029000848f52008c0036007e0290003a
:102b540004024200440798004e0290004822de001e
:102b6400244f98004e029000344f98006e0290005b
:102b7400144290000440780009080700000278001d
:102b8400040f78006e029000144290000440780014
:102b940024080700000278001e0f72006e029000e5
:102ba400944290006e0290001442780085407800b0
:102bb400044078005d080700000278001e0f7200d0
:102bc400441080004f22de00044278000482fb009f
:102bd400340798000002eb00240798002300370014
:102be4006e0290001442900004407800bf08070071
:102bf400000278001e0f72006e02900014429000d2
:102c040004407800e607070000027800040f78000b
:102c14006e029000144290000440780001080700fe
:102c2400000278001e0f72006e0290009442900021
:102c34006e029000144278008540780004407800c9
:102c44003a080700000278001e0f7200441080004a
:102c54004f22de00044278000482fb00340798000f
:102c64002e0290000402e800240798003e0290001f
:102c7400e00f520004003200ae029000840c2000e9
:102c8400848f5200d6ff36006e02900014429000ea
:102c9400844078002e489000240807000002780041
:102ca4001e0f72006e02900014429000844078005f
:102cb4003e4890001d080700000278001e0f7200b5
:102cc4006e0290001442900004407800f60707005a
:102cd400000278001e0f72006e0290009442900071
:102ce4006e029000144278000404a000854078002d
:102cf400044078000d080700000278001e0f7200df
:102d04006e02900014429000044078003e080700d0
:102d140000027800244798006e029000144290004c
:102d24000440780092080700000278001e0f720029
:102d34006e029000144290000440780032080700ac
:102d440000027800344798006e029000144290000c
:102d540004407800a8080700000278001e0f7200e3
:102d64006e02900014429000044078005f0807004f
:102d7400000278001e0f7200060037000082eb008c
:102d8400040f78000042eb00244798000042eb0057
:102d9400344798003e4290000482fb0044079800a8
:102da4004e0290004822dd00440798002e42900015
:102db4000482fb00ce029000048242004407980083
:102dc4004e029000040078000080fa000000060023
:102dd4001600fa0070079800010f9800120f98006f
:102de400230f98001e0a9000e00f52009600320054
:102df4001e0a9000f00f5200020036000401200069
:102e0400140f98007e02900014029000c522de0088
:102e14000e0a9000848f5200890036000e0a90003a
:102e24004522dd00440798004e0290004822de004f
:102e3400244f98004e029000344f98007e02900078
:102e440014429000044078005507070000027800ff
:102e5400040f78007e029000144290000440780031
:102e640070070700000278001e0f72007e029000b7
:102e7400944290007e0290001442780085407800cd
:102e840004407800a9070700000278001e0f7200b2
:102e9400441080004f22de00044278000482fb00cc
:102ea400340798000002eb00240798002300370041
:102eb4007e02900014429000044078000b08070042
:102ec400000278001e0f72007e02900014429000ef
:102ed400044078003207070000027800040f7800ed
:102ee4007e02900014429000044078004d070700d1
:102ef400000278001e0f72007e029000944290003f
:102f04007e029000144278008540780004407800e6
:102f140086070700000278001e0f7200441080002c
:102f24004f22de00044278000482fb00340798003c
:102f34002e0290000402e800240798003e0290004c
:102f4400e00f520004003200ae029000840c200016
:102f5400848f5200d6ff36007e0290001442900007
:102f6400844078002e489000700707000002780023
:102f74001e0f72007e02900014429000844078007c
:102f84003e48900069070700000278001e0f720097
:102f94000002eb00140798001e0037001e02900088
:102fa40004024200ae0a9000048242001402780037
:102fb4004822de00444f98001e02900004024200a2
:102fc400ae0a90000482420014027800544f980024
:102fd4007e02900014429000844078005e48900085
:102fe40052070700000278001e0f72007e02900054
:102ff40014429000844078004e4890004b0707002c
:10300400000278001e0f72001e0290000402e80005
:10301400140798009e0290001e0a9000848f5200ac
:10302400deff39007e0290001442900004407800d4
:10303400ae070700000278001e0f7200020037007e
:103044000082eb00040f78000080fa000000060004
:103054001600fa0070079800010f9800120f9800ec
:10306400230f98001e0a9000e00f5200fe00320069
:103074001e0a9000f00f52000200360004012000e6
:10308400140f98007e02900014029000c522de0006
:103094000e0a9000848f5200ed0036000e0a900054
:1030a4004522dd00440798004e0290004822de00cd
:1030b400244f98004e029000344f98007e029000f6
:1030c4001442900004407800b5060700000278001e
:1030d400040f78007e0290001442900004407800af
:1030e400d0060700000278001e0f72007e029000d6
:1030f400944290007e02900014427800854078004b
:103104000440780009070700000278001e0f7200cf
:10311400441080004f22de00044278000482fb0049
:10312400340798000002eb002407980023003700be
:103134007e02900014429000044078006b07070060
:10314400000278001e0f72007e029000144290006c
:10315400044078009206070000027800040f78000b
:103164007e0290001442900004407800ad060700ef
:10317400000278001e0f72007e02900094429000bc
:103184007e02900014427800854078000440780064
:10319400e6060700000278001e0f7200441080004b
:1031a4004f22de00044278000482fb0034079800ba
:1031b4002e0290000402e800240798003e029000ca
:1031c400e00f520004003200ae029000840c200094
:1031d400848f5200d6ff36007e0290001442900085
:1031e400844078002e489000d00607000002780042
:1031f4001e0f72007e0290001442900084407800fa
:103204003e489000c9060700000278001e0f7200b5
:103214007e0290001442900004407800a206070049
:10322400000278001e0f72007e029000944290000b
:103234007e029000144278000404a00085407800c7
:1032440004407800b9060700000278001e0f7200df
:103254000002eb00140798003a0037007e02900049
:103264001442900004407800e7060700000278004a
:10327400444f98007e02900014429000044078006d
:103284003b070700000278001e0f72007e029000c8
:103294001442900004407800db0607000002780026
:1032a400544f98007e02900014429000044078002d
:1032b4002f070700000278001e0f72001e02900004
:1032c40004024200ae0a9000848242005e4a9000ea
:1032d4000482fb00840a78001e029000040242006b
:1032e400ae0a9000848242001e0290000402420052
:1032f4002e0b900004024300140278004822dd00e3
:10330400840a78001e02900004024200ae0a900073
:10331400848242001e029000040242002e0b9000a0
:1033240004024300140378004e4a90000482fb0018
:1033340004024300840a78001e0290000402e8009c
:10334400140798001e0a90008402e9001e029000ef
:10335400848f5200c1ff3e007e0290001442900010
:1033640004407800a806070000027800444f980043
:103374007e0290001442900004407800fc0607008e
:10338400000278001e0f72007e029000144290002a
:10339400044078009c06070000027800544f98000f
:1033a4007e02900014429000044078001207070047
:1033b400000278001e0f72001e02900004024200f8
:1033c400ae0a9000848242005e4a90000482fb00b0
:1033d400840a78001e02900004024200ae0a9000a3
:1033e400848242001e029000040242002e0b9000d0
:1033f40004024300140278004822dd00840a7800a5
:103404001e02900004024200ae0a90008482420030
:103414001e029000040242002e0b9000040243009e
:10342400140378004e4a90000482fb000402430017
:10343400840a78007e0290001442900004407800d0
:10344400aa060700000278001e0f7200060037006b
:103454000082eb00040f78000042eb00444f980018
:103464000042eb00544f98000080fa000000060070
:103474001000fa00000f78002147980022079800f6
:10348400330798004407980055079800660798008a
:10349400770798001e027800ae429000054a780033
:1034a4001e0278006e039000fe039000160298003e
:1034b400270298001e0278003ebb9700cebb9700ff
:1034c40036029800470298001e037800040020008a
:1034d400e500200054039800650398001e0378005b
:1034e40004002000e500200074039800050b9800f8
:1034f4001e027800e4029000540290000400be0012
:10350400c50707001e027800c40290003402900030
:103514000400be00d10707001e027800a402900038
:10352400140290000400be00bb0707001e027800ce
:1035340024529000e04f5200060032001e02780030
:10354400840a9000740290000400be00b2070700d1
:10355400050037001e027800840a9000740290006f
:103564000400be00bd0707001e027800e4029000bc
:10357400540290000400be00db0707001e0278001e
:10358400c4029000340290000400be00d607070075
:103594001e027800a4029000140290000400be00f1
:1035a400d10707001e027800840a9000740290007c
:1035b4000400be00cc0707001e0278001440780007
:1035c4002e039000be0390004e029000de02900095
:1035d40003002a000001eb00f1532000b6030700aa
:1035e4000080fa00000006000200fa00000f7800d4
:1035f4001e027800e4029000540290000400be0011
:103604009607070000000000000000000000000012
:10361400000000001e027800e402900054029000b2
:103624000400be007c0707000080fa0000000600ca
:103634001000fa005007980061079800720798007c
:103644000042eb00044f78005e029000a402900058
:10365400140290000400be00800707005e02900080
:1036640014427800844078006e0090005d040700e6
:103674000002be0034079800450798003e039000fe
:10368400ce0390000400200015112100840f530084
:10369400858f5b0002003a0014c0b300044f780029
:1036a4001e427800e04f520010003a005e02900083
:1036b40014427800844078007e009000490407009a
:1036c4000002be0034079800450798003e039000ae
:1036d400ce0390000400200015112100840f530034
:1036e400858f5b0001003a001e14a0005e0290006a
:1036f400a4029000140290000400be0046070700d4
:1037040000000000000000000000000000000000b5
:103714005e029000a4029000140290000400be0017
:103724004e0707001e427800e04f520012003a0094
:103734005e0290001442780084407800000f20005c
:10374400280407000002be003407980045079800cb
:103754003e029000140798003e039000ce039000b0
:103764000400200015112100840f5300858f5b0095
:1037740001003a001e24a0001e427800e04f5200cf
:1037840012003a005e0290001442780084407800ef
:103794000000eb00130407000002be003407980089
:1037a400450798003e029000240798003e039000cd
:1037b400ce0390000400200015112100840f530053
:1037c400858f5b0001003a001e34a0005e02900069
:1037d400a4029000140290000400be000e0707002b
:1037e4009e0290006e029000848f5200010032000d
:1037f4001e44a000ae0290007e029000848f52000e
:103804000200320004c2b3001e4f72001e42780050
:10381400e04f520003003200b45d80000402e8006f
:10382400b45d88001e427800044078000080fa00ed
:10383400000006001400fa00500798006107980081
:1038440072079800030f9800140f98000042eb00d1
:10385400044f78005e029000a402900014029000cd
:103864000400be00fd0607005e02900014427800ca
:10387400844078006e009000da0307000002be0066
:1038840034079800450798003e039000ce0390004b
:103894000400200015112100840f5300858f5b0064
:1038a40002003a0014c0b300044f78001e427800ae
:1038b400e04f520010003a005e029000144278007b
:1038c400844078007e009000c60307000002be001a
:1038d40034079800450798003e039000ce039000fb
:1038e4000400200015112100840f5300858f5b0014
:1038f40001003a001e14a0005e029000a402900091
:10390400140290000400be00c3060700000000007b
:103914000000000000000000000000005e029000b3
:10392400a4029000140290000400be00cb0607001d
:103934005e02900014427800844078000e089000e3
:10394400a80307000002be0034079800450798004a
:103954003e029000140798003e039000ce039000ae
:103964000400200015112100840f5300858f5b0093
:1039740002003a0014c0b300044f78001e427800dd
:10398400e04f520012003a005e02900014427800a8
:10399400844078001e089000920307000002be00d5
:1039a40034079800450798003e02900024079800c9
:1039b4003e039000ce039000040020001511210066
:1039c400840f5300858f5b0001003a001e14a00091
:1039d4009e0290006e029000848f5200010032001b
:1039e4001e44a000ae0290007e029000848f52001c
:1039f4000200320004c2b3001e4f72005e02900047
:103a0400a4029000140290000400be008206070085
:103a140000000000000000000000000000000000a2
:103a24005e029000a4029000140290000400be0004
:103a34008a0607001e427800e04f520012003a0046
:103a44005e0290001442780084407800000f200049
:103a5400640307000002be0034079800450798007d
:103a64003e029000140798003e039000ce0390009d
:103a74000400200015112100840f5300858f5b0082
:103a840001003a001e24a0001e427800e04f5200bc
:103a940012003a005e0290001442780084407800dc
:103aa4000000eb004f0307000002be00340798003b
:103ab400450798003e029000240798003e039000ba
:103ac400ce0390000400200015112100840f530040
:103ad400858f5b0001003a001e34a0005e02900056
:103ae400a4029000140290000400be004a060700dd
:103af4009e0290000e0a9000848f52000100320052
:103b04001e44a000ae0290001e0a9000848f520052
:103b14000200320004c2b3001e4f72001e4278003d
:103b2400e04f520003003200b45d80000402e8005c
:103b3400b45d88001e427800044078000080fa00da
:103b4400000006001000fa00600798007107980052
:103b54000042eb00044f78000042eb0064479800f9
:103b6400570037006e029000a402900014029000e7
:103b74000400be00390607006e029000144278006b
:103b84006e43900005c3b300854273008582fb0039
:103b94008440780005007800120307000002be008c
:103ba40044079800550798004e02900014079800a7
:103bb4004e039000de039000040020001511210044
:103bc400840f5300858f5b0002003a0014c0b300d9
:103bd400044f78001e427800e04f520018003a006b
:103be4006e02900014427800ee4290008582fb0041
:103bf400858242007e03900085024300950278008e
:103c04008440780005007800f60207000002be0038
:103c140044079800550798004e0290002407980026
:103c24004e039000de0390000400200015112100d3
:103c3400840f5300858f5b0001003a001e14a0001e
:103c44006e429000e04f5200150032006e42900028
:103c54000482fb008402e9000403200005027200d0
:103c6400840278001e029000848f5200010032000a
:103c74001e24a0006e4290000482fb000402e900ae
:103c840004024200fe029000048242009402780082
:103c94002e029000848f5200010032001e34a000d6
:103ca4006e029000a4029000140290000400be0072
:103cb400d90507006e4290000442e800644798006a
:103cc4001e427800e04f520003003a006e4290001a
:103cd400e74f5200a3ff36006e029000a40290004a
:103ce400140290000400be00dc0507001e427800a8
:103cf400e04f520012003a006e0290001442780025
:103d040084407800000f2000b60207000002be00c5
:103d140044079800550798004e0290001407980035
:103d24004e039000de0390000400200015112100d2
:103d3400840f5300858f5b0001003a001e04a0002d
:103d44001e427800e04f520012003a006e029000ca
:103d540014427800844078000000eb00a1020700c0
:103d64000002be0044079800550798004e029000d8
:103d7400240798004e039000de0390000400200006
:103d840015112100840f5300858f5b0001003a0058
:103d94001e14a0006e029000a40290001402900071
:103da4000400be009c0507006e4290000482fb00e4
:103db4008402e900040320000502720084027800f2
:103dc4001e029000848f5200010032001e44a000a5
:103dd4006e4290000482fb000402e90004024200e7
:103de400fe02900004824200940278002e029000a9
:103df400848f52000200320004c2b3001e4f7200ce
:103e04001e427800e04f520003003200c45d80007f
:103e14000402e800c45d88001e4278000440780073
:103e24000080fa00000006001200fa001007980053
:103e34002107980032079800034f98005407980010
:103e44006507980076079800070f98000002eb00ba
:103e5400040f78001e0390006022b800048bbe009b
:103e64001e0290008002eb00250298001e029000c2
:103e74008002eb00350298001e029000ae02900012
:103e8400450298001e029000be0290005502980060
:103e94000e4a9000e14f42000d003a001e029000cd
:103ea40005002800650298001e0290008002eb00c5
:103eb400750298001e02900005002800050a98006b
:103ec4001e0290008002eb00150a98000c003700d7
:103ed4001e02900005002800650298001e02900052
:103ee4008002eb00750298001e0290000500280075
:103ef400050a98001e0290008002eb00150a980043
:103f04001e029000de029000250a98001e02900016
:103f1400ee029000350a98001e029000fe02900006
:103f2400550a98001e0290008e0a9000650a9800b7
:103f34001e0290008002eb00750a98001e02900099
:103f44008002eb00051298001e029000ceba970082
:103f5400151298000080fa00000006001000fa0014
:103f6400100798002107980032079800034f980023
:103f74005407980065079800760798000002eb0044
:103f8400040f78001e0290008002eb0025029800c6
:103f94001e029000de029000350298001e0290007e
:103fa400ee029000450298001e029000fe0290006e
:103fb400550298001e029000ae029000650298001f
:103fc4001e029000be029000750298000e4a9000f6
:103fd400e14f42000d003a001e0290000500280047
:103fe400050a98001e0290008002eb00150a980052
:103ff4001e02900005002800250a98001e02900069
:104004008002eb00350a98000c0037001e02900075
:1040140005002800050a98001e0290008002eb00ab
:10402400150a98001e02900005002800250a980031
:104034001e0290008002eb00350a98000080fa000e
:10404400000006000400fa00100798001e02900009
:10405400740390001e029000e40290001e0290007f
:1040640014027800060178008500780004007800c6
:104074004405070000027800040f78001e02900037
:10408400940a90001e029000040a90000501780032
:10409400840078001e0078002505070000027800df
:1040a400040f78001e029000b40a90001e029000d3
:1040b400240a900005017800840078001e0078002e
:1040c4001b05070000027800040f78001e02900010
:1040d40024029000e00f520003003a001e029000f8
:1040e400d4029000050f78001e0290009e02780012
:1040f400150298000080fa00000006000400fa008f
:10410400100798001e029000140b90001e029000ed
:10411400840a90001e029000240290000601780098
:10412400850078000400780001050700000278008b
:10413400040f78001e029000f40290001e0290000a
:104144006402900005017800840078001e00780065
:10415400f704070000027800040f78001e029000a4
:10416400d40290001e0290004402900005017800e1
:10417400840078001e007800020507000002780021
:10418400040f78001e0290009e0278003502980009
:104194000080fa00000006000400fa00000f780016
:1041a400110798001e027800b40290001e029000cd
:1041b400848f5200030031001e027800b402900084
:1041c400150798001e027800c40290001e02900099
:1041d400848f5200030036001e027800c40290004f
:1041e400150798001e0278009e029000050a7800c8
:1041f4000080fa00000006000200fa00000f7800b8
:104204001e027800b40290001e027800240a900076
:10421400848f520002003600140020000100370091
:104224000002eb00040078000080fa0000000600a1
:104234000200fa00000f78001e027800b402900019
:104244001e027800340a9000848f5200020031006c
:1042540014002000010037000002eb000400780085
:104264000080fa00000006000400fa00100798001d
:104274001e029000d40a90001e029000440a90008e
:104284000001eb008500780004007800a804070012
:1042940000027800040f78001e029000640a900067
:1042a4009e0f5200030036001e029000e40a9000a4
:1042b400050f780004f02f009e0252001e029000a9
:1042c400440a9000848f5200040036001e029000bd
:1042d400440a90001e0f42000200370004f02f0031
:1042e400040f78001e029000340290009e0f5200ca
:1042f400060036001e029000740a90008402e80052
:104304001e029000750a9800090037001e029000f2
:10431400740a9000e00f5200050032001e02900063
:10432400740a90008402e9001e029000750a980045
:104334001e029000f40a90001e02900014129000d5
:10434400848f52000f0039001e029000f40a90007e
:104354001e0290001412900004024200848f520046
:10436400060039001e02900014129000040242005c
:10437400840278001e029000750a98001400200040
:10438400010037000002eb00040078000080fa000e
:10439400000006000400fa00100798001e029000b6
:1043a400d40a90001e029000440a90000001eb0021
:1043b40085007800040078005d040700000278009e
:1043c400040f78001e029000640a90009e0f5200b1
:1043d400030036001e029000e40a9000050f7800e6
:1043e4001e029000440a90009e0f52000400360002
:1043f4001e029000440a90001e0f52000200370073
:104404000002eb00040f78001e02900034029000ba
:104414009e0f5200060031001e029000041290000c
:104424008402e8001e02900005129800090037007b
:104434001e02900004129000e00f520005003200aa
:104444001e029000041290008402e9001e029000f3
:10445400051298001e029000841290001e02900023
:1044640014129000848f52000f0039001e02900035
:10447400841290001e029000141290000402420064
:10448400848f5200060039001e029000141290001e
:1044940004024200840278001e0290000512980073
:1044a40014002000010037000002eb000400780033
:1044b4000080fa00000006001400fa00404798004b
:1044c4003107980042079800530798006407980042
:1044d40075079800060f9800170f98003e02900089
:1044e400f401b300340798000e0b90009e0b90006b
:1044f400463add00ca32de00850272004632dd0033
:104504006e019000fe0190000400be0088ef0700d9
:104514000002be00048fbe0004202000050020001d
:104524001e03be00840f5300858f5b0003003e0012
:1045340014002000445d88003200370034802000dd
:10454400050020001e03be00840f5300858f5b000e
:104554000d003e0044002000445d88001e02be00a1
:104564004e2bdd004222de0004027300c22ade006c
:10457400048fbe00be029000e4ff2f00048262009c
:10458400340798001f003700f400220005002000c3
:104594001e03be00840f5300858f5b000d003e0098
:1045a40004012000445d88001e02be004c2bdd0087
:1045b4004422de0004027300c42ade00048fbe001d
:1045c400be029000d4ff2f000482620034079800da
:1045d4000c00370004042000445d88001e02be0065
:1045e4004a2bdd004622de0004027300c62ade00e8
:1045f400048fbe00be029000c4ff2f00048262003c
:1046040034079800041c2000050020001e03be008f
:10461400840f5300858f5b0008003600445d8000e2
:104624004322dd00445d8800be02900034fe2f006a
:1046340004826200340798005700370004182000f1
:10464400050020001e03be00840f5300858f5b000d
:1046540009003600445d80006722b9000402780036
:10466400445d8800be02900074fe2f000482620044
:104674003407980048003700041420000500200087
:104684001e03be00840f5300858f5b0009003600b3
:10469400445d80006622b90004027800445d88000d
:1046a400be029000b4fe2f0004826200340798001a
:1046b4003900370004102000050020001e03be004e
:1046c400840f5300858f5b0009003600445d800031
:1046d4006522b90004027800445d8800be0290009f
:1046e400f4fe2f0004826200340798002a00370089
:1046f400040c2000050020001e03be00840f53009c
:10470400858f5b0008003600445d80004222dd0096
:10471400445d8800be02900034ff2f0004826200d2
:10472400340798001c00370004082000050020000e
:104734001e03be00840f5300858f5b000900360002
:10474400445d80006322b90004027800445d88005f
:10475400be02900074ff2f000482620034079800a8
:104764000d00370004042000050020001e03be00d5
:10477400840f5300858f5b0007003600445d800082
:1047840004024200445d8800be029000b4ff2f0082
:104794000482620034079800445d80004222dd00f8
:1047a400445d88004e429000e14f520004003a00fc
:1047b4003e029000141188005e03900006118800e8
:1047c4004e429000e24f520004003a003e02900034
:1047d400441188005e039000361188000080fa00be
:1047e400000006000c00fa0040079800214f9800d2
:1047f4000042eb00044f78002e4a9000e14f520033
:1048040054003a008500a9004e029000241188004b
:104814000002eb0034079800180037003e029000b5
:104824000402e80034079800445d8000be02900052
:10483400848f52000300360034c0b300044f780064
:104844000e00370005118000040420000482620079
:10485400e00f52000300320044c0b300044f78005c
:10486400060037000411800062026200e00f52006b
:1048740002003a0014c0b300044f78001e427800ce
:10488400e04f5200e5ff3200200037003e02900066
:104894000402e80034079800445d8000be029000e2
:1048a400848f52000300360034c0b300044f7800f4
:1048b4001600370005118000040420000482620001
:1048c400e00f52000300320044c0b300044f7800ec
:1048d4000e003700250480000410200004826200ca
:1048e400e00f52000300320024c0b300044f7800ec
:1048f400060037000411800061026200e00f5200dc
:104904000200320024c0b300044f78001e42780035
:10491400e14f5200ddff32001e427800e24f5200a8
:1049240005003a00241180000500200014079800b7
:104934002507980007003700040020001511210006
:104944001407980025079800545d80000402e800cd
:10495400545d88002e4a9000e24f52004d003a0008
:104964008740a9004e029000541188000002eb0019
:1049740034079800180037003e0290000402e80053
:1049840034079800445d8000be029000848f52007a
:104994000300360034c0b300044f78000e00370023
:1049a400351180000404200004826200e00f5200ec
:1049b4000300320044c0b300044f780006003700ff
:1049c4003411800062026200e00f520002003a00db
:1049d40014c0b300044f78001e427800e04f520028
:1049e400e5ff3200190037003e0290000402e8009f
:1049f40034079800445d8000be029000848f52000a
:104a04000300360034c0b300044f78000f003700b1
:104a1400351180000404200004826200e00f52007b
:104a24000300320044c0b300044f7800070037008d
:104a3400350480000440200004826200e00f52002c
:104a44000200320024c0b300044f78001e427800f4
:104a5400e14f5200e4ff32001e427800e24f520060
:104a640005003a0054118000050020001407980046
:104a740025079800070037000400200015112100c5
:104a84001407980025079800645d80000402e8007c
:104a9400645d88001e029000ae0290000400be0017
:104aa4000080fa00000006001400fa004047980055
:104ab400310798004207980053079800640798004c
:104ac40075079800060f9800170f98004e01900084
:104ad400de0190006e009000fe00900014ee0700ce
:104ae4000002be00048fbe001e0278004422dd00d6
:104af400a45d88006e029000fe02900052cd2d004d
:104b0400230320000400be0009ee07000002be00db
:104b14001e1f12001e971a000082eb008082eb0019
:104b24001e0f42005e974a001e03be0014002000c0
:104b340005002000840f5300858f5b0003003e00b6
:104b44002400200005002000048fbe00f4ff2f0085
:104b5400050020001e03be00840f5300858f5b00f8
:104b6400030036002400200005002000048fbe004e
:104b74004e429000e04f5200030032004e4290003b
:104b8400e14f520004003a00be0290003510880044
:104b94001e027800241088000080fa00000006003d
:104ba4000600fa00404798000002eb001407980042
:104bb4004e429000e04f5200030032004e429000fb
:104bc400e14f520013003a000002eb00040f78009a
:104bd4000b0037001e0fe800a45d80009e027800e1
:104be400848f52000600360004a02f00140798009a
:104bf400945d80000402e800945d8800050037009d
:104c0400451080000400240004826200e00f52007a
:104c1400f0ff3a001e029000040078000080fa00c1
:104c2400000006000600fa00404798000002eb006e
:104c3400140798004e429000e04f520003003200e7
:104c44004e429000e14f520013003a000602a800c1
:104c54000002eb00040f78000b0037001e0fe80081
:104c6400a45d80009e027800848f52000600360006
:104c740004a02f0014079800945d80000402e8004b
:104c8400945d8800040037003410800061026200e3
:104c9400e00f5200f1ff3a001e0290000400780079
:104ca4000080fa00000006000600fa004047980061
:104cb4000002eb00140798004e429000e04f5200af
:104cc400030032004e429000e14f520013003a00bc
:104cd4000622a8000002eb00040f78000b00370046
:104ce4001e0fe800a45d80009e027800848f5200ad
:104cf4000600360004a02f0014079800945d80007d
:104d04000402e800945d8800040037003410800039
:104d140062026200e00f5200f1ff3a001e029000ae
:104d2400040078000080fa00000006000600fa0083
:104d340040479800514798000002eb001407980080
:104d44005e429000e04f5200030032005e42900049
:104d5400e14f520028003a004e4290000482fb00ca
:104d6400141088000002eb00040f78000c003700d8
:104d74001e0fe800a45d80009e027800848f52001c
:104d84000700360004a02f0014079800945d8000eb
:104d94000402e800945d8800000000001100370060
:104da400451080000400240004826200e00f5200d9
:104db400efff32000b0037001e0fe800a45d8000f7
:104dc4009e027800848f52000600360004a02f0053
:104dd40014079800945d80000402e800945d880044
:104de400050037004510800004002400048262009e
:104df400e00f5200f0ff3a001e0290000400780019
:104e04000080fa00000006000600fa0040479800ff
:104e14000002eb00140798004e429000e04f52004d
:104e2400030032004e429000e14f52002b003a0042
:104e34000662a8000002eb00040f78000c003700a3
:104e44001e0fe800a45d80009e027800848f52004b
:104e54000700360004a02f0014079800945d80001a
:104e64000402e800945d8800000000001000370090
:104e74003410800068026200e00f5200f0ff3a0034
:104e84000b0037001e0fe800a45d80009e0278002e
:104e9400848f52000600360004a02f0014079800e7
:104ea400945d80000402e800945d880004003700eb
:104eb4004410800062026200e00f5200f1ff3200f1
:104ec4001e029000e00f520004003a00051080001a
:104ed400f40f200004826200140798001e02900060
:104ee400040078000080fa00000006000600fa00c2
:104ef400404798000002eb00140798004e429000cf
:104f0400e04f5200030032004e429000e14f520045
:104f140013003a000642a8000002eb00040f7800d8
:104f24000b0037001e0fe800a45d80009e0278008d
:104f3400848f52000600360004a02f001407980046
:104f4400945d80000402e800945d8800040037004a
:104f54003410800064026200e00f5200f1ff3a0056
:104f64001e029000040078000080fa000000060091
:104f74000600fa00404798000002eb00040f780096
:104f84000002eb00140798004e429000e04f5200dc
:104f9400030032004e429000e14f520012003a00ea
:104fa40006a2a9000682a8000b0037001e0fe80025
:104fb400a45d80009e027800848f520006003600b3
:104fc40004a02f0014079800945d80000402e800f8
:104fd400945d880004003700341080007002620081
:104fe400e00f5200f1ff3a001e0290000400780026
:104ff4000080fa00000006000600fa00404798000e
:105004000002eb00040f78000002eb001407980084
:105014004e429000e04f5200030032004e42900096
:10502400e14f520012003a0006a2a8000682a8002e
:105034000b0037001e0fe800a45d80009e0278007c
:10504400848f52000600360004a02f001407980035
:10505400945d80000402e800945d88000400370039
:105064003410800070026200e00f5200f1ff3a0039
:105074001e029000040078000080fa000000060080
:105084001001900090007800010051000000e90038
:10509400f000b200000006001001900090007800bb
:1050a40002805000f000b200000006001170a6005b
:1050b4001a003700e40140009309e80090019000d1
:1050c4001001e800f200b2000310e1001000320009
:1050d400100178006a11b800e801400082814100a3
:1050e4006e8150009219780066014100b21978006f
:1050f400b2197800b2197800b21978001001e800ea
:10510400f200b20002087800e60140009309e900c9
:10511400e60140009309e8001170a10000000600b8
:105124001170a600090037006e8150001218780033
:10513400660141003218780032187800321878007d
:10514400321878001170a10008003700827f210016
:105154000218780002002000021878000218780073
:1051640002187800021878003100370000000600a9
:10517400e40140009309e800900190001001e80068
:10518400f200b2000310e1000e00320010017800ba
:105194006a11b800e801400082814100b119780029
:1051a400b1197800b1197800b1197800b1197800f3
:1051b4001001e800f200b20002087800e6014000a5
:1051c4009309e900e60140009309e80000000600a5
:1051d40010019000900178000310e10008003a00eb
:1051e400837f21008318780003002000831878004f
:1051f4008318780083187800831878000c0037002f
:105204006a11b8006801410000014100b218780039
:10521400b2187800b2187800b2187800b218780082
:10522400100190000201e800f200b20012009800a0
:10523400000006001130a700130037001001900091
:10524400900178000310e1000f0032006a11b800e9
:105254006801410000014100ee815000b20978006c
:10526400e6814100b2197800b2197800b2197800c9
:10527400b21978001130a000100190000201e8007a
:10528400f200b20012009800000006001130a100e4
:105294006e815000300978006601410030197800b1
:1052a4003019780030197800301978001130a000d6
:1052b400000006000018eb000018eb000018eb00db
:1052c4000008eb00000006000400fa001007980034
:1052d4001e029000c4029000050f78009e02780020
:1052e40004102400848f52000c003a001e02900027
:1052f4002402900084007800c0b02000a6fb0700c0
:105304001e029000340290008400780040b2200015
:10531400a1fb07008849a90004003700b44d8000b0
:105324000402e800b44d8800000000000080fa0088
:10533400000006000400fa00100798001e02900006
:10534400c4029000050f7800b44d80000402e80008
:10535400b44d88000080fa00000006000400fa0042
:10536400100798001e029000c4029000050f7800f8
:10537400f4ff20001e0f6200b44d80000402e80018
:10538400b44d88000080fa00000006000000fa0016
:1053940014002000f45d88000080fa00000006007c
:1053a4000000fa00b450800027598000665880003d
:1053b400a54a8000870178000601780085007800fe
:1053c400c00420001df307000080fa00000006005e
:1053d4000000fa00f4528000d7518000964f8000fc
:1053e400855b8000870178000601780085007800dd
:1053f400d004200011f307000080fa00000006002a
:105404000000fa000080fa00000006000000fa0024
:105414000080fa000000060001600100c422b70009
:1054240000000600ca22b70000000600d022b70020
:1054340000000600d622b7000000060000000000ad
:1054440000000600e222b70000000600e822b700d0
:105454000000060000000000000006000080ea00d2
:1054640001600100c422b60000000600ca22b60092
:1054740000000600d022b60000000600d622b600c6
:10548400000006000000000000000600e222b60052
:1054940000000600e822b60000000600000000003c
:1054a4000000060001600100c022b70000000600f1
:1054b400c622b70000000600cc22b7000000060098
:1054c400d222b70000000600000000000000060021
:1054d400de22b70000000600e422b7000000060048
:1054e40000000000000006000080ea0001600100e6
:1054f400c022b60000000600c622b6000000060066
:10550400cc22b60000000600d222b600000006003d
:105514000000000000000600de22b60000000600c5
:10552400e422b600000006000000000000000600af
:105534000200e00005003b000200400008003100ca
:1055440000002000ba2bec000500370002004000e8
:1055540003003900f0ff2f00ba2bec0000003700e5
:105564000101b8006218b8000100e0000200320036
:10557400f0ff2f00ba2bec00cf10de00010070000a
:10558400000006000200e00005003b0002004000ad
:105594000800310000002000bc2bec00050037009f
:1055a4000200400003003900f0ff2f00bc2bec0088
:1055b400000037000101b8007018b8000100e000d5
:1055c40002003200f0ff2f00bc2bec00cc10de00f8
:0855d400010070000000060058
:020000040000fa
:1055dc0000080000d001000000000000be0b00001d
:1055ec000200000000000000b20b000004000000ec
:1055fc0000000000a80b00000600000000000000e6
:10560c00b60b00000400000000000000ba0b000004
:10561c000400000000000000880b000020000000c7
:10562c0002000000ffffff00ffffff00ffffff0075
:10563c00ffffff00ffffff00ffffff00ffffff006a
:10564c00ffffff00ffffff00ffffff00ffff000059
:10565c00d0090000b80100000000000000000000ac
:020000040000fa
:10566c00f03fb1000180b10006003500ee030900e7
:10567c0000000000403fb1000180b100fbff3d0085
:10568c001000b000203fb00002003500008009007f
:08569c00000000000000060000
:020000040000fa
:0200000401f009
:04000000ecbb000055
:020000040000fa
:0200000401f009
:04000400f7ff000002
:020000040000fa
:0200000401f009
:040008004cff0000a9
:020000040000fa
:0200000401f009
:04000c00ffff0000f2
:020000040000fa
:0200000401f009
:04001000ffff0000ee
:020000040000fa
:0200000401f009
:04001400ffff0000ea
:020000040000fa
:0200000401f009
:04001800ffff0000e6
:00000001FF
